:020000040800F2
:10000000005000209D0F0008390F0008410F000824
:10001000490F0008510F0008590F000800000000A8
:10002000000000000000000000000000610F000858
:100030006D0F000800000000790F0008850F000810
:10004000E50F0008E50F0008E50F0008E50F0008C0
:10005000E50F0008E50F0008E50F0008E50F0008B0
:10006000E50F0008E50F0008E50F0008E50F0008A0
:10007000E50F0008E50F0008E50F0008E50F000890
:10008000E50F0008E50F0008E50F0008E50F000880
:10009000E50F0008E50F0008E50F0008E50F000870
:1000A000E50F0008E50F0008E50F0008E50F000860
:1000B000E50F0008E50F0008E50F0008E50F000850
:1000C000E50F0008E50F0008E50F0008E50F000840
:1000D000E50F0008E50F0008E50F0008E50F000830
:1000E000E50F0008E50F0008E50F0008000000001C
:1000F0000000000000000000000000000000000000
:0C01000000000000000000005FF808F1A3
:10010C0010B5054C237833B9044B13B10448AFF345
:10011C0000800123237010BD0C00002000000000A3
:10012C00282B000808B5034B1BB103490348AFF358
:10013C00008008BD0000000010000020282B0008E3
:10014C0080B582B000AF03460A46FB711346BB7103
:10015C00BB7903F00103002B14D0FB795A4A3421EC
:10016C0001FB03F3134404331868FB79564A34211A
:10017C0001FB03F3134408331B880122194601F0D9
:10018C0021FF13E0FB79504A342101FB03F31344A4
:10019C0004331868FB794C4A342101FB03F31344F4
:1001AC0008331B880022194601F00CFFBB7903F0C1
:1001BC000203002B14D0FB79434A342101FB03F3D7
:1001CC0013440C331868FB793F4A342101FB03F3C9
:1001DC00134410331B880122194601F0F3FE13E07F
:1001EC00FB79394A342101FB03F313440C331868AF
:1001FC00FB79354A342101FB03F3134410331B887C
:10020C000022194601F0DEFEBB7903F00403002B3B
:10021C0014D0FB792C4A342101FB03F3134414331F
:10022C001868FB79284A342101FB03F31344183373
:10023C001B880122194601F0C5FE13E0FB79224A06
:10024C00342101FB03F3134414331868FB791E4A61
:10025C00342101FB03F3134418331B880022194685
:10026C0001F0B0FEBB7903F00803002B14D0FB792E
:10027C00154A342101FB03F313441C331868FB7932
:10028C00114A342101FB03F3134420331B88012250
:10029C00194601F097FE13E0FB790B4A342101FB60
:1002AC0003F313441C331868FB79074A342101FB10
:1002BC0003F3134420331B880022194601F082FEFD
:1002CC0000BF0837BD4680BD542B000880B588B0F0
:1002DC0000AF03460A46FB711346BB71FB79574AC4
:1002EC00342101FB03F313442C331868FB79534A74
:1002FC00342101FB03F3134430331B8800221946CD
:10030C0001F060FEBA79FB7911461846FFF718FF29
:10031C00FB794A4A342101FB03F313442433186854
:10032C00FB79464A342101FB03F3134428331B8821
:10033C000022194601F046FE414B9B68FB61414B84
:10034C001B68414AA2FB03239A0C13469B001A44D8
:10035C003C4B1B683C49A1FB03139B0C5B08D31A59
:10036C00BB61374B9B68FA69D31ABA699A42F8D8C1
:10037C00FB79324A342101FB03F31344243318680C
:10038C00FB792E4A342101FB03F3134428331B88D9
:10039C000122194601F016FE294B9B687B61294B03
:1003AC001B68294AA2FB03239A0C13469B001A4490
:1003BC00244B1B682449A1FB03139B0C5B08D31A29
:1003CC003B611F4B9B687A69D31A3A699A42F8D8F9
:1003DC00FB791A4A342101FB03F3134424331868C4
:1003EC00FB79164A342101FB03F3134428331B8891
:1003FC000022194601F0E6FD114B9B68FB60114B86
:10040C001B68114AA2FB03239B0C642203FB02F220
:10041C000C4B1B680C49A1FB03139B0C5B08D31AF8
:10042C00BB60074B9B68FA68D31ABA689A42F8D833
:10043C0000BF00BF2037BD4680BD00BF542B000855
:10044C0010E000E00000002083DE1B4380B586B086
:10045C0000AF0346FB71FB7900211846FFF736FF0E
:10046C00FB7901211846FFF731FF00237B611FE068
:10047C00134B9B683B61134B1B68134AA2FB032372
:10048C009B0C4FF47A7203FB02F20E4B1B680E4965
:10049C00A1FB03139B0C5B08D31AFB60084B9B68F6
:1004AC003A69D31AFA689A42F8D87B6901337B61AE
:1004BC007B69012BDCD900BF00BF1837BD4680BD5E
:1004CC0010E000E00000002083DE1B4380B584B008
:1004DC0000AF0346FB710B46BB7113467B71BB79B6
:1004EC00012B15D17B797F33FB73FB7B1B09BB7312
:1004FC00FB7B03F00F037B73BA7BFB791146184629
:10050C00FFF7E4FE7A7BFB7911461846FFF7DEFE17
:10051C00BB79022B15D17B79413BFB73FB7B1B0910
:10052C00BB73FB7B03F00F037B73BA7BFB79114628
:10053C001846FFF7CBFE7A7BFB7911461846FFF77E
:10054C00C5FE00BF1037BD4680BD000080B58EB023
:10055C0000AF0346FB7100BF00F098FD0346312B42
:10056C00FAD9FB797C4A342101FB03F313442C3375
:10057C001868FB79784A342101FB03F313443033B8
:10058C001B880022194601F01DFDFB79724A3421AB
:10059C0001FB03F3134424331868FB796E4A3421AE
:1005AC0001FB03F3134428331B880022194601F086
:1005BC0009FDFB7900211846FFF7C2FD00237B6380
:1005CC001FE0664B9B683B61654B1B68654AA2FB51
:1005DC0003239B0C4FF47A7203FB02F2604B1B68F3
:1005EC006049A1FB03139B0C5B08D31AFB605B4BAC
:1005FC009B683A69D31AFA689A42F8D87B6B013334
:10060C007B637B6B952BDCD9FB7903211846FFF7B9
:10061C005DFE00233B631FE0504B9B68BB61504B5E
:10062C001B68504AA2FB03239B0C4FF47A7203FB0A
:10063C0002F24B4B1B684B49A1FB03139B0C5B0851
:10064C00D31A7B61454B9B68BA69D31A7A699A4273
:10065C00F8D83B6B01333B633B6B042BDCD9FB7948
:10066C0003211846FFF732FE0023FB621FE03B4BD1
:10067C009B683B623A4B1B683A4AA2FB03239B0CD8
:10068C004FF47A7203FB02F2354B1B683549A1FB20
:10069C0003139B0C5B08D31AFB61304B9B683A6AC3
:1006AC00D31AFA699A42F8D8FB6A0133FB62FB6AE7
:1006BC00042BDCD9FB7903211846FFF707FE274BE7
:1006CC009B68BB62264B1B68264AA2FB03239B0C30
:1006DC00962203FB02F2224B1B682249A1FB031357
:1006EC009B0C5B08D31A7B621C4B9B68BA6AD31AAF
:1006FC007A6A9A42F8D8FB7902211846FFF7E6FD90
:10070C00FB7902211846FFF7E1FDFB790821184619
:10071C00FFF7DCFDFB7900211846FFF7D7FDFB79CD
:10072C000C211846FFF7D2FDFB7900211846FFF784
:10073C00CDFDFB7906211846FFF7C8FDFB7900219A
:10074C001846FFF7C3FDFB7901211846FFF7BEFDE4
:10075C0000BF3837BD4680BD542B000810E000E0C8
:10076C000000002083DE1B4380B590B000AF034631
:10077C000A46FB711346BB71BB7903F00F0387F874
:10078C003F30BB7923F00F0387F83E30FB79A44A46
:10079C00342101FB03F313442C331868FB79A04A72
:1007AC00342101FB03F3134430331B880122194617
:1007BC0001F008FC97F83E301B09DAB2FB791146C0
:1007CC001846FFF7BDFCFB79954A342101FB03F376
:1007DC00134424331868FB79914A342101FB03F349
:1007EC00134428331B880022194601F0EBFB8D4B78
:1007FC009B68BB638C4B1B688C4AA2FB03239A0C33
:10080C0013469B001A44884B1B688849A1FB0313B1
:10081C009B0C5B08D31A7B63824B9B68BA6BD31A15
:10082C007A6B9A42F8D8FB797D4A342101FB03F3A9
:10083C00134424331868FB79794A342101FB03F300
:10084C00134428331B880122194601F0BBFB754B5E
:10085C009B683B63744B1B68744AA2FB03239A0C82
:10086C0013469B001A44704B1B687049A1FB031381
:10087C009B0C5B08D31AFB626A4B9B683A6BD31ACE
:10088C00FA6A9A42F8D8FB79654A342101FB03F3E2
:10089C00134424331868FB79614A342101FB03F3B8
:1008AC00134428331B880022194601F08BFB5D4B47
:1008BC009B68BB625C4B1B685C4AA2FB03239B0CD2
:1008CC00642203FB02F2584B1B685849A1FB03132B
:1008DC009B0C5B08D31A7B62524B9B68BA6AD31A87
:1008EC007A6A9A42F8D897F83F20FB791146184655
:1008FC00FFF726FCFB794A4A342101FB03F313442E
:10090C0024331868FB79464A342101FB03F3134462
:10091C0028331B880022194601F054FB414B9B687D
:10092C003B62414B1B68414AA2FB03239A0C1346C2
:10093C009B001A443C4B1B683C49A1FB03139B0CCA
:10094C005B08D31AFB61374B9B683A6AD31AFA6976
:10095C009A42F8D8FB79324A342101FB03F3134451
:10096C0024331868FB792E4A342101FB03F313441A
:10097C0028331B880122194601F024FB294B9B6864
:10098C00BB61294B1B68294AA2FB03239A0C134613
:10099C009B001A44244B1B682449A1FB03139B0C9A
:1009AC005B08D31A7B611F4B9B68BA69D31A7A69AF
:1009BC009A42F8D8FB791A4A342101FB03F3134409
:1009CC0024331868FB79164A342101FB03F31344D2
:1009DC0028331B880022194601F0F4FA114B9B684E
:1009EC003B61114B1B68114AA2FB03239B0C642235
:1009FC0003FB02F20C4B1B680C49A1FB03139B0C71
:100A0C005B08D31AFB60074B9B683A69D31AFA68E8
:100A1C009A42F8D800BF00BF4037BD4680BD00BF2A
:100A2C00542B000810E000E00000002083DE1B4384
:100A3C0080B584B000AF03463960FB710023FB60C6
:100A4C000BE0FB683A6813441A78FB791146184698
:100A5C00FFF78AFEFB680133FB60FB683A681344BE
:100A6C001B78002BEDD100BF00BF1037BD4680BDF9
:100A7C0080B582B000AF00F0B1FA00F051F800F090
:100A8C00DFF800F0A9F80020FFF760FD0020FFF769
:100A9C00DDFC012201210020FFF718FD1C4900207C
:100AAC00FFF7C6FF1B4800F0A5FC1A4800F074FFC6
:100ABC004FF4FA7000F0F4FA164800F0EDFB0A213E
:100ACC00144800F0C3FC134800F0C6FD0346FB803D
:100ADC00104800F08FFC0020FFF7B8FC0122012128
:100AEC000020FFF7F3FC0C490020FFF7A1FFFB8867
:100AFC000A220A49184600F045F907220121002074
:100B0C00FFF7E4FC05490020FFF792FF00BFCFE799
:100B1C00402B0008280000204C2B00085800002017
:100B2C0080B594B000AF07F12803282200211846A5
:100B3C0001F0C8FF07F1140300221A605A609A6092
:100B4C00DA601A613B1D00221A605A609A60DA6002
:100B5C000123BB624FF48033FB6200233B63012310
:100B6C00BB6302237B644FF48033BB644FF4E0130C
:100B7C00FB6407F12803184601F03CFA0346002BEE
:100B8C0001D000F0CBF80F237B610223BB61002363
:100B9C00FB614FF480633B624FF4A0637B6207F10F
:100BAC0014030221184601F0A7FC0346002B01D0C8
:100BBC0000F0B4F802237B600023FB603B1D184659
:100BCC0001F014FE0346002B01D000F0A7F800BF83
:100BDC005037BD4680BD000080B584B000AF3B1DD2
:100BEC0000221A605A609A60134B144A1A60124B16
:100BFC0000229A60104B00221A730F4B00221A75B8
:100C0C000D4B4FF46022DA610B4B00225A600A4BF9
:100C1C0001221A61084800F067FA01237B60012366
:100C2C00BB600023FB603B1D1946034800F020FD10
:100C3C0000BF1037BD4680BD2800002000240140B5
:100C4C0080B588B000AF07F1100300221A605A601B
:100C5C009A60DA602E4B9B692D4A43F01003936126
:100C6C002B4B9B6903F01003FB60FB68284B9B69C3
:100C7C00274A43F020039361254B9B6903F0200323
:100C8C00BB60BB68224B9B69214A43F00403936110
:100C9C001F4B9B6903F004037B607B681C4B9B69B7
:100CAC001B4A43F008039361194B9B6903F008033B
:100CBC003B603B6800224FF40051164801F082F96A
:100CCC0000224FF47C41144801F07CF94FF400539E
:100CDC003B6101237B610023BB610223FB6107F1B4
:100CEC00100319460B4800F0E9FF4FF47C433B61BD
:100CFC0001237B610023BB610223FB6107F110031D
:100D0C001946054800F0DAFF00BF2037BD4680BD0C
:100D1C000010024000100140000C014080B400AFF4
:100D2C0072B600BF00BFFDE780B485B000AF78603D
:100D3C000B46FB700023FB73FB78013BBB7317E086
:100D4C00FB7B7A6813441B787B73BB7B7A681A44F1
:100D5C00FB7B79680B4412781A70BB7B7A6813445E
:100D6C007A7B1A70FB7B0133FB73BB7B013BBB7340
:100D7C00FA7BBB7B9A42E3D300BF00BF1437BD465E
:100D8C0080BC704780B586B000AFF860B960134680
:100D9C00FB710023FB750023BB75FB68002B0ED188
:100DAC00FB7D5A1CFA751A46BB68134430221A7024
:100DBC00FB7DBA68134400221A70FB7D44E0FB688B
:100DCC00002B28DAFB790A2B25D10123BB75FB6894
:100DDC005B42FB601FE0FA79FB6893FBF2F101FBCD
:100DEC0002F29B1A3B613B69092B04DD3B69DBB2C8
:100DFC003733DBB203E03B69DBB23033DBB2FA7D75
:100E0C00511CF9751146BA680A441370FB79FA68DB
:100E1C0092FBF3F3FB60FB68002BDCD1BB7D002B5A
:100E2C0007D0FB7D5A1CFA751A46BB6813442D2259
:100E3C001A70FB7DBA68134400221A70FB7D1946A8
:100E4C00B868FFF771FFFB7D18461837BD4680BDAB
:100E5C0080B485B000AF154B9B69144A43F0010375
:100E6C009361124B9B6903F00103BB60BB680F4B92
:100E7C00DB690E4A43F08053D3610C4BDB6903F002
:100E8C0080537B607B680A4B5B68FB60FB6823F0DC
:100E9C00E063FB60FB6843F08063FB60044AFB6823
:100EAC00536000BF1437BD4680BC70470010024031
:100EBC000000014080B588B000AF786007F11003E6
:100ECC0000221A605A609A60DA607B681B68144AC8
:100EDC00934221D1134B9B69124A43F400739361E3
:100EEC00104B9B6903F40073FB60FB680D4B9B6913
:100EFC000C4A43F0040393610A4B9B6903F004030F
:100F0C00BB60BB6801233B6103237B6107F11003CA
:100F1C001946054800F0D2FE00BF2037BD4680BD03
:100F2C0000240140001002400008014080B400AFD2
:100F3C0000BFFDE780B400AF00BFFDE780B400AF99
:100F4C0000BFFDE780B400AF00BFFDE780B400AF89
:100F5C0000BFFDE780B400AF00BFBD4680BC70474A
:100F6C0080B400AF00BFBD4680BC704780B400AFFA
:100F7C0000BFBD4680BC704780B500AF00F074F870
:100F8C0000BF80BD80B400AF00BFBD4680BC7047C1
:100F9C00FFF7F8FF0B480C490C4A002302E0D45829
:100FAC00C4500433C4188C42F9D3094A094C0023A9
:100FBC0001E013600432A242FBD301F08BFDFFF77A
:100FCC0057FD7047000000200C000020D02B0008BB
:100FDC000C00002070000020FEE7000080B500AF80
:100FEC00084B1B68074A43F010031360032000F002
:100FFC0031FE0F2000F008F8FFF72AFF00231846F7
:10100C0080BD00BF0020024080B582B000AF786088
:10101C00124B1A68124B1B7819464FF47A73B3FBB8
:10102C00F1F3B2FBF3F3184600F03BFE0346002B42
:10103C0001D001230EE07B680F2B0AD800227968BF
:10104C004FF0FF3000F011FE064A7B68136000235E
:10105C0000E0012318460837BD4680BD0000002083
:10106C00080000200400002080B400AF054B1B7862
:10107C001A46054B1B681344034A136000BFBD4658
:10108C0080BC7047080000206C00002080B400AFCA
:10109C00024B1B681846BD4680BC70476C00002094
:1010AC0080B584B000AF7860FFF7F0FFB8607B6864
:1010BC00FB60FB68B3F1FF3F05D00A4B1B781A4667
:1010CC00FB681344FB6000BFFFF7E0FF0246BB6800
:1010DC00D31AFA689A42F7D800BF00BF1037BD4642
:1010EC0080BD00BF0800002080B586B000AF7860DE
:1010FC000023FB7500233B610023BB600023FB60D6
:10110C007B68002B01D10123BEE07B689B68002B20
:10111C007B689B6A002B09D17B680022DA627B68B2
:10112C00002283F824207868FFF7C4FE786800F06A
:10113C00F1FB0346FB757B689B6A03F01003002BE5
:10114C0040F09980FB7D002B40F095807B689B6A7A
:10115C0023F4885323F0020343F002027B689A6263
:10116C007B685A687B68DB691A437B681B7B5B0076
:10117C001343BA681343BB607B689B68B3F5807FED
:10118C0003D07B689B68012B02D14FF4807300E085
:10119C0000233A6913433B617B681B7D012B19D1FA
:1011AC007B681B7B002B09D17B689B69013B5A0335
:1011BC003B69134343F400633B610BE07B689B6A20
:1011CC0043F020027B689A627B68DB6A43F0010281
:1011DC007B68DA627B681B685B6823F469417B6817
:1011EC001B683A690A435A607B681B689A68284BEB
:1011FC0013407A681268B9680B4393607B689B68EC
:10120C00B3F5807F03D07B689B68012B04D17B688E
:10121C001B69013B1B05FB607B681B68DB6A23F4C5
:10122C0070017B681B68FA680A43DA627B681B688A
:10123C009A68184B1340BA689A420BD17B6800220B
:10124C00DA627B689B6A23F0030343F001027B683C
:10125C009A6218E07B689B6A23F0120343F0100239
:10126C007B689A627B68DB6A43F001027B68DA6216
:10127C000123FB7507E07B689B6A43F010027B68D7
:10128C009A620123FB75FB7D18461837BD4680BD5D
:10129C00FDF7E1FFFE0E1FFF80B584B000AF786054
:1012AC000023FB737B6893F82430012B01D10223BC
:1012BC0098E07B68012283F82420786800F0D0FA4B
:1012CC000346FB73FB7B002B40F087807B689B6A9B
:1012DC0023F4407323F0010343F480727B689A6219
:1012EC007B681B68414A934205D1414B5B6803F410
:1012FC007023002B15D17B689B6A23F480127B68CA
:10130C009A627B681B685B6803F48063002B26D0B1
:10131C007B689B6A23F4405343F480527B689A6247
:10132C001DE07B689B6A43F480127B689A627B6841
:10133C001B682F4A934204D07B681B682B4A93424C
:10134C000DD12B4B5B6803F48063002B07D07B68BB
:10135C009B6A23F4405343F480527B689A627B6807
:10136C009B6A03F48053002B06D07B68DB6A23F066
:10137C0006027B68DA6202E07B680022DA627B6834
:10138C00002283F824207B681B686FF002021A602D
:10139C007B681B689B6803F46023B3F5602F13D143
:1013AC007B681B68114A934205D1114B5B6803F4AF
:1013BC007023002B08D17B681B689A687B681B68BC
:1013CC0042F4A0029A600CE07B681B689A687B6808
:1013DC001B6842F480129A6003E07B68002283F859
:1013EC002420FB7B18461037BD4680BD00280140E9
:1013FC000024014080B584B000AF78600023FB73FB
:10140C007B6893F82430012B01D102231AE07B680E
:10141C00012283F82420786800F07CFA0346FB73E1
:10142C00FB7B002B09D17B689B6A23F4885323F048
:10143C00010343F001027B689A627B68002283F807
:10144C002420FB7B18461037BD4680BD90B587B075
:10145C0000AF7860396000237B610023FB600023C0
:10146C003B61FFF713FE78617B681B689B6803F494
:10147C008073002B0BD07B689B6A43F020027B6847
:10148C009A627B68002283F824200123D3E07B68D6
:10149C001B685B6803F48073002B31D17B681B687D
:1014AC00DB6A03F47003002B2AD121E03B68B3F113
:1014BC00FF3F1DD03B68002B07D0FFF7E7FD02462E
:1014CC007B69D31A3A689A4212D27B681B681B68F4
:1014DC0003F00203002B0BD17B689B6A43F00402E0
:1014EC007B689A627B68002283F824200323A2E0A5
:1014FC007B681B681B6803F00203002BD6D070E0DE
:10150C004F4B1C68022001F027FA0346B4FBF3F2A0
:10151C007B681B6819694B4B0B40002B18D17B68FF
:10152C001B68D968484B0B40002B11D17B681B689A
:10153C001969464B0B40002B08D17B681B68D96896
:10154C00434B0B40002B01D1142320E029231EE038
:10155C007B681B6819693D4B0B40002B06D17B68DF
:10156C001B68D9683A4B0B40002B0DD07B681B686D
:10157C001969384B0B40002B08D17B681B68D96864
:10158C00344B0B40002B01D1542300E0FC2302FB15
:10159C0003F33B6121E03B68B3F1FF3F1AD03B689A
:1015AC00002B07D0FFF772FD02467B69D31A3A680D
:1015BC009A420FD2FB683A699A420BD97B689B6AB4
:1015CC0043F004027B689A627B68002283F8242033
:1015DC00032330E0FB680133FB60FB683A699A42F5
:1015EC00D9D87B681B686FF012021A607B689B6A03
:1015FC0043F400727B689A627B681B689B6803F4F7
:10160C006023B3F5602F15D17B681B7B002B11D1A8
:10161C007B689B6A23F480727B689A627B689B6A06
:10162C0003F48053002B05D17B689B6A43F00102C5
:10163C007B689A62002318461C37BD4690BD00BFDC
:10164C00000000202449922424499200922449123B
:10165C00922449004992240080B483B000AF786092
:10166C007B681B68DB6C18460C37BD4680BC70472A
:10167C0080B485B000AF786039600023FB73002321
:10168C00BB607B6893F82430012B01D10223DCE092
:10169C007B68012283F824203B685B68062B1CD8EE
:1016AC007B681B68596B3B685A6813469B00134454
:1016BC00053B1F2202FA03F3DB4319403B68186811
:1016CC003B685A6813469B001344053B00FA03F22F
:1016DC007B681B680A435A633CE03B685B680C2BD5
:1016EC001CD87B681B68196B3B685A6813469B00B7
:1016FC001344233B1F2202FA03F3DB4319403B68DC
:10170C0018683B685A6813469B001344233B00FA45
:10171C0003F27B681B680A431A631BE07B681B6837
:10172C00D96A3B685A6813469B001344413B1F22FD
:10173C0002FA03F3DB4319403B6818683B685A68AC
:10174C0013469B001344413B00FA03F27B681B6871
:10175C000A43DA623B681B68092B1CD97B681B683F
:10176C00D9683B681A6813465B0013441E3B07227A
:10177C0002FA03F3DB4319403B6898683B681A682C
:10178C0013465B0013441E3B00FA03F27B681B6894
:10179C000A43DA6019E07B681B6819693B681A68B0
:1017AC0013465B001344072202FA03F3DB43194090
:1017BC003B6898683B681A6813465B00134400FA50
:1017CC0003F27B681B680A431A613B681B68102B89
:1017DC0003D03B681B68112B32D17B681B681D4AF8
:1017EC00934225D17B681B689B6803F40003002B94
:1017FC0026D17B681B689A687B681B6842F40002E0
:10180C009A603B681B68102B1AD1134B1B68134A48
:10181C00A2FB03239A0C13469B0013445B00BB6092
:10182C0002E0BB68013BBB60BB68002BF9D107E051
:10183C007B689B6A43F020027B689A620123FB73EE
:10184C007B68002283F82420FB7B18461437BD46A6
:10185C0080BC7047002401400000002083DE1B4345
:10186C0080B584B000AF78600023FB600023BB60C0
:10187C007B681B689B6803F00103012B40D07B68DD
:10188C001B689A687B681B6842F001029A601F4BC8
:10189C001B681F4AA2FB03239B0CBB6002E0BB68C6
:1018AC00013BBB60BB68002BF9D1FFF7EFFBF86085
:1018BC001FE0FFF7EBFB0246FB68D31A022B18D98B
:1018CC007B681B689B6803F00103012B11D07B68BC
:1018DC009B6A43F010027B689A627B68DB6A43F078
:1018EC0001027B68DA627B68002283F824200123E2
:1018FC0007E07B681B689B6803F00103012BD8D1C0
:10190C00002318461037BD4680BD00BF00000020E4
:10191C0083DE1B4380B584B000AF78600023FB608E
:10192C007B681B689B6803F00103012B2ED17B683D
:10193C001B689A687B681B6822F001029A60FFF7AB
:10194C00A5FBF8601BE0FFF7A1FB0246FB68D31A6E
:10195C00022B14D97B681B689B6803F00103012BD5
:10196C000DD17B689B6A43F010027B689A627B689E
:10197C00DB6A43F001027B68DA62012307E07B68D3
:10198C001B689B6803F00103012BDCD00023184675
:10199C001037BD4680BD000090B587B000AF7860B1
:1019AC000023FB750023FB607B6893F82430012B2C
:1019BC0001D1022397E07B68012283F82420786808
:1019CC00FFF7A8FF0346FB757868FFF749FF03464E
:1019DC00FB75FB7D002B40F081807B689B6A23F4B8
:1019EC00885323F0020343F002027B689A62404B57
:1019FC001C68022000F0B0FF0346B4FBF3F35B005D
:101A0C00FB6002E0FB68013BFB60FB68002BF9D13B
:101A1C007B681B689A687B681B6842F008029A60B6
:101A2C00FFF734FB38611BE0FFF730FB02463B69E4
:101A3C00D31A0A2B14D97B681B689B6803F0080324
:101A4C00002B0DD07B689B6A23F0120343F010022D
:101A5C007B689A627B68002283F82420012342E091
:101A6C007B681B689B6803F00803002BDCD17B6848
:101A7C001B689A687B681B6842F004029A60FFF747
:101A8C0005FB38611BE0FFF701FB02463B69D31AEB
:101A9C000A2B14D97B681B689B6803F00403002B8A
:101AAC000DD07B689B6A23F0120343F010027B6815
:101ABC009A627B68002283F82420012313E07B6860
:101ACC001B689B6803F00403002BDCD17B689B6ACA
:101ADC0023F0030343F001027B689A627B680022C7
:101AEC0083F82420FB7D18461C37BD4690BD00BFF3
:101AFC000000002080B485B000AF78607B6803F0F4
:101B0C000703FB600C4BDB68BB60BA684FF6FF0346
:101B1C001340BB60FB681A02BB68134343F0BF63FE
:101B2C0043F40033BB60044ABB68D36000BF143776
:101B3C00BD4680BC704700BF00ED00E080B400AF34
:101B4C00044BDB681B0A03F007031846BD4680BC38
:101B5C00704700BF00ED00E080B483B000AF0346D7
:101B6C003960FB7197F90730002B0ADB3B68DAB25E
:101B7C000C4997F907301201D2B20B4483F80023B9
:101B8C000AE03B68DAB20849FB7903F00F03043B27
:101B9C001201D2B20B441A7600BF0C37BD4680BC82
:101BAC00704700BF00E100E000ED00E080B489B0B8
:101BBC0000AFF860B9607A60FB6803F00703FB6163
:101BCC00FB69C3F10703042B28BF0423BB61FB692A
:101BDC000433062B02D9FB69033B00E000237B6135
:101BEC004FF0FF32BB6902FA03F3DA43BB681A40C9
:101BFC007B699A404FF0FF317B6901FA03F3D943BB
:101C0C007B680B40134318462437BD4680BC704795
:101C1C0080B582B000AF78607B68013BB3F1807F08
:101C2C0001D301230FE00A4A7B68013B53600F216B
:101C3C004FF0FF30FFF790FF054B00229A60044BEA
:101C4C0007221A60002318460837BD4680BD00BF26
:101C5C0010E000E080B582B000AF78607868FFF7E4
:101C6C0049FF00BF0837BD4680BD80B586B000AFC8
:101C7C000346B9607A60FB7300237B61FFF75EFF5C
:101C8C0078617A68B9687869FFF790FF024697F92E
:101C9C000F3011461846FFF75FFF00BF1837BD46DF
:101CAC0080BD80B582B000AF78607868FFF7B0FF78
:101CBC00034618460837BD4680BD000080B48BB083
:101CCC0000AF7860396000237B6200233B6269E1DE
:101CDC0001227B6A02FA03F3FB613B681B68FA6919
:101CEC001340BB61BA69FB699A4240F058813B686A
:101CFC005B689A4A93425ED0984A934275D8984A48
:101D0C00934258D0964A93426FD8964A934252D0F7
:101D1C00944A934269D8944A93424CD0924A934243
:101D2C0063D8924A934246D0904A93425DD8122B84
:101D3C002AD8122B59D801A252F823F0C31D00083F
:101D4C009D1D0008AF1D0008F11D0008F71D0008BF
:101D5C00F71D0008F71D0008F71D0008F71D000807
:101D6C00F71D0008F71D0008F71D0008F71D0008F7
:101D7C00F71D0008F71D0008F71D0008F71D0008E7
:101D8C00A51D0008B91D0008794A934213D02CE018
:101D9C003B68DB683B6229E03B68DB6804333B62F1
:101DAC0024E03B68DB6808333B621FE03B68DB6880
:101DBC000C333B621AE03B689B68002B02D1042376
:101DCC003B6213E03B689B68012B05D108233B6207
:101DDC007B68FA691A6109E008233B627B68FA693F
:101DEC005A6103E000233B6200E000BFBB69FF2B9C
:101DFC0001D87B6801E07B6804337B61BB69FF2BF6
:101E0C0002D87B6A9B0002E07B6A083B9B003B612B
:101E1C007B691A680F213B6901FA03F3DB431A4013
:101E2C00396A3B6901FA03F31A437B691A603B6810
:101E3C005B6803F08053002B00F0B1804D4B9B6925
:101E4C004C4A43F0010393614A4B9B6903F0010335
:101E5C00BB60BB68484A7B6A9B08023352F823304C
:101E6C00FB607B6A03F003039B000F2202FA03F36F
:101E7C00DB43FA681340FB607B68404A934213D003
:101E8C007B683F4A93420DD07B683E4A934207D011
:101E9C007B683D4A934201D1032306E0042304E00E
:101EAC00022302E0012300E000237A6A02F003021D
:101EBC0092009340FA681343FB602F497B6A9B089E
:101ECC000233FA6841F823203B685B6803F4801303
:101EDC00002B06D02D4B9A682C49BB6913438B60A1
:101EEC0006E02A4B9A68BB69DB43284913408B6098
:101EFC003B685B6803F40013002B06D0234BDA68B5
:101F0C002249BB691343CB6006E0204BDA68BB69FE
:101F1C00DB431E491340CB603B685B6803F4003322
:101F2C00002B06D0194B5A681849BB6913434B60F8
:101F3C0006E0164B5A68BB69DB43144913404B60EF
:101F4C003B685B6803F48033002B21D00F4B1A687D
:101F5C000E49BB6913430B6021E000BF0000321037
:101F6C00000031100000221000002110000012109F
:101F7C000000111000100240000001400008014058
:101F8C00000C01400010014000140140000401400D
:101F9C000B4B1A68BB69DB43094913400B607B6A26
:101FAC0001337B623B681A687B6A22FA03F3002BCD
:101FBC007FF48EAE00BF00BF2C37BD4680BC70478F
:101FCC000004014080B483B000AF78600B467B8086
:101FDC0013467B707B78002B03D07A887B681A6160
:101FEC0003E07B881A047B681A6100BF0C37BD467E
:101FFC0080BC704780B586B000AF78607B68002BE2
:10200C0001D1012372E27B681B6803F00103002BF2
:10201C0000F08780924B5B6803F00C03042B0CD010
:10202C008F4B5B6803F00C03082B12D18C4B5B6855
:10203C0003F48033B3F5803F0BD1894B1B6803F459
:10204C000033002B6CD07B685B68002B68D10123BC
:10205C004CE27B685B68B3F5803F06D1804B1B6814
:10206C007F4A43F4803313602EE07B685B68002B5F
:10207C000CD17B4B1B687A4A23F480331360784B6A
:10208C001B68774A23F4802313601DE07B685B6830
:10209C00B3F5A02F0CD1724B1B68714A43F480230B
:1020AC0013606F4B1B686E4A43F4803313600BE074
:1020BC006B4B1B686A4A23F480331360684B1B68B4
:1020CC00674A23F4802313607B685B68002B13D072
:1020DC00FEF7DCFF386108E0FEF7D8FF02463B69EB
:1020EC00D31A642B01D9032300E25D4B1B6803F464
:1020FC000033002BF0D014E0FEF7C8FF386108E085
:10210C00FEF7C4FF02463B69D31A642B01D90323A3
:10211C00ECE1534B1B6803F40033002BF0D100E0CF
:10212C0000BF7B681B6803F00203002B63D04C4B91
:10213C005B6803F00C03002B0BD0494B5B6803F07E
:10214C000C03082B1CD1464B5B6803F48033002B2B
:10215C0016D1434B1B6803F00203002B05D07B68A0
:10216C001B69012B01D00123C0E13D4B1B6823F0FF
:10217C00F8027B685B69DB00394913430B603AE07A
:10218C007B681B69002B20D0364B01221A60FEF7AE
:10219C007DFF386108E0FEF779FF02463B69D31AF0
:1021AC00022B01D90323A1E12D4B1B6803F0020381
:1021BC00002BF0D02A4B1B6823F0F8027B685B697C
:1021CC00DB00274913430B6015E0264B00221A60F5
:1021DC00FEF75CFF386108E0FEF758FF02463B69EA
:1021EC00D31A022B01D9032380E11D4B1B6803F08A
:1021FC000203002BF0D17B681B6803F00803002B53
:10220C003AD07B689B69002B19D0174B01221A60BE
:10221C00FEF73CFF386108E0FEF738FF02463B69E9
:10222C00D31A022B01D9032360E10D4B5B6A03F037
:10223C000203002BF0D0012000F0BAFA1CE00A4B8C
:10224C0000221A60FEF722FF38610FE0FEF71EFF36
:10225C0002463B69D31A022B08D9032346E100BF7F
:10226C00001002400000424280044242924B5B6AE2
:10227C0003F00203002BE9D17B681B6803F0040315
:10228C00002B00F0A6800023FB758B4BDB6903F061
:10229C008053002B0DD1884BDB69874A43F0805368
:1022AC00D361854BDB6903F08053BB60BB680123B2
:1022BC00FB75824B1B6803F48073002B18D17F4B8A
:1022CC001B687E4A43F480731360FEF7DFFE3861AF
:1022DC0008E0FEF7DBFE02463B69D31A642B01D9FA
:1022EC00032303E1754B1B6803F48073002BF0D0C0
:1022FC007B68DB68012B06D16F4B1B6A6E4A43F07F
:10230C00010313622DE07B68DB68002B0CD16A4B58
:10231C001B6A694A23F001031362674B1B6A664A06
:10232C0023F0040313621CE07B68DB68052B0CD1E3
:10233C00614B1B6A604A43F0040313625E4B1B6AD9
:10234C005D4A43F0010313620BE05B4B1B6A5A4A74
:10235C0023F001031362584B1B6A574A23F0040302
:10236C0013627B68DB68002B15D0FEF78FFE38619B
:10237C000AE0FEF78BFE02463B69D31A41F2883223
:10238C00934201D90323B1E04B4B1B6A03F00203C8
:10239C00002BEED014E0FEF779FE38610AE0FEF770
:1023AC0075FE02463B69D31A41F28832934201D939
:1023BC0003239BE0404B1B6A03F00203002BEED17E
:1023CC00FB7D012B05D13C4BDB693B4A23F0805351
:1023DC00D3617B68DB69002B00F08780364B5B6830
:1023EC0003F00C03082B61D07B68DB69022B46D110
:1023FC00334B00221A60FEF749FE386108E0FEF705
:10240C0045FE02463B69D31A022B01D903236DE02A
:10241C00294B1B6803F00073002BF0D17B681B6AFF
:10242C00B3F5803F08D1244B5B6823F400327B6802
:10243C009B68214913434B601F4B5B6823F4741258
:10244C007B68196A7B685B6A0B431B4913434B60BF
:10245C001B4B01221A60FEF719FE386108E0FEF7EB
:10246C0015FE02463B69D31A022B01D903233DE02A
:10247C00114B1B6803F00073002BF0D035E0104BB0
:10248C0000221A60FEF702FE386108E0FEF7FEFD3E
:10249C0002463B69D31A022B01D9032326E0064BD3
:1024AC001B6803F00073002BF0D11EE07B68DB6926
:1024BC00012B07D1012319E00010024000700040ED
:1024CC00600042420B4B5B68FB60FB6803F480329C
:1024DC007B681B6A9A4206D1FB6803F470127B6816
:1024EC005B6A9A4201D0012300E00023184618379A
:1024FC00BD4680BD0010024080B584B000AF78604E
:10250C0039607B68002B01D10123D0E06A4B1B683A
:10251C0003F007033A689A4210D9674B1B6823F003
:10252C00070265493B6813430B60634B1B6803F060
:10253C0007033A689A4201D00123B8E07B681B6814
:10254C0003F00203002B20D07B681B6803F004030C
:10255C00002B05D0594B5B68584A43F4E063536039
:10256C007B681B6803F00803002B05D0534B5B689A
:10257C00524A43F460535360504B5B6823F0F002B3
:10258C007B689B684D4913434B607B681B6803F069
:10259C000103002B40D07B685B68012B07D1474BB4
:1025AC001B6803F40033002B15D101237FE07B68FB
:1025BC005B68022B07D1414B1B6803F00073002BA7
:1025CC0009D1012373E03D4B1B6803F00203002B80
:1025DC0001D101236BE0394B5B6823F003027B686C
:1025EC005B68364913434B60FEF750FDF8600AE018
:1025FC00FEF74CFD0246FB68D31A41F28832934237
:10260C0001D9032353E02D4B5B6803F00C027B686C
:10261C005B689B009A42EBD1274B1B6803F00703C6
:10262C003A689A4210D2244B1B6823F007022249C5
:10263C003B6813430B60204B1B6803F007033A689D
:10264C009A4201D0012332E07B681B6803F004033B
:10265C00002B08D0194B5B6823F4E0627B68DB68C5
:10266C00164913434B607B681B6803F00803002B6F
:10267C0009D0124B5B6823F460527B681B69DB004A
:10268C000E4913434B6000F021F802460B4B5B687C
:10269C001B0903F00F030A49CB5C22FA03F3094A26
:1026AC001360094B1B681846FEF7AEFC0023184656
:1026BC001037BD4680BD00BF002002400010024014
:1026CC00882B0008000000200400002080B487B094
:1026DC0000AF0023FB600023BB6000237B61002361
:1026EC007B6000233B611E4B5B68FB60FB6803F067
:1026FC000C03042B02D0082B03D027E0194B3B61B1
:10270C0027E0FB689B0C03F00F03174AD35C7B603C
:10271C00FB6803F48033002B10D0114B5B685B0C0F
:10272C0003F00103114AD35CBB607B680D4A03FBC9
:10273C0002F2BB68B2FBF3F37B6104E07B680C4AEA
:10274C0002FB03F37B617B693B6102E0054B3B6160
:10275C0000BF3B6918461C37BD4680BC704700BFA4
:10276C000010024000127A00A02B0008B02B0008C9
:10277C0000093D0080B400AF024B1B681846BD46F3
:10278C0080BC70470000002080B500AFFFF7F2FF5F
:10279C000246054B5B68DB0A03F007030349CB5C7D
:1027AC0022FA03F3184680BD00100240982B000853
:1027BC0080B485B000AF78600A4B1B680A4AA2FB54
:1027CC0003235B0A7A6802FB03F3FB6000BFFB6820
:1027DC005A1EFA60002BF9D100BF00BF1437BD465A
:1027EC0080BC704700000020D34D621080B586B0CD
:1027FC0000AF786000233B610023FB607B681B68A3
:10280C0003F00103002B7DD00023FB754F4BDB69DC
:10281C0003F08053002B0DD14C4BDB694B4A43F03A
:10282C008053D361494BDB6903F08053BB60BB68B9
:10283C000123FB75464B1B6803F48073002B18D1E6
:10284C00434B1B68424A43F480731360FEF71EFC33
:10285C00386108E0FEF71AFC02463B69D31A642B78
:10286C0001D903236DE03A4B1B6803F48073002BF2
:10287C00F0D0364B1B6A03F44073FB60FB68002BF3
:10288C002ED07B685B6803F44073FA689A4227D0B9
:10289C002E4B1B6A23F44073FB602E4B01221A60F3
:1028AC002C4B00221A60294AFB681362FB6803F068
:1028BC000103002B14D0FEF7E9FB38610AE0FEF7A8
:1028CC00E5FB02463B69D31A41F28832934201D9A7
:1028DC00032336E01D4B1B6A03F00203002BEED0E2
:1028EC001A4B1B6A23F440727B685B6817491343CD
:1028FC000B62FB7D012B05D1144BDB69134A23F0D2
:10290C008053D3617B681B6803F00203002B08D053
:10291C000E4B5B6823F440427B689B680B49134366
:10292C004B607B681B6803F01003002B08D0074B2F
:10293C005B6823F480027B68DB68044913434B60BB
:10294C00002318461837BD4680BD00BF001002405A
:10295C00007000404004424280B588B000AF7860FF
:10296C0000237B610023FB6100233B610023FB60A0
:10297C000023BB617B68102B0AD07B68102B00F204
:10298C008A807B68012B45D07B68022B75D082E056
:10299C00464B5B68FB60454B1B6803F08073002B58
:1029AC007BD0FB689B0C03F00F03414AD35C3B616B
:1029BC00FB6803F48033002B15D03C4B5B685B0C3D
:1029CC0003F001033B4AD35C7B61FB6803F4803367
:1029DC00002B0DD0384A7B69B2FBF3F23B6902FB4A
:1029EC0003F3FB6104E03B69344A02FB03F3FB6134
:1029FC002E4B5B6803F48003B3F5800F02D1FB69A7
:102A0C00BB614AE0FB695B002D4AA2FB03235B0818
:102A1C00BB6142E0254B1B6AFB60FB6803F440730F
:102A2C00B3F5807F08D1FB6803F00203002B03D0C1
:102A3C004FF40043BB611FE0FB6803F44073B3F534
:102A4C00007F09D1194B5B6A03F00203002B03D002
:102A5C0049F64043BB610FE0FB6803F44073B3F5E8
:102A6C00407F1CD1114B1B6803F40033002B16D094
:102A7C004FF22443BB6112E011E0FFF785FE0246E2
:102A8C000A4B5B689B0B03F0030301335B00B2FB47
:102A9C00F3F3BB6104E000BF02E000BF00E000BF45
:102AAC00BB6918462037BD4680BD00BF00100240F0
:102ABC00B42B0008C42B000800127A0000093D005A
:102ACC00ABAAAAAA03460244934200D1704703F86A
:102ADC00011BF9E770B500260C4D0D4C641BA410BE
:102AEC00A64209D100F01AF800260A4D0A4C641BC4
:102AFC00A410A64205D170BD55F8043B9847013689
:102B0C00EEE755F8043B98470136F2E7C82B00086E
:102B1C00C82B0008C82B0008CC2B0008F8B500BF48
:102B2C00F8BC08BC9E467047F8B500BFF8BC08BCA2
:042B3C009E467047FA
:102B400050524F46204D6F7A6172740041444320C9
:102B50003D20000000000000000C014000100000BB
:102B6000000C014000200000000C0140004000006B
:102B7000000C014000800000000C01400008000033
:102B8000000C0140000400000000000000000000F4
:102B90000102030406070809000000000102030403
:102BA00002030405060708090A0B0C0D0E0F10108E
:102BB0000102000002030405060708090A0B0C0DB8
:082BC0000E0F101001020000CD
:042BC80031010008CF
:042BCC000D010008EF
:0C2BD00000127A0010000000010000005C
:0400000508000F9D43
:00000001FF
