:020000040800F2
:1000000000500020ED0C0008510C0008590C0008AD
:10001000610C0008690C0008710C00080000000069
:10002000000000000000000000000000790C000843
:10003000850C000800000000910C00089D0C0008D1
:10004000350D0008350D0008350D0008350D000888
:10005000350D0008350D0008350D0008350D000878
:10006000350D0008350D0008350D0008A90C0008F5
:10007000350D0008350D0008350D0008350D000858
:10008000350D0008350D0008350D0008350D000848
:10009000350D0008350D0008350D0008350D000838
:1000A000350D0008350D0008350D0008350D000828
:1000B000350D0008BD0C0008350D0008350D000891
:1000C000350D0008350D0008350D0008350D000808
:1000D000350D0008350D0008350D0008350D0008F8
:1000E000D10C0008350D0008350D00080000000097
:1000F0000000000000000000000000000000000000
:0C01000000000000000000005FF808F1A3
:10010C0010B5054C237833B9044B13B10448AFF345
:10011C0000800123237010BD0C00002000000000A3
:10012C004437000808B5034B1BB103490348AFF330
:10013C00008008BD000000001000002044370008BB
:10014C0080F0004002E000BF81F0004142001FBF80
:10015C005FEA410392EA030F7FEA226C7FEA236C89
:10016C006AD04FEA1262D2EB1363C1BFD21841407E
:10017C0048404140B8BF5B42192B88BF704710F014
:10018C00004F40F4000020F07F4018BF404211F0B7
:10019C00004F41F4000121F07F4118BF494292EA1F
:1001AC00030F3FD0A2F1010241FA03FC10EB0C004B
:1001BC00C3F1200301FA03F100F0004302D54942D8
:1001CC0060EB4000B0F5000F13D3B0F1807F06D385
:1001DC0040084FEA310102F10102FE2A51D2B1F17D
:1001EC00004F40EBC25008BF20F0010040EA030072
:1001FC007047490040EB0000013A28BFB0F5000FF2
:10020C00EDD2B0FA80FCACF1080CB2EB0C0200FAA7
:10021C000CF0AABF00EBC25052421843BCBFD040F6
:10022C001843704792F0000F81F4000106BF80F470
:10023C0000000132013BB5E74FEA41037FEA226C33
:10024C0018BF7FEA236C21D092EA030F04D092F0FE
:10025C00000F08BF0846704790EA010F1CBF002032
:10026C00704712F07F4F04D1400028BF40F000408F
:10027C00704712F100723CBF00F50000704700F0AF
:10028C00004343F0FE4040F4000070477FEA2262D6
:10029C0016BF08467FEA23630146420206BF5FEAA7
:1002AC00412390EA010F40F4800070474FF00003A7
:1002BC0004E000BF10F0004348BF40425FEA000C6E
:1002CC0008BF704743F0964301464FF000001CE016
:1002DC0050EA010208BF70474FF000030AE000BF6C
:1002EC0050EA010208BF704711F0004302D54042AA
:1002FC0061EB41015FEA010C02BF8446014600201C
:10030C0043F0B64308BFA3F18053A3F50003BCFA36
:10031C008CF2083AA3EBC25310DB01FA02FC6344E3
:10032C0000FA02FCC2F12002BCF1004F20FA02F2EA
:10033C0043EB020008BF20F00100704702F12002DD
:10034C0001FA02FCC2F1200250EA4C0021FA02F23E
:10035C0043EB020008BF20EADC70704780B582B026
:10036C0000AF78607B681B68074A934208D1002273
:10037C004FF40051054801F035FE054802F080FCB1
:10038C0000BF0837BD4680BD002C01400010014065
:10039C00E400002080B582B000AF0346FB80474BE1
:1003AC001B685B6A464A1360444B1B681A6A41F22D
:1003BC0011131340002B0FD1404B1B681A6A40F2EB
:1003CC0044431340002B07D13C4B1B681A683B4B32
:1003DC001B6822F001021A60384B1B6800225A621B
:1003EC00364B1B681A68354B1B6842F001021A60C9
:1003FC00344B1B685A00324B1B689A4207D2324B63
:10040C0001221A702E4B1B682E4A13604EE02C4BA7
:10041C001B682E4AB2FBF3F31846FFF747FF03465F
:10042C002B4A1360284B1B780133DAB2264B1A7017
:10043C00234B1B68234A1360234B1B78052B35D1A8
:10044C00244B04221A80244802F0C8FB224B1B6860
:10045C001A6A41F211131340002B0FD11E4B1B686B
:10046C001A6A40F244431340002B07D11A4B1B6805
:10047C001A68194B1B6822F001021A60154B1B8875
:10048C005A1E154B1B68DA62124B1B88013B1A462D
:10049C00114BDA60104B1B6800225A620E4B1B6822
:1004AC001A680D4B1B6842F001021A600B4B4FF49B
:1004BC0080525A6100BF0837BD4680BD9C000020A9
:1004CC008C010020900100208A01002040420F0086
:1004DC009401002088010020E40000200004014069
:1004EC0080B500AF00F022FC00F032F800F016FAF4
:1004FC0000F0F6F900F088F800F0C8F900F0FCF80C
:10050C0000F05EF90E4801F03FF805220D490C4849
:10051C0000F046FD0C4B1B681A680B4B1B6842F035
:10052C0001021A60094B1B681A68084B1B6842F0E1
:10053C0001021A60054802F051FB00BFFDE700BF45
:10054C0028000020740100209C000020E400002002
:10055C0080B594B000AF07F128032822002118467B
:10056C0003F0BEF807F1140300221A605A609A6077
:10057C00DA601A613B1D00221A605A609A60DA60D8
:10058C000123BB624FF48033FB6200233B630123E6
:10059C00BB6302237B644FF48033BB644FF4E013E2
:1005AC00FB6407F12803184601F04CFD0346002BB1
:1005BC0001D000F023FA0F237B610223BB610023DF
:1005CC00FB614FF480633B624FF4A0637B6207F1E5
:1005DC0014030221184601F0B7FF0346002B01D08B
:1005EC0000F00CFA02237B600023FB603B1D1846D5
:1005FC0002F038F90346002B01D000F0FFF900BFE0
:10060C005037BD4680BD000080B584B000AF3B1DA7
:10061C0000221A605A609A60354B364A1A60344B85
:10062C004FF480729A60324B01221A73304B0022C5
:10063C001A752F4B4FF46022DA612D4B00225A6051
:10064C002B4B05221A612A4800F0D2FB0346002BE3
:10065C0001D000F0D3F900237B600123BB6005239C
:10066C00FB603B1D1946224800F094FD0346002B0D
:10067C0001D000F0C3F901237B600223BB603B1D5A
:10068C0019461B4800F086FD0346002B01D000F0F4
:10069C00B5F902237B600323BB603B1D194614484C
:1006AC0000F078FD0346002B01D000F0A7F90323DE
:1006BC007B600423BB603B1D19460D4800F06AFDAE
:1006CC000346002B01D000F099F904237B6005232D
:1006DC00BB603B1D1946064800F05CFD0346002B31
:1006EC0001D000F08BF900BF1037BD4680BD00BFB4
:1006FC00280000200024014080B58CB000AF07F129
:10070C00200300221A605A609A60DA6007F10C0329
:10071C0000221A605A609A60DA601A613B1D00224E
:10072C001A605A60254B4FF080421A60234B4722C7
:10073C005A60224B00229A60204B4FF6FF72DA600F
:10074C001E4B00221A611D4B00229A611B4802F0BD
:10075C00F5F90346002B01D000F050F94FF480530B
:10076C003B6207F120031946144802F0A7FB03462D
:10077C00002B01D000F042F90023FB6000233B6109
:10078C0007F10C0319460D4802F05FFC0346002BE1
:10079C0001D000F033F900237B600023BB603B1DCC
:1007AC001946064802F04EFE0346002B01D000F01D
:1007BC0025F900BF3037BD4680BD00BF9C0000202E
:1007CC0080B58CB000AF07F1200300221A605A608C
:1007DC009A60DA6007F10C0300221A605A609A6082
:1007EC00DA601A613B1D00221A605A60254B264ABA
:1007FC001A60244B40F2CF225A60224B00229A609E
:10080C00204B4FF6FF72DA601E4B00221A611D4B13
:10081C0000229A611B4802F091F90346002B01D08B
:10082C0000F0ECF84FF480533B6207F120031946BB
:10083C00144802F043FB0346002B01D000F0DEF815
:10084C000023FB6000233B6107F10C0319460D48A4
:10085C0002F0FBFB0346002B01D000F0CFF8002385
:10086C007B600023BB603B1D1946064802F0EAFD85
:10087C000346002B01D000F0C1F800BF3037BD4655
:10088C0080BD00BFE40000200004004080B500AF34
:10089C00114B124A1A60104B4FF4E1325A600E4B56
:1008AC0000229A600C4B0022DA600B4B00221A617A
:1008BC00094B0C225A61084B00229A61064B00220C
:1008CC00DA61054802F02EFE0346002B01D000F041
:1008DC0095F800BF80BD00BF2C01002000380140FE
:1008EC0080B582B000AF0C4B5B690B4A43F001033F
:1008FC005361094B5B6903F001037B607B68002249
:10090C0000210B2000F0C5FF0B2000F0DEFF00BF24
:10091C000837BD4680BD00BF0010024080B588B0CE
:10092C0000AF07F1100300221A605A609A60DA6077
:10093C002E4B9B692D4A43F0100393612B4B9B6903
:10094C0003F01003FB60FB68284B9B69274A43F0BC
:10095C0020039361254B9B6903F02003BB60BB68AC
:10096C00224B9B69214A43F0040393611F4B9B6903
:10097C0003F004037B607B681C4B9B691B4A43F0B0
:10098C0008039361194B9B6903F008033B603B68B8
:10099C0000224FF40051164801F024FB4FF4005391
:1009AC003B6101237B610023BB610223FB6107F1E7
:1009BC00100319460E4801F091F94FF480533B6136
:1009CC000C4B7B610023BB6107F1100319460A48ED
:1009DC0001F084F900220021282000F05AFF282081
:1009EC0000F073FF00BF2037BD4680BD00100240F1
:1009FC000010014000001110000C014080B400AF49
:100A0C0072B600BF00BFFDE780B485B000AF154BD8
:100A1C009B69144A43F001039361124B9B6903F0E9
:100A2C000103BB60BB680F4BDB690E4A43F080537C
:100A3C00D3610C4BDB6903F080537B607B680A4B02
:100A4C005B68FB60FB6823F0E063FB60FB6843F0D2
:100A5C008063FB60044AFB68536000BF1437BD46DB
:100A6C0080BC7047001002400000014080B588B087
:100A7C0000AF786007F1100300221A605A609A6088
:100A8C00DA607B681B68284A934249D1274B9B69E3
:100A9C00264A43F400739361244B9B6903F400735F
:100AAC00FB60FB68214B9B69204A43F00403936174
:100ABC001E4B9B6903F00403BB60BB681F233B61A7
:100ACC0003237B6107F110031946194801F006F95D
:100ADC00184B194A1A60174B00225A60154B00220A
:100AEC009A60144B8022DA60124B4FF400721A6138
:100AFC00104B4FF400625A610E4B20229A610D4B41
:100B0C000022DA610B4800F0FBFE0346002B01D0FB
:100B1C00FFF774FF7B68074A1A62064A7B685362C8
:100B2C0000BF2037BD4680BD0024014000100240AC
:100B3C0000080140580000200800024080B584B035
:100B4C0000AF78607B681B68B3F1804F0CD1154BFC
:100B5C00DB69144A43F00103D361124BDB6903F0E8
:100B6C000103FB60FB6818E07B681B680E4A93422C
:100B7C0013D10C4BDB690B4A43F00203D361094BD5
:100B8C00DB6903F00203BB60BB68002200211D205F
:100B9C0000F07FFE1D2000F098FE00BF1037BD4610
:100BAC0080BD00BF001002400004004080B588B03A
:100BBC0000AF786007F1100300221A605A609A6047
:100BCC00DA607B681B681C4A934231D11B4B9B69D2
:100BDC001A4A43F480439361184B9B6903F4804396
:100BEC00FB60FB68154B9B69144A43F0040393614B
:100BFC00124B9B6903F00403BB60BB684FF400739A
:100C0C003B6102237B610323FB6107F1100319464F
:100C1C000B4801F063F84FF480633B6100237B6168
:100C2C000023BB6107F110031946054801F056F883
:100C3C0000BF2037BD4680BD003801400010024087
:100C4C000008014080B400AF00BFFDE780B400AFE6
:100C5C0000BFFDE780B400AF00BFFDE780B400AF7C
:100C6C0000BFFDE780B400AF00BFFDE780B400AF6C
:100C7C0000BFBD4680BC704780B400AF00BFBD460E
:100C8C0080BC704780B400AF00BFBD4680BC7047CD
:100C9C0080B500AF00F090F800BF80BD80B500AF0C
:100CAC00024800F0E7FE00BF80BD00BF58000020E6
:100CBC0080B500AF024802F011F800BF80BD00BF44
:100CCC00E400002080B500AF4FF4805001F0A2F991
:100CDC0000BF80BD80B400AF00BFBD4680BC704774
:100CEC00FFF7F8FF0B480C490C4A002302E0D458DC
:100CFC00C4500433C4188C42F9D3094A094C00235C
:100D0C0001E013600432A242FBD302F0F1FCFFF7C6
:100D1C00E7FB7047000000200C000020A4370008FF
:100D2C000C0000209C010020FEE7000080B500AF05
:100D3C00084B1B68074A43F010031360032000F0B4
:100D4C009DFD0F2000F008F8FFF75EFE002318460B
:100D5C0080BD00BF0020024080B582B000AF78603B
:100D6C00124B1A68124B1B7819464FF47A73B3FB6B
:100D7C00F1F3B2FBF3F3184600F0B5FD0346002B7C
:100D8C0001D001230EE07B680F2B0AD80022796872
:100D9C004FF0FF3000F07DFD064A7B6813600023A6
:100DAC0000E0012318460837BD4680BD0000002036
:100DBC00080000200400002080B400AF054B1B7815
:100DCC001A46054B1B681344034A136000BFBD460B
:100DDC0080BC7047080000209801002080B400AF50
:100DEC00024B1B681846BD4680BC7047980100201A
:100DFC0080B586B000AF78600023FB7500233B61A3
:100E0C000023BB600023FB607B68002B01D1012316
:100E1C00BEE07B689B68002B7B689B6A002B09D12A
:100E2C007B680022DA627B68002283F824207868D1
:100E3C00FFF71CFE786800F0FFFA0346FB757B6831
:100E4C009B6A03F01003002B40F09980FB7D002B74
:100E5C0040F095807B689B6A23F4885323F002034F
:100E6C0043F002027B689A627B685A687B68DB6994
:100E7C001A437B681B7B5B001343BA681343BB604C
:100E8C007B689B68B3F5807F03D07B689B68012BE4
:100E9C0002D14FF4807300E000233A6913433B61A5
:100EAC007B681B7D012B19D17B681B7B002B09D127
:100EBC007B689B69013B5A033B69134343F4006312
:100ECC003B610BE07B689B6A43F020027B689A6273
:100EDC007B68DB6A43F001027B68DA627B681B6823
:100EEC005B6823F469417B681B683A690A435A6062
:100EFC007B681B689A68284B13407A681268B9683B
:100F0C000B4393607B689B68B3F5807F03D07B6851
:100F1C009B68012B04D17B681B69013B1B05FB60A3
:100F2C007B681B68DB6A23F470017B681B68FA68BA
:100F3C000A43DA627B681B689A68184B1340BA68DC
:100F4C009A420BD17B680022DA627B689B6A23F0A1
:100F5C00030343F001027B689A6218E07B689B6A8A
:100F6C0023F0120343F010027B689A627B68DB6A01
:100F7C0043F001027B68DA620123FB7507E07B68B2
:100F8C009B6A43F010027B689A620123FB75FB7D20
:100F9C0018461837BD4680BDFDF7E1FFFE0E1FFF5A
:100FAC0080B586B000AFF860B9607A600023FB753D
:100FBC00FB681B68644A934204D0FB681B68634A55
:100FCC00934206D1604B5B6803F47023002B40F016
:100FDC00B380FB6893F82430012B01D10223AEE0DF
:100FEC00FB68012283F82420F86800F0CBF9034653
:100FFC00FB75FB7D002B40F09A80FB689B6A23F409
:10100C00706323F0010343F48072FB689A62FB68FF
:10101C001B684E4A934205D14B4B5B6803F470231B
:10102C00002B15D1FB689B6A23F48012FB689A6233
:10103C00FB681B685B6803F48063002B26D0FB689D
:10104C009B6A23F4405343F48052FB689A621DE080
:10105C00FB689B6A43F48012FB689A62FB681B680E
:10106C00394A934204D0FB681B68384A93420DD12D
:10107C00354B5B6803F48063002B07D0FB689B6ADD
:10108C0023F4405343F48052FB689A62FB689B6ADA
:10109C0003F48053002B06D0FB68DB6A23F00602B6
:1010AC00FB68DA6202E0FB680022DA62FB6800226D
:1010BC0083F82420FB681B6A254A9A62FB681B6A2A
:1010CC00244ADA62FB681B6A234A1A63FB681B68B2
:1010DC006FF002021A60FB681B689A68FB681B6859
:1010EC0042F480729A60FB68186AFB681B684C3388
:1010FC001946BA687B6800F05DFCFB681B689B684E
:10110C0003F46023B3F5602F08D1FB681B689A6861
:10111C00FB681B6842F4A0029A600FE0FB681B6836
:10112C009A68FB681B6842F480129A6006E0FB68C0
:10113C00002283F8242001E00123FB75FB7D184677
:10114C001837BD4680BD00BF002401400028014077
:10115C00C7140008431500085F15000880B483B05D
:10116C0000AF786000BF0C37BD4680BC704780B4C0
:10117C0083B000AF786000BF0C37BD4680BC7047B1
:10118C0080B483B000AF786000BF0C37BD4680BC24
:10119C007047000080B485B000AF786039600023E0
:1011AC00FB730023BB607B6893F82430012B01D1C7
:1011BC000223DCE07B68012283F824203B685B6817
:1011CC00062B1CD87B681B68596B3B685A68134606
:1011DC009B001344053B1F2202FA03F3DB43194027
:1011EC003B6818683B685A6813469B001344053BE0
:1011FC0000FA03F27B681B680A435A633CE03B68C5
:10120C005B680C2B1CD87B681B68196B3B685A6895
:10121C0013469B001344233B1F2202FA03F3DB43C8
:10122C0019403B6818683B685A6813469B00134486
:10123C00233B00FA03F27B681B680A431A631BE02A
:10124C007B681B68D96A3B685A6813469B00134439
:10125C00413B1F2202FA03F3DB4319403B68186839
:10126C003B685A6813469B001344413B00FA03F257
:10127C007B681B680A43DA623B681B68092B1CD924
:10128C007B681B68D9683B681A6813465B0013447B
:10129C001E3B072202FA03F3DB4319403B689868B4
:1012AC003B681A6813465B0013441E3B00FA03F2BA
:1012BC007B681B680A43DA6019E07B681B68196954
:1012CC003B681A6813465B001344072202FA03F3C7
:1012DC00DB4319403B6898683B681A6813465B000F
:1012EC00134400FA03F27B681B680A431A613B68DB
:1012FC001B68102B03D03B681B68112B32D17B6809
:10130C001B681D4A934225D17B681B689B6803F4BC
:10131C000003002B26D17B681B689A687B681B68CE
:10132C0042F400029A603B681B68102B1AD1134BD5
:10133C001B68134AA2FB03239A0C13469B0013440D
:10134C005B00BB6002E0BB68013BBB60BB68002B71
:10135C00F9D107E07B689B6A43F020027B689A62B4
:10136C000123FB737B68002283F82420FB7B184647
:10137C001437BD4680BC704700240140000000209B
:10138C0083DE1B4380B584B000AF78600023FB6024
:10139C000023BB607B681B689B6803F00103012B77
:1013AC0040D07B681B689A687B681B6842F001021E
:1013BC009A601F4B1B681F4AA2FB03239B0CBB604C
:1013CC0002E0BB68013BBB60BB68002BF9D1FFF7A7
:1013DC0005FDF8601FE0FFF701FD0246FB68D31A1C
:1013EC00022B18D97B681B689B6803F00103012B47
:1013FC0011D07B689B6A43F010027B689A627B6811
:10140C00DB6A43F001027B68DA627B68002283F8B6
:10141C002420012307E07B681B689B6803F0010311
:10142C00012BD8D1002318461037BD4680BD00BF14
:10143C000000002083DE1B4380B584B000AF7860D1
:10144C000023FB607B681B689B6803F00103012B86
:10145C002ED17B681B689A687B681B6822F001029E
:10146C009A60FFF7BBFCF8601BE0FFF7B7FC024685
:10147C00FB68D31A022B14D97B681B689B6803F09A
:10148C000103012B0DD17B689B6A43F010027B6832
:10149C009A627B68DB6A43F001027B68DA620123A3
:1014AC0007E07B681B689B6803F00103012BDCD011
:1014BC00002318461037BD4680BD80B584B000AF00
:1014CC0078607B685B6AFB60FB689B6A03F0500387
:1014DC00002B27D1FB689B6A43F40072FB689A626D
:1014EC00FB681B689B6803F46023B3F5602F15D170
:1014FC00FB681B7B002B11D1FB689B6A23F4807269
:10150C00FB689A62FB689B6A03F48053002B05D13D
:10151C00FB689B6A43F00102FB689A62F868FFF76C
:10152C001DFE04E0FB681B6A1B6B7868984700BFC4
:10153C001037BD4680BD80B584B000AF78607B6845
:10154C005B6AFB60F868FFF712FE00BF1037BD4600
:10155C0080BD80B584B000AF78607B685B6AFB604F
:10156C00FB689B6A43F04002FB689A62FB68DB6A8B
:10157C0043F00402FB68DA62F868FFF701FE00BF73
:10158C001037BD4680BD000090B587B000AF7860C5
:10159C000023FB750023FB607B6893F82430012B40
:1015AC0001D1022397E07B68012283F8242078681C
:1015BC00FFF742FF0346FB757868FFF7E3FE03462F
:1015CC00FB75FB7D002B40F081807B689B6A23F4CC
:1015DC00885323F0020343F002027B689A62404B6B
:1015EC001C68022001F0F4F90346B4FBF3F35B0032
:1015FC00FB6002E0FB68013BFB60FB68002BF9D150
:10160C007B681B689A687B681B6842F008029A60CA
:10161C00FFF7E4FB38611BE0FFF7E0FB02463B6998
:10162C00D31A0A2B14D97B681B689B6803F0080338
:10163C00002B0DD07B689B6A23F0120343F0100241
:10164C007B689A627B68002283F82420012342E0A5
:10165C007B681B689B6803F00803002BDCD17B685C
:10166C001B689A687B681B6842F004029A60FFF75B
:10167C00B5FB38611BE0FFF7B1FB02463B69D31A9F
:10168C000A2B14D97B681B689B6803F00403002B9E
:10169C000DD07B689B6A23F0120343F010027B6829
:1016AC009A627B68002283F82420012313E07B6874
:1016BC001B689B6803F00403002BDCD17B689B6ADE
:1016CC0023F0030343F001027B689A627B680022DB
:1016DC0083F82420FB7D18461C37BD4690BD00BF07
:1016EC000000002080B485B000AF78607B6803F008
:1016FC000703FB600C4BDB68BB60BA684FF6FF035B
:10170C001340BB60FB681A02BB68134343F0BF6312
:10171C0043F40033BB60044ABB68D36000BF14378A
:10172C00BD4680BC704700BF00ED00E080B400AF48
:10173C00044BDB681B0A03F007031846BD4680BC4C
:10174C00704700BF00ED00E080B483B000AF0346EB
:10175C00FB7197F90730002B0BDBFB7903F01F02B1
:10176C00064997F907305B09012000FA02F241F8AB
:10177C00232000BF0C37BD4680BC704700E100E061
:10178C0080B483B000AF03463960FB7197F9073022
:10179C00002B0ADB3B68DAB20C4997F907301201CF
:1017AC00D2B20B4483F800230AE03B68DAB2084952
:1017BC00FB7903F00F03043B1201D2B20B441A76EF
:1017CC0000BF0C37BD4680BC704700BF00E100E095
:1017DC0000ED00E080B489B000AFF860B9607A60C9
:1017EC00FB6803F00703FB61FB69C3F10703042BE0
:1017FC0028BF0423BB61FB690433062B02D9FB69A8
:10180C00033B00E000237B614FF0FF32BB6902FA1F
:10181C0003F3DA43BB681A407B699A404FF0FF31FF
:10182C007B6901FA03F3D9437B680B4013431846D9
:10183C002437BD4680BC704780B582B000AF78605D
:10184C007B68013BB3F1807F01D301230FE00A4A8F
:10185C007B68013B53600F214FF0FF30FFF790FF87
:10186C00054B00229A60044B07221A60002318468D
:10187C000837BD4680BD00BF10E000E080B582B0E7
:10188C0000AF78607868FFF72DFF00BF0837BD46C2
:10189C0080BD80B586B000AF0346B9607A60FB733B
:1018AC0000237B61FFF742FF78617A68B968786939
:1018BC00FFF790FF024697F90F3011461846FFF7D5
:1018CC005FFF00BF1837BD4680BD80B582B000AF4A
:1018DC000346FB7197F907301846FFF735FF00BF39
:1018EC000837BD4680BD80B582B000AF786078689F
:1018FC00FFF7A2FF034618460837BD4680BD00001F
:10190C0080B485B000AF78600023FB607B68002B4F
:10191C0001D1012343E07B681B681A46224B134418
:10192C00224AA2FB03231B099A007B681A647B687A
:10193C001F4ADA637B68022283F821207B681B68CC
:10194C001B68FB60FB6823F47F5323F03003FB60C0
:10195C007B685A687B689B681A437B68DB681A4310
:10196C007B681B691A437B685B691A437B689B69BC
:10197C001A437B68DB691343FA681343FB607B688B
:10198C001B68FA681A607B6800229A637B680122E4
:10199C0083F821207B68002283F82020002318463E
:1019AC001437BD4680BC7047F8FFFDBFCDCCCCCC06
:1019BC000000024080B586B000AFF860B9607A6074
:1019CC003B600023FB75FB6893F82030012B01D1A1
:1019DC0002234BE0FB68012283F82020FB6893F87C
:1019EC002130DBB2012B3AD1FB68022283F8212093
:1019FC00FB6800229A63FB681B681A68FB681B680B
:101A0C0022F001021A603B687A68B968F86800F045
:101A1C0037F9FB68DB6A002B08D0FB681B681A6877
:101A2C00FB681B6842F00E021A600FE0FB681B6833
:101A3C001A68FB681B6822F004021A60FB681B68BA
:101A4C001A68FB681B6842F00A021A60FB681B6884
:101A5C001A68FB681B6842F001021A6005E0FB681B
:101A6C00002283F820200223FB75FB7D18461837D3
:101A7C00BD4680BD80B584B000AF78607B68DB6B01
:101A8C001B68FB607B681B681B68BB607B681B6CFE
:101A9C0004229A40FB681340002B4FD0BB6803F024
:101AAC000403002B4AD07B681B681B6803F02003DF
:101ABC00002B07D17B681B681A687B681B6822F0B7
:101ACC0004021A607B681B68664A934229D07B68C3
:101ADC001B68654A934222D07B681B68634A934219
:101AEC001AD07B681B68624A934212D07B681B68D1
:101AFC00604A93420AD07B681B685F4A934202D1CA
:101B0C004FF480030EE04FF080630BE04FF4802322
:101B1C0008E04FF4804305E04FF4806302E040237B
:101B2C0000E00423554A53607B68DB6A002B00F00D
:101B3C0094807B68DB6A786898478EE07B681B6CC6
:101B4C0002229A40FB681340002B56D0BB6803F06E
:101B5C000203002B51D07B681B681B6803F0200329
:101B6C00002B0BD17B681B681A687B681B6822F002
:101B7C000A021A607B68012283F821207B681B68AB
:101B8C00384A934229D07B681B68374A934222D04B
:101B9C007B681B68354A93421AD07B681B68344AB1
:101BAC00934212D07B681B68324A93420AD07B68FE
:101BBC001B68314A934202D14FF400130EE04FF0F0
:101BCC0000730BE04FF4003308E04FF4005305E0D2
:101BDC004FF4007302E0202300E00223274A5360F5
:101BEC007B68002283F820207B689B6A002B34D012
:101BFC007B689B6A786898472FE07B681B6C08228F
:101C0C009A40FB681340002B28D0BB6803F00803F4
:101C1C00002B23D07B681B681A687B681B6822F03A
:101C2C000E021A607B681A6C7B68DB6B012101FA6F
:101C3C0002F25A607B6801229A637B68012283F866
:101C4C0021207B68002283F820207B681B6B002BF3
:101C5C0004D07B681B6B7868984700BF00BF1037B7
:101C6C00BD4680BD080002401C000240300002400E
:101C7C0044000240580002406C0002400000024048
:101C8C0080B485B000AFF860B9607A603B60FB68E7
:101C9C001A6CFB68DB6B012101FA02F25A60FB68DB
:101CAC001B683A685A60FB685B68102B08D1FB68AC
:101CBC001B687A689A60FB681B68BA68DA6007E090
:101CCC00FB681B68BA689A60FB681B687A68DA6004
:101CDC0000BF1437BD4680BC7047000080B48BB089
:101CEC0000AF7860396000237B6200233B6269E1BE
:101CFC0001227B6A02FA03F3FB613B681B68FA69F9
:101D0C001340BB61BA69FB699A4240F058813B6849
:101D1C005B689A4A93425ED0984A934275D8984A27
:101D2C00934258D0964A93426FD8964A934252D0D7
:101D3C00944A934269D8944A93424CD0924A934223
:101D4C0063D8924A934246D0904A93425DD8122B64
:101D5C002AD8122B59D801A252F823F0E31D0008FF
:101D6C00BD1D0008CF1D0008111E0008171E00081D
:101D7C00171E0008171E0008171E0008171E000863
:101D8C00171E0008171E0008171E0008171E000853
:101D9C00171E0008171E0008171E0008171E000843
:101DAC00C51D0008D91D0008794A934213D02CE0B8
:101DBC003B68DB683B6229E03B68DB6804333B62D1
:101DCC0024E03B68DB6808333B621FE03B68DB6860
:101DDC000C333B621AE03B689B68002B02D1042356
:101DEC003B6213E03B689B68012B05D108233B62E7
:101DFC007B68FA691A6109E008233B627B68FA691F
:101E0C005A6103E000233B6200E000BFBB69FF2B7B
:101E1C0001D87B6801E07B6804337B61BB69FF2BD5
:101E2C0002D87B6A9B0002E07B6A083B9B003B610B
:101E3C007B691A680F213B6901FA03F3DB431A40F3
:101E4C00396A3B6901FA03F31A437B691A603B68F0
:101E5C005B6803F08053002B00F0B1804D4B9B6905
:101E6C004C4A43F0010393614A4B9B6903F0010315
:101E7C00BB60BB68484A7B6A9B08023352F823302C
:101E8C00FB607B6A03F003039B000F2202FA03F34F
:101E9C00DB43FA681340FB607B68404A934213D0E3
:101EAC007B683F4A93420DD07B683E4A934207D0F1
:101EBC007B683D4A934201D1032306E0042304E0EE
:101ECC00022302E0012300E000237A6A02F00302FD
:101EDC0092009340FA681343FB602F497B6A9B087E
:101EEC000233FA6841F823203B685B6803F48013E3
:101EFC00002B06D02D4B9A682C49BB6913438B6081
:101F0C0006E02A4B9A68BB69DB43284913408B6077
:101F1C003B685B6803F40013002B06D0234BDA6894
:101F2C002249BB691343CB6006E0204BDA68BB69DE
:101F3C00DB431E491340CB603B685B6803F4003302
:101F4C00002B06D0194B5A681849BB6913434B60D8
:101F5C0006E0164B5A68BB69DB43144913404B60CF
:101F6C003B685B6803F48033002B21D00F4B1A685D
:101F7C000E49BB6913430B6021E000BF0000321017
:101F8C00000031100000221000002110000012107F
:101F9C000000111000100240000001400008014038
:101FAC00000C0140001001400014014000040140ED
:101FBC000B4B1A68BB69DB43094913400B607B6A06
:101FCC0001337B623B681A687B6A22FA03F3002BAD
:101FDC007FF48EAE00BF00BF2C37BD4680BC70476F
:101FEC000004014080B483B000AF78600B467B8066
:101FFC0013467B707B78002B03D07A887B681A6140
:10200C0003E07B881A047B681A6100BF0C37BD465D
:10201C0080BC704780B582B000AF0346FB80084B94
:10202C005A69FB881340002B06D0054AFB88536184
:10203C00FB881846FEF7AEF900BF0837BD4680BDD9
:10204C000004014080B586B000AF78607B68002B3F
:10205C0001D1012372E27B681B6803F00103002BA2
:10206C0000F08780924B5B6803F00C03042B0CD0C0
:10207C008F4B5B6803F00C03082B12D18C4B5B6805
:10208C0003F48033B3F5803F0BD1894B1B6803F409
:10209C000033002B6CD07B685B68002B68D101236C
:1020AC004CE27B685B68B3F5803F06D1804B1B68C4
:1020BC007F4A43F4803313602EE07B685B68002B0F
:1020CC000CD17B4B1B687A4A23F480331360784B1A
:1020DC001B68774A23F4802313601DE07B685B68E0
:1020EC00B3F5A02F0CD1724B1B68714A43F48023BB
:1020FC0013606F4B1B686E4A43F4803313600BE024
:10210C006B4B1B686A4A23F480331360684B1B6863
:10211C00674A23F4802313607B685B68002B13D021
:10212C00FEF75CFE386108E0FEF758FE02463B699C
:10213C00D31A642B01D9032300E25D4B1B6803F413
:10214C000033002BF0D014E0FEF748FE386108E0B5
:10215C00FEF744FE02463B69D31A642B01D90323D4
:10216C00ECE1534B1B6803F40033002BF0D100E07F
:10217C0000BF7B681B6803F00203002B63D04C4B41
:10218C005B6803F00C03002B0BD0494B5B6803F02E
:10219C000C03082B1CD1464B5B6803F48033002BDB
:1021AC0016D1434B1B6803F00203002B05D07B6850
:1021BC001B69012B01D00123C0E13D4B1B6823F0AF
:1021CC00F8027B685B69DB00394913430B603AE02A
:1021DC007B681B69002B20D0364B01221A60FEF75E
:1021EC00FDFD386108E0FEF7F9FD02463B69D31AA4
:1021FC00022B01D90323A1E12D4B1B6803F0020331
:10220C00002BF0D02A4B1B6823F0F8027B685B692B
:10221C00DB00274913430B6015E0264B00221A60A4
:10222C00FEF7DCFD386108E0FEF7D8FD02463B699D
:10223C00D31A022B01D9032380E11D4B1B6803F039
:10224C000203002BF0D17B681B6803F00803002B02
:10225C003AD07B689B69002B19D0174B01221A606E
:10226C00FEF7BCFD386108E0FEF7B8FD02463B699D
:10227C00D31A022B01D9032360E10D4B5B6A03F0E7
:10228C000203002BF0D0012000F0CEFA1CE00A4B28
:10229C0000221A60FEF7A2FD38610FE0FEF79EFDEA
:1022AC0002463B69D31A022B08D9032346E100BF2F
:1022BC00001002400000424280044242924B5B6A92
:1022CC0003F00203002BE9D17B681B6803F00403C5
:1022DC00002B00F0A6800023FB758B4BDB6903F011
:1022EC008053002B0DD1884BDB69874A43F0805318
:1022FC00D361854BDB6903F08053BB60BB68012362
:10230C00FB75824B1B6803F48073002B18D17F4B39
:10231C001B687E4A43F480731360FEF75FFD3861DF
:10232C0008E0FEF75BFD02463B69D31A642B01D92A
:10233C00032303E1754B1B6803F48073002BF0D06F
:10234C007B68DB68012B06D16F4B1B6A6E4A43F02E
:10235C00010313622DE07B68DB68002B0CD16A4B08
:10236C001B6A694A23F001031362674B1B6A664AB6
:10237C0023F0040313621CE07B68DB68052B0CD193
:10238C00614B1B6A604A43F0040313625E4B1B6A89
:10239C005D4A43F0010313620BE05B4B1B6A5A4A24
:1023AC0023F001031362584B1B6A574A23F00403B2
:1023BC0013627B68DB68002B15D0FEF70FFD3861CC
:1023CC000AE0FEF70BFD02463B69D31A41F2883254
:1023DC00934201D90323B1E04B4B1B6A03F0020378
:1023EC00002BEED014E0FEF7F9FC38610AE0FEF7A2
:1023FC00F5FC02463B69D31A41F28832934201D96B
:10240C0003239BE0404B1B6A03F00203002BEED12D
:10241C00FB7D012B05D13C4BDB693B4A23F0805300
:10242C00D3617B68DB69002B00F08780364B5B68DF
:10243C0003F00C03082B61D07B68DB69022B46D1BF
:10244C00334B00221A60FEF7C9FC386108E0FEF736
:10245C00C5FC02463B69D31A022B01D903236DE05C
:10246C00294B1B6803F00073002BF0D17B681B6AAF
:10247C00B3F5803F08D1244B5B6823F400327B68B2
:10248C009B68214913434B601F4B5B6823F4741208
:10249C007B68196A7B685B6A0B431B4913434B606F
:1024AC001B4B01221A60FEF799FC386108E0FEF71D
:1024BC0095FC02463B69D31A022B01D903233DE05C
:1024CC00114B1B6803F00073002BF0D035E0104B60
:1024DC0000221A60FEF782FC386108E0FEF77EFCF1
:1024EC0002463B69D31A022B01D9032326E0064B83
:1024FC001B6803F00073002BF0D11EE07B68DB69D6
:10250C00012B07D1012319E000100240007000409C
:10251C00600042420B4B5B68FB60FB6803F480324B
:10252C007B681B6A9A4206D1FB6803F470127B68C5
:10253C005B6A9A4201D0012300E000231846183749
:10254C00BD4680BD0010024080B584B000AF7860FD
:10255C0039607B68002B01D10123D0E06A4B1B68EA
:10256C0003F007033A689A4210D9674B1B6823F0B3
:10257C00070265493B6813430B60634B1B6803F010
:10258C0007033A689A4201D00123B8E07B681B68C4
:10259C0003F00203002B20D07B681B6803F00403BC
:1025AC00002B05D0594B5B68584A43F4E0635360E9
:1025BC007B681B6803F00803002B05D0534B5B684A
:1025CC00524A43F460535360504B5B6823F0F00263
:1025DC007B689B684D4913434B607B681B6803F019
:1025EC000103002B40D07B685B68012B07D1474B64
:1025FC001B6803F40033002B15D101237FE07B68AB
:10260C005B68022B07D1414B1B6803F00073002B56
:10261C0009D1012373E03D4B1B6803F00203002B2F
:10262C0001D101236BE0394B5B6823F003027B681B
:10263C005B68364913434B60FEF7D0FBF8600AE049
:10264C00FEF7CCFB0246FB68D31A41F28832934268
:10265C0001D9032353E02D4B5B6803F00C027B681C
:10266C005B689B009A42EBD1274B1B6803F0070376
:10267C003A689A4210D2244B1B6823F00702224975
:10268C003B6813430B60204B1B6803F007033A684D
:10269C009A4201D0012332E07B681B6803F00403EB
:1026AC00002B08D0194B5B6823F4E0627B68DB6875
:1026BC00164913434B607B681B6803F00803002B1F
:1026CC0009D0124B5B6823F460527B681B69DB00FA
:1026DC000E4913434B6000F021F802460B4B5B682C
:1026EC001B0903F00F030A49CB5C22FA03F3094AD6
:1026FC001360094B1B681846FEF72EFB0023184687
:10270C001037BD4680BD00BF0020024000100240C3
:10271C005C370008000000200400002080B487B063
:10272C0000AF0023FB600023BB6000237B61002310
:10273C007B6000233B611E4B5B68FB60FB6803F016
:10274C000C03042B02D0082B03D027E0194B3B6160
:10275C0027E0FB689B0C03F00F03174AD35C7B60EC
:10276C00FB6803F48033002B10D0114B5B685B0CBF
:10277C0003F00103114AD35CBB607B680D4A03FB79
:10278C0002F2BB68B2FBF3F37B6104E07B680C4A9A
:10279C0002FB03F37B617B693B6102E0054B3B6110
:1027AC0000BF3B6918461C37BD4680BC704700BF54
:1027BC000010024000127A007437000884370008B9
:1027CC0000093D0080B400AF024B1B681846BD46A3
:1027DC0080BC70470000002080B500AFFFF7F2FF0F
:1027EC000246054B5B681B0A03F007030349CB5CED
:1027FC0022FA03F3184680BD001002406C37000823
:10280C0080B500AFFFF7DEFF0246054B5B68DB0AC5
:10281C0003F007030349CB5C22FA03F3184680BD8F
:10282C00001002406C37000880B485B000AF7860AF
:10283C000A4B1B680A4AA2FB03235B0A7A6802FB59
:10284C0003F3FB6000BFFB685A1EFA60002BF9D142
:10285C0000BF00BF1437BD4680BC7047000000208D
:10286C00D34D621080B586B000AF786000233B6119
:10287C000023FB607B681B6803F00103002B7DD0F9
:10288C000023FB754F4BDB6903F08053002B0DD1FC
:10289C004C4BDB694B4A43F08053D361494BDB69AA
:1028AC0003F08053BB60BB680123FB75464B1B6870
:1028BC0003F48073002B18D1434B1B68424A43F43A
:1028CC0080731360FEF78AFA386108E0FEF786FA27
:1028DC0002463B69D31A642B01D903236DE03A4BB2
:1028EC001B6803F48073002BF0D0364B1B6A03F487
:1028FC004073FB60FB68002B2ED07B685B6803F495
:10290C004073FA689A4227D02E4B1B6A23F440730B
:10291C00FB602E4B01221A602C4B00221A60294AB4
:10292C00FB681362FB6803F00103002B14D0FEF765
:10293C0055FA38610AE0FEF751FA02463B69D31AA0
:10294C0041F28832934201D9032336E01D4B1B6AB6
:10295C0003F00203002BEED01A4B1B6A23F44072D7
:10296C007B685B68174913430B62FB7D012B05D118
:10297C00144BDB69134A23F08053D3617B681B68CB
:10298C0003F00203002B08D00E4B5B6823F440428B
:10299C007B689B680B4913434B607B681B6803F097
:1029AC001003002B08D0074B5B6823F480027B6874
:1029BC00DB68044913434B60002318461837BD46A7
:1029CC0080BD00BF00100240007000404004424235
:1029DC0080B588B000AF786000237B610023FB6179
:1029EC0000233B610023FB600023BB617B68102B41
:1029FC000AD07B68102B00F28A807B68012B45D0B3
:102A0C007B68022B75D082E0464B5B68FB60454BC4
:102A1C001B6803F08073002B7BD0FB689B0C03F0CE
:102A2C000F03414AD35C3B61FB6803F48033002BFA
:102A3C0015D03C4B5B685B0C03F001033B4AD35C49
:102A4C007B61FB6803F48033002B0DD0384A7B6923
:102A5C00B2FBF3F23B6902FB03F3FB6104E03B695D
:102A6C00344A02FB03F3FB612E4B5B6803F48003D7
:102A7C00B3F5800F02D1FB69BB614AE0FB695B00D7
:102A8C002D4AA2FB03235B08BB6142E0254B1B6A6A
:102A9C00FB60FB6803F44073B3F5807F08D1FB68DF
:102AAC0003F00203002B03D04FF40043BB611FE083
:102ABC00FB6803F44073B3F5007F09D1194B5B6AD3
:102ACC0003F00203002B03D049F64043BB610FE037
:102ADC00FB6803F44073B3F5407F1CD1114B1B68AA
:102AEC0003F40033002B16D04FF22443BB6112E0E9
:102AFC0011E0FFF785FE02460A4B5B689B0B03F067
:102B0C00030301335B00B2FBF3F3BB6104E000BFD2
:102B1C0002E000BF00E000BFBB6918462037BD468D
:102B2C0080BD00BF001002408837000898370008AD
:102B3C0000127A0000093D00ABAAAAAA80B582B0A7
:102B4C0000AF78607B68002B01D1012341E07B68EA
:102B5C0093F83D30DBB2002B06D17B68002283F862
:102B6C003C207868FDF7EAFF7B68022283F83D2061
:102B7C007B681A687B6804331946104600F0CCFA5F
:102B8C007B68012283F846207B68012283F83E2073
:102B9C007B68012283F83F207B68012283F8402068
:102BAC007B68012283F841207B68012283F8422054
:102BBC007B68012283F843207B68012283F8442040
:102BCC007B68012283F845207B68012283F83D2035
:102BDC00002318460837BD4680BD000080B485B080
:102BEC0000AF78607B6893F83D30DBB2012B01D0ED
:102BFC0001233AE07B68022283F83D207B681B6846
:102C0C00DA687B681B6842F00102DA607B681B683B
:102C1C00184A93420ED07B681B68B3F1804F09D0E1
:102C2C007B681B68144A934204D07B681B68134A68
:102C3C00934211D17B681B689B6803F00703FB6010
:102C4C00FB68062B10D07B681B681A687B681B68B6
:102C5C0042F001021A6007E07B681B681A687B6807
:102C6C001B6842F001021A60002318461437BD4657
:102C7C0080BC7047002C014000040040000800405C
:102C8C0080B483B000AF78607B681B68DA687B68BF
:102C9C001B6822F00102DA607B681B681A6A41F239
:102CAC0011131340002B0FD17B681B681A6A40F27A
:102CBC0044431340002B07D17B681B681A687B6860
:102CCC001B6822F001021A607B68012283F83D2008
:102CDC00002318460C37BD4680BC704780B584B0C5
:102CEC0000AF78607B681B68DB68FB607B681B68E7
:102CFC001B69BB60BB6803F00203002B20D0FB6890
:102D0C0003F00203002B1BD07B681B686FF00202E0
:102D1C001A617B6801221A777B681B689B6903F038
:102D2C000303002B03D0786800F0DAF905E078682B
:102D3C0000F0CDF9786800F0DCF97B6800221A7796
:102D4C00BB6803F00403002B20D0FB6803F00403E2
:102D5C00002B1BD07B681B686FF004021A617B6828
:102D6C0002221A777B681B689B6903F44073002B63
:102D7C0003D0786800F0B4F905E0786800F0A7F9A2
:102D8C00786800F0B6F97B6800221A77BB6803F00C
:102D9C000803002B20D0FB6803F00803002B1BD08A
:102DAC007B681B686FF008021A617B6804221A7733
:102DBC007B681B68DB6903F00303002B03D0786886
:102DCC0000F08EF905E0786800F081F9786800F081
:102DDC0090F97B6800221A77BB6803F01003002B74
:102DEC0020D0FB6803F01003002B1BD07B681B6802
:102DFC006FF010021A617B6808221A777B681B68D7
:102E0C00DB6903F44073002B03D0786800F068F999
:102E1C0005E0786800F05BF9786800F06AF97B6887
:102E2C0000221A77BB6803F00103002B0CD0FB685F
:102E3C0003F00103002B07D07B681B686FF00102C5
:102E4C001A617868FDF78AFABB6803F08003002BDF
:102E5C000CD0FB6803F08003002B07D07B681B6849
:102E6C006FF080021A61786800F053FBBB6803F0C6
:102E7C004003002B0CD0FB6803F04003002B07D061
:102E8C007B681B686FF040021A61786800F03AF9B1
:102E9C00BB6803F02003002B0CD0FB6803F020036D
:102EAC00002B07D07B681B686FF020021A617868D2
:102EBC0000F026FB00BF1037BD4680BD80B584B046
:102ECC0000AF786039600023FB737B6893F83C306B
:102EDC00012B01D10223B4E07B68012283F83C2052
:102EEC007B68022283F83D207B681B689B68BB6073
:102EFC00BB6823F07703BB60BB6823F47F43BB60E4
:102F0C007B681B68BA689A603B681B68B3F5005F06
:102F1C003ED0B3F5005F00F28780B3F5805F00F020
:102F2C008680B3F5805F7FD8702B1AD0702B7BD83E
:102F3C00602B50D0602B77D8502B3CD0502B73D8B3
:102F4C00402B58D0402B6FD8302B64D0302B6BD803
:102F5C00202B60D0202B67D8002B5CD0102B5AD0A4
:102F6C0062E07B6818683B6899683B685A683B6804
:102F7C00DB6800F047FA7B681B689B68BB60BB682A
:102F8C0043F07703BB607B681B68BA689A604FE0BC
:102F9C007B6818683B6899683B685A683B68DB68D3
:102FAC0000F030FA7B681B689A687B681B6842F4F7
:102FBC0080429A603CE07B6818683B6859683B68C3
:102FCC00DB681A4600F0A7F97B681B68502118468D
:102FDC0000F0FEF92CE07B6818683B6859683B6888
:102FEC00DB681A4600F0C5F97B681B68602118463F
:102FFC0000F0EEF91CE07B6818683B6859683B6888
:10300C00DB681A4600F087F97B681B68402118467C
:10301C0000F0DEF90CE07B681A683B681B68194607
:10302C00104600F0D5F903E00123FB7300E000BF6C
:10303C007B68012283F83D207B68002283F83C20CA
:10304C00FB7B18461037BD4680BD80B582B000AF03
:10305C00786039607B6893F83C30012B01D10223F6
:10306C0031E07B68012283F83C207B68022283F8E4
:10307C003D203968786800F0BDF80346002B09D074
:10308C007B68012283F83D207B68002283F83C207A
:10309C00012318E07B681B68DA687B681B6822F0E8
:1030AC004002DA607B681B68DA687B681B6822F474
:1030BC008042DA607B68012283F83D207B68002225
:1030CC0083F83C20002318460837BD4680BD80B4E9
:1030DC0083B000AF786000BF0C37BD4680BC704732
:1030EC0080B483B000AF786000BF0C37BD4680BCA5
:1030FC00704780B483B000AF786000BF0C37BD461A
:10310C0080BC704780B483B000AF786000BF0C37D0
:10311C00BD4680BC7047000080B485B000AF7860BD
:10312C0039607B681B68FB607B682F4A93420BD02D
:10313C007B68B3F1804F07D07B682C4A934203D055
:10314C007B682B4A934208D1FB6823F07003FB6029
:10315C003B685B68FA681343FB607B68224A9342C6
:10316C000BD07B68B3F1804F07D07B681F4A93422A
:10317C0003D07B681E4A934208D1FB6823F440734A
:10318C00FB603B68DB68FA681343FB60FB6823F069
:10319C0080023B685B691343FB607B68FA681A60CA
:1031AC003B689A687B68DA623B681A687B689A624B
:1031BC007B680D4A934203D13B681A697B681A639A
:1031CC007B6801225A617B681B6903F00103002BA9
:1031DC0005D07B681B6923F001027B681A6100BF74
:1031EC001437BD4680BC7047002C014000040040E1
:1031FC000008004080B586B000AF786039600023CD
:10320C00FB757B681B689B683B613B6923F0700313
:10321C003B613B685B683A6913433B613B6923F054
:10322C0007033B613B681B683A6913433B617B684E
:10323C001B683A699A603B685B68702B1AD0702BDC
:10324C0060D8602B54D0602B5CD8502B46D0502BC0
:10325C0058D8402B19D0402B54D8302B55D0302B6C
:10326C0050D8202B51D0202B4CD8002B4DD0102BCC
:10327C004BD047E07B6818683B68D9683B689A6814
:10328C003B681B6900F0BEF840E03B681B68052BEF
:10329C0001D101233BE07B681B681B6AFB607B68E8
:1032AC001B681A6A7B681B6822F001021A627B6831
:1032BC001B689B69BB60BB6823F0F003BB603B6879
:1032CC001B691B01BA681343BB607B681B68BA6837
:1032DC009A617B681B68FA681A6217E07B68186849
:1032EC003B6899683B681B691A4600F014F80DE0BE
:1032FC007B6818683B6899683B681B691A4600F044
:10330C0038F803E00123FB7500E000BFFB7D184695
:10331C001837BD4680BD80B487B000AFF860B96087
:10332C007A60FB681B6A7B61FB681B6A23F00102F5
:10333C00FB681A62FB689B693B613B6923F0F003F5
:10334C003B617B681B013A6913433B617B6923F04A
:10335C000A037B617A69BB6813437B61FB683A693A
:10336C009A61FB687A691A6200BF1C37BD4680BC43
:10337C00704780B487B000AFF860B9607A60FB68C2
:10338C001B6A7B61FB681B6A23F01002FB681A62E4
:10339C00FB689B693B613B6923F470433B617B6831
:1033AC001B033A6913433B617B6923F0A0037B61E8
:1033BC00BB681B017A6913437B61FB683A699A61AC
:1033CC00FB687A691A6200BF1C37BD4680BC704727
:1033DC0080B485B000AF786039607B689B68FB6017
:1033EC00FB6823F07003FB603A68FB68134343F0FF
:1033FC000703FB607B68FA689A6000BF1437BD4610
:10340C0080BC704780B487B000AFF860B9607A6058
:10341C003B60FB689B687B617B6923F47F437B612A
:10342C003B681A027B681A43BB6813437A691343DF
:10343C007B61FB687A699A6000BF1C37BD4680BC13
:10344C007047000080B485B000AF786039607B684D
:10345C0093F83C30012B01D1022346E07B6801221A
:10346C0083F83C207B68022283F83D207B681B6834
:10347C005B68FB607B681B689B68BB60FB6823F028
:10348C007003FB603B681B68FA681343FB607B6846
:10349C001B68FA685A607B681B68164A93420ED008
:1034AC007B681B68B3F1804F09D07B681B68124A9C
:1034BC00934204D07B681B68104A93420CD1BB68C2
:1034CC0023F08003BB603B685B68BA681343BB6046
:1034DC007B681B68BA689A607B68012283F83D2080
:1034EC007B68002283F83C20002318461437BD4625
:1034FC0080BC7047002C01400004004000080040D4
:10350C0080B483B000AF786000BF0C37BD4680BC80
:10351C00704780B483B000AF786000BF0C37BD46F5
:10352C0080BC704780B582B000AF78607B68002BA0
:10353C0001D1012342E07B6893F84130DBB2002BD0
:10354C0006D17B68002283F840207868FDF72EFBBB
:10355C007B68242283F841207B681B68DA687B68CF
:10356C001B6822F40052DA60786800F02BF87B6854
:10357C001B681A697B681B6822F490421A617B688D
:10358C001B685A697B681B6822F02A025A617B68A7
:10359C001B68DA687B681B6842F40052DA607B684F
:1035AC0000225A647B68202283F841207B68202209
:1035BC0083F842207B6800225A63002318460837A0
:1035CC00BD4680BD80B584B000AF78607B681B6859
:1035DC001B6923F440517B68DA687B681B680A43DB
:1035EC001A617B689A687B681B691A437B685B6904
:1035FC001343BB607B681B68DB6823F4B05323F078
:10360C000C037A681268B9680B43D3607B681B683B
:10361C005B6923F440717B689A697B681B680A4379
:10362C005A617B681B682C4A934203D1FFF7E8F878
:10363C00F86002E0FFF7D0F8F860FA6813469B00D8
:10364C0013449A001A447B685B689B00B2FBF3F34B
:10365C00224AA2FB03235B091901FA6813469B005B
:10366C0013449A001A447B685B689B00B2FBF3F22C
:10367C001A4BA3FB02035B09642000FB03F3D31A70
:10368C001B013233154AA2FB03235B0903F0F00341
:10369C001944FA6813469B0013449A001A447B6839
:1036AC005B689B00B2FBF3F20C4BA3FB02035B09C0
:1036BC00642000FB03F3D31A1B013233074AA2FB2D
:1036CC0003235B0903F00F027B681B680A449A60B2
:1036DC0000BF1037BD4680BD003801401F85EB513F
:1036EC0003460244934200D1704703F8011BF9E7EB
:1036FC0070B500260C4D0D4C641BA410A64209D1CC
:10370C0000F01AF800260A4D0A4C641BA410A642BD
:10371C0005D170BD55F8043B98470136EEE755F8D6
:10372C00043B98470136F2E79C3700089C370008A9
:10373C009C370008A0370008F8B500BFF8BC08BCDF
:10374C009E467047F8B500BFF8BC08BC9E46704753
:10375C000000000000000000010203040607080935
:10376C000000000001020304020304050607080917
:10377C000A0B0C0D0E0F10100102000002030405C1
:10378C00060708090A0B0C0D0E0F101001020000A1
:04379C0031010008EF
:0437A0000D0100080F
:0C37A40000127A0010000000010000007C
:0400000508000CEDF6
:00000001FF
