:020000040800F2
:1000000000500020B1290008912700089927000816
:10001000A1270008A9270008B12700080000000058
:10002000000000000000000000000000B9270008E8
:10003000C527000800000000D1270008DD270008C0
:10004000F9290008F9290008F9290008F929000808
:10005000F9290008F9290008F9290008F9290008F8
:10006000F9290008F9290008F9290008E9270008FA
:10007000F9290008F9290008F9290008F9290008D8
:10008000F9290008F9290008F9290008F9290008C8
:10009000F9290008F9290008F9290008F9290008B8
:1000A000F9290008F9290008F9290008F9290008A8
:1000B000F9290008FD270008F9290008F929000896
:1000C000F9290008F9290008F9290008F929000888
:1000D000F9290008F9290008F9290008F929000878
:1000E00011280008F9290008F9290008000000007B
:1000F0000000000000000000000000000000000000
:0C01000000000000000000005FF808F1A3
:1001100010B5054C237833B9044B13B10448AFF341
:1001200000800123237010BDE401002000000000C6
:100130009491000808B5034B1BB103490348AFF382
:10014000008008BD00000000E80100209491000834
:10015000034613F8012B002AFBD1181A0138704707
:1001600081F0004102E000BF83F0004330B54FEA68
:1001700041044FEA430594EA050F08BF90EA020FD5
:100180001FBF54EA000C55EA020C7FEA645C7FEA68
:10019000655C00F0E2804FEA5454D4EB5555B8BF8B
:1001A0006D420CDD2C4480EA020281EA030382EAFC
:1001B000000083EA010180EA020281EA0303362D8E
:1001C00088BF30BD11F0004F4FEA01314FF4801C61
:1001D0004CEA113102D0404261EB410113F0004F73
:1001E0004FEA03334CEA133302D0524263EB43032A
:1001F00094EA050F00F0A780A4F10104D5F1200EC8
:100200000DDB02FA0EFC22FA05F2801841F1000122
:1002100003FA0EF2801843FA05F359410EE0A5F1F6
:1002200020050EF1200E012A03FA0EFC28BF4CF027
:10023000020C43FA05F3C01851EBE37101F00045DD
:1002400007D54FF0000EDCF1000C7EEB00006EEBEA
:100250000101B1F5801F1BD3B1F5001F0CD3490874
:100260005FEA30004FEA3C0C04F101044FEA4452CB
:1002700012F5800F80F09A80BCF1004F08BF5FEA52
:10028000500C50F1000041EB045141EA050130BD32
:100290005FEA4C0C404141EB0101013C28BFB1F544
:1002A000801FE9D291F0000F04BF01460020B1FA8F
:1002B00081F308BF2033A3F10B03B3F120020CDA62
:1002C0000C3208DD02F1140CC2F10C0201FA0CF040
:1002D00021FA02F10CE002F11402D8BFC2F1200CA5
:1002E00001FA02F120FA0CFCDCBF41EA0C0190405B
:1002F000E41AA2BF01EB0451294330BD6FEA0404A4
:100300001F3C1CDA0C340EDC04F11404C4F120028E
:1003100020FA04F001FA02F340EA030021FA04F3A0
:1003200045EA030130BDC4F10C04C4F1200220FAF7
:1003300002F001FA04F340EA0300294630BD21FA35
:1003400004F0294630BD94F0000F83F4801306BFFB
:1003500081F480110134013D4EE77FEA645C18BFEF
:100360007FEA655C29D094EA050F08BF90EA020F86
:1003700005D054EA000C04BF1946104630BD91EA7E
:10038000030F1EBF0021002030BD5FEA545C05D181
:100390004000494128BF41F0004130BD14F58004C0
:1003A0003CBF01F5801130BD01F0004545F0FE4134
:1003B00041F470014FF0000030BD7FEA645C1ABF69
:1003C000194610467FEA655C1CBF0B46024650EAA0
:1003D000013406BF52EA033591EA030F41F40021CC
:1003E00030BD00BF90F0000F04BF0021704730B552
:1003F0004FF4806404F132044FF000054FF0000127
:1004000050E700BF90F0000F04BF0021704730B5E7
:100410004FF4806404F1320410F0004548BF4042BC
:100420004FF000013EE700BF42004FEAE2014FEA11
:1004300031014FEA02701FBF12F07F4393F07F4FEC
:1004400081F06051704732F07F4208BF704793F0EF
:100450007F4F04BF41F40021704730B54FF4607402
:1004600001F0004521F000411CE700BF50EA010205
:1004700008BF704730B54FF000050AE050EA0102AE
:1004800008BF704730B511F0004502D5404261EB1E
:1004900041014FF4806404F132045FEA915C3FF45F
:1004A000D8AE4FF003025FEADC0C18BF03325FEAFC
:1004B000DC0C18BF033202EBDC02C2F1200300FAAD
:1004C00003FC20FA02F001FA03FE40EA0E0021FAD2
:1004D00002F11444BDE600BF70B54FF0FF0C4CF4C0
:1004E000E06C1CEA11541DBF1CEA135594EA0C0F72
:1004F00095EA0C0F00F0DEF82C4481EA030621EAAD
:100500004C5123EA4C5350EA013518BF52EA0335E7
:1005100041F4801143F4801338D0A0FB02CE4FF099
:100520000005E1FB02E506F00042E0FB03E54FF0C9
:100530000006E1FB03569CF0000F18BF4EF0010EC1
:10054000A4F1FF04B6F5007F64F5407404D25FEABD
:100550004E0E6D4146EB060642EAC62141EA555170
:100560004FEAC52040EA5E504FEACE2EB4F1FD0CB2
:1005700088BFBCF5E06F1ED8BEF1004F08BF5FEA30
:10058000500E50F1000041EB045170BD06F00046E2
:1005900046EA010140EA020081EA0301B4EB5C048F
:1005A000C2BFD4EB0C0541EA045170BD41F4801187
:1005B0004FF0000E013C00F3AB8014F1360FDEBFAC
:1005C000002001F0004170BDC4F10004203C35DA88
:1005D0000C341BDC04F11404C4F1200500FA05F30B
:1005E00020FA04F001FA05F240EA020001F00042AC
:1005F00021F0004110EBD37021FA04F642EB060122
:100600005EEA430E08BF20EAD37070BDC4F10C044B
:10061000C4F1200500FA04F320FA05F001FA04F20F
:1006200040EA020001F0004110EBD37041F10001FB
:100630005EEA430E08BF20EAD37070BDC4F1200506
:1006400000FA05F24EEA020E20FA04F301FA05F26E
:1006500043EA020321FA04F001F0004121FA04F216
:1006600020EA020000EBD3705EEA430E08BF20EAE6
:10067000D37070BD94F0000F0FD101F00046400020
:1006800041EB010111F4801F08BF013CF7D041EAA2
:10069000060195F0000F18BF704703F000465200A6
:1006A00043EB030313F4801F08BF013DF7D043EA77
:1006B0000603704794EA0C0F0CEA135518BF95EA2D
:1006C0000C0F0CD050EA410618BF52EA4306D1D1B4
:1006D00081EA030101F000414FF0000070BD50EAD3
:1006E000410606BF1046194652EA430619D094EA5D
:1006F0000C0F02D150EA013613D195EA0C0F05D147
:1007000052EA03361CBF104619460AD181EA03019A
:1007100001F0004141F0FE4141F470014FF0000052
:1007200070BD41F0FE4141F4780170BD70B54FF0ED
:10073000FF0C4CF4E06C1CEA11541DBF1CEA13556D
:1007400094EA0C0F95EA0C0F00F0A7F8A4EB05044F
:1007500081EA030E52EA03354FEA013100F0888046
:100760004FEA03334FF0805545EA131343EA12630F
:100770004FEA022245EA111545EA10654FEA0026C4
:100780000EF000419D4208BF964244F1FD0404F57D
:10079000407402D25B084FEA3202B61A65EB0305D9
:1007A0005B084FEA32024FF480104FF4002CB6EB96
:1007B000020E75EB030E22BFB61A754640EA0C0016
:1007C0005B084FEA3202B6EB020E75EB030E22BF56
:1007D000B61A754640EA5C005B084FEA3202B6EB97
:1007E000020E75EB030E22BFB61A754640EA9C0056
:1007F0005B084FEA3202B6EB020E75EB030E22BF26
:10080000B61A754640EADC0055EA060E18D04FEAE3
:10081000051545EA16754FEA06164FEAC30343EA83
:1008200052734FEAC2025FEA1C1CC0D111F4801F50
:100830000BD141EA00014FF000004FF0004CB6E749
:1008400011F4801F04BF01430020B4F1FD0C88BFE8
:10085000BCF5E06F3FF6AFAEB5EB030C04BFB6EBF3
:10086000020C5FEA500C50F1000041EB045170BDE6
:100870000EF0004E4EEA113114EB5C04C2BFD4EB13
:100880000C0541EA045170BD41F480114FF0000E97
:10089000013C90E645EA060E8DE60CEA135594EA13
:1008A0000C0F08BF95EA0C0F3FF43BAF94EA0C0F16
:1008B0000AD150EA01347FF434AF95EA0C0F7FF48B
:1008C00025AF104619462CE795EA0C0F06D152EADF
:1008D00003353FF4FDAE1046194622E750EA4106C3
:1008E00018BF52EA43067FF4C5AE50EA41047FF4D4
:1008F0000DAF52EA43057FF4EBAE12E74FF0FF3C39
:1009000006E000BF4FF0010C02E000BF4FF0010C09
:100910004DF804CD4FEA410C7FEA6C5C4FEA430C82
:1009200018BF7FEA6C5C1BD001B050EA410C0CBFD1
:1009300052EA430C91EA030F02BF90EA020F002033
:10094000704710F1000F91EA030F58BF994208BF9A
:1009500090422CBFD8176FEAE37040F00100704757
:100960004FEA410C7FEA6C5C02D150EA013C07D1AE
:100970004FEA430C7FEA6C5CD6D152EA033CD3D0F9
:100980005DF8040B704700BF8446104662468C46F3
:100990001946634600E000BF01B5FFF7B7FF002826
:1009A00048BF10F1000F01BD4DF808EDFFF7F4FF4F
:1009B0000CBF012000205DF808FB00BF4DF808EDDA
:1009C000FFF7EAFF34BF012000205DF808FB00BFFD
:1009D0004DF808EDFFF7E0FF94BF012000205DF81F
:1009E00008FB00BF4DF808EDFFF7CEFF94BF0120D4
:1009F00000205DF808FB00BF4DF808EDFFF7C4FFCD
:100A000034BF012000205DF808FB00BF4FEA410C15
:100A10007FEA6C5C02D150EA013C0AD14FEA430CF8
:100A20007FEA6C5C02D152EA033C02D14FF0000035
:100A300070474FF0010070474FEA410212F5001273
:100A400015D211D56FF47873B3EB625212D94FEA15
:100A5000C12343F0004343EA505311F0004F23FAFF
:100A600002F018BF404270474FF00000704750EA54
:100A7000013005D111F0004008BF6FF00040704711
:100A80004FF00000704700BF4A0011D212F500126B
:100A900011D20DD56FF47873B3EB62520ED44FEAD6
:100AA000C12343F0004343EA505323FA02F0704756
:100AB0004FF00000704750EA013002D14FF0FF3094
:100AC00070474FF0000070474FEA4102B2F1E04337
:100AD00024BFB3F5001CDCF1FE5C0DD901F0004C25
:100AE0004FEAC0024CEA5070B2F1004F40EB830075
:100AF00008BF20F00100704711F0804F21D113F1A1
:100B00003872BCBF01F00040704741F480114FEAD9
:100B10005252C2F11802C2F1200C10FA0CF320FA62
:100B200002F018BF40F001004FEAC1234FEAD3237F
:100B300003FA0CFC40EA0C0023FA02F34FEA4303E9
:100B4000CCE77FEA625307D150EA01331EBF4FF072
:100B5000FE4040F44000704701F0004040F0FE408D
:100B600040F40000704700BF80F0004002E000BF8A
:100B700081F0004142001FBF5FEA410392EA030F88
:100B80007FEA226C7FEA236C6AD04FEA1262D2EBD2
:100B90001363C1BFD218414048404140B8BF5B42D7
:100BA000192B88BF704710F0004F40F4000020F070
:100BB0007F4018BF404211F0004F41F4000121F086
:100BC0007F4118BF494292EA030F3FD0A2F10102D0
:100BD00041FA03FC10EB0C00C3F1200301FA03F10E
:100BE00000F0004302D5494260EB4000B0F5000F31
:100BF00013D3B0F1807F06D340084FEA310102F1F0
:100C00000102FE2A51D2B1F1004F40EBC25008BFA1
:100C100020F0010040EA03007047490040EB00006B
:100C2000013A28BFB0F5000FEDD2B0FA80FCACF16C
:100C3000080CB2EB0C0200FA0CF0AABF00EBC25099
:100C400052421843BCBFD0401843704792F0000F87
:100C500081F4000106BF80F400000132013BB5E7DA
:100C60004FEA41037FEA226C18BF7FEA236C21D050
:100C700092EA030F04D092F0000F08BF08467047B5
:100C800090EA010F1CBF0020704712F07F4F04D183
:100C9000400028BF40F00040704712F100723CBF96
:100CA00000F50000704700F0004343F0FE4040F4C0
:100CB000000070477FEA226216BF08467FEA23637E
:100CC0000146420206BF5FEA412390EA010F40F469
:100CD000800070474FF0000304E000BF10F00043B5
:100CE00048BF40425FEA000C08BF704743F096439C
:100CF00001464FF000001CE050EA010208BF7047B7
:100D00004FF000030AE000BF50EA010208BF70473D
:100D100011F0004302D5404261EB41015FEA010C52
:100D200002BF84460146002043F0B64308BFA3F14A
:100D30008053A3F50003BCFA8CF2083AA3EBC2532C
:100D400010DB01FA02FC634400FA02FCC2F120024B
:100D5000BCF1004F20FA02F243EB020008BF20F082
:100D60000100704702F1200201FA02FCC2F12002E8
:100D700050EA4C0021FA02F243EB020008BF20EADD
:100D8000DC7070474FF0FF0C1CEAD0521EBF1CEA0B
:100D9000D15392EA0C0F93EA0C0F6FD01A4480EAF9
:100DA000010C400218BF5FEA41211ED04FF00063E2
:100DB00043EA501043EA5111A0FB01310CF000400E
:100DC000B1F5000F3EBF490041EAD3715B0040EA34
:100DD000010062F17F02FD2A1DD8B3F1004F40EB04
:100DE000C25008BF20F00100704790F0000F0CF0D7
:100DF000004C08BF49024CEA502040EA51207F3A9B
:100E0000C2BFD2F1FF0340EAC250704740F4000075
:100E10004FF00003013A5DDC12F1190FDCBF00F066
:100E200000407047C2F10002410021FA02F1C2F114
:100E3000200200FA02FC5FEA310040F1000053EAB0
:100E40004C0308BF20EADC70704792F0000F00F0FE
:100E5000004C02BF400010F4000F013AF9D040EA04
:100E60000C0093F0000F01F0004C02BF490011F498
:100E7000000F013BF9D041EA0C018FE70CEAD15396
:100E800092EA0C0F18BF93EA0C0F0AD030F0004C16
:100E900018BF31F0004CD8D180EA010000F00040CA
:100EA000704790F0000F17BF90F0004F084691F088
:100EB000000F91F0004F14D092EA0C0F01D14202C2
:100EC0000FD193EA0C0F03D14B0218BF084608D18B
:100ED00080EA010000F0004040F0FE4040F40000D5
:100EE000704740F0FE4040F4400070474FF0FF0C68
:100EF0001CEAD0521EBF1CEAD15392EA0C0F93EAAF
:100F00000C0F69D0A2EB030280EA010C49024FEA00
:100F1000402037D04FF0805343EA111143EA1013B9
:100F20000CF000408B4238BF5B0042F17D024FF471
:100F3000000C8B4224BF5B1A40EA0C00B3EB510F4C
:100F400024BFA3EB510340EA5C00B3EB910F24BF35
:100F5000A3EB910340EA9C00B3EBD10F24BFA3EBBA
:100F6000D10340EADC001B0118BF5FEA1C1CE0D182
:100F7000FD2A3FF650AF8B4240EBC25008BF20F035
:100F8000010070470CF0004C4CEA50207F32C2BF89
:100F9000D2F1FF0340EAC250704740F400004FF026
:100FA0000003013A37E792F0000F00F0004C02BF57
:100FB000400010F4000F013AF9D040EA0C0093F021
:100FC000000F01F0004C02BF490011F4000F013B7B
:100FD000F9D041EA0C0195E70CEAD15392EA0C0FE3
:100FE00008D142027FF47DAF93EA0C0F7FF470AF1B
:100FF000084676E793EA0C0F04D14B023FF44CAF5E
:1010000008466EE730F0004C18BF31F0004CCAD1F2
:1010100030F000427FF45CAF31F000437FF43CAF2E
:101020005FE700BF4FF0FF3C06E000BF4FF0010C50
:1010300002E000BF4FF0010C4DF804CD4FEA400232
:101040004FEA41037FEA226C18BF7FEA236C11D07C
:1010500001B052EA530C18BF90EA010F58BFB2EB2F
:10106000030088BFC81738BF6FEAE17018BF40F0AF
:10107000010070477FEA226C02D15FEA402C05D163
:101080007FEA236CE4D15FEA412CE1D05DF8040BE8
:10109000704700BF844608466146FFE70FB5FFF77B
:1010A000C9FF002848BF10F1000F0FBD4DF808ED33
:1010B000FFF7F4FF0CBF012000205DF808FB00BF24
:1010C0004DF808EDFFF7EAFF34BF012000205DF87E
:1010D00008FB00BF4DF808EDFFF7E0FF94BF0120CB
:1010E00000205DF808FB00BF4DF808EDFFF7D2FFC8
:1010F00094BF012000205DF808FB00BF4DF808ED0B
:10110000FFF7C8FF34BF012000205DF808FB00BFD7
:1011100080B582B000AF78607B681B68074A934255
:1011200008D100224FF40051054802F0E7FD0548C0
:1011300003F032FC00BF0837BD4680BD000400400C
:1011400000100140BC02002080B582B000AF034611
:10115000FB805B4B1B685B6A5A4A1360584B1B68E9
:101160001A6A41F211131340002B0FD1544B1B6824
:101170001A6A40F244431340002B07D1504B1B68BE
:101180001A684F4B1B6822F001021A604C4B1B6817
:1011900000225A624A4B1B681A68494B1B6842F08E
:1011A00001021A60484B1B685A00464B1B689A4262
:1011B00007D2464B01221A70424B1B68424A136009
:1011C0006FE0404B1B68424AB2FBF3F31846FFF74F
:1011D00081FD03463F4A13603C4B1B780133DAB272
:1011E0003A4B1A70374B1B68374A1360374B1B78E2
:1011F000052B56D1384B1B6838491846FFF776FE49
:1012000003461A46364B1A60354B1B681846FFF7E3
:101210000BF929A3D3E90023FFF788FA02460B460E
:1012200010461946FFF730FC03469AB22D4B1A8040
:1012300001224FF400512C4802F060FD2B4803F0CE
:1012400059FB2A4B1B681A6A41F211131340002BF9
:101250000FD1264B1B681A6A40F244431340002BFF
:1012600007D1224B1B681A68204B1B6822F0010231
:101270001A601C4B1B885A1E1C4B1B68DA62194BE8
:101280001B88013B1A46194BDA60184B1B68002279
:101290005A62164B1B681A68144B1B6842F0010215
:1012A0001A60134B4FF480525A6100BF0837BD4695
:1012B00080BD00BFAFF30080F168E388B5F8E43E7D
:1012C00074020020680300206C03002064030020E7
:1012D00040420F00700300201004002000007A44F8
:1012E000600300200004002000100140BC02002028
:1012F0000004014000000000B0B58CB000AF01F068
:101300007DFB00F0CBFE01F0AFF801F08FF800F0AC
:1013100021FF01F061F800F095FF00F0F7FFBE48F3
:1013200001F0BEFF0522BD49BB4801F0C5FCBC4B26
:101330001B681A68BA4B1B6842F001021A60B94B6D
:101340001B681A68B74B1B6842F001021A60B54867
:1013500003F0D0FA0A21032000F0C6FC03461A4627
:10136000B14B1A800A21042000F0BEFC03461A4645
:10137000AE4B1A800A21012000F0B6FC03461A4643
:10138000AB4B1A800A21002000F0AEFC03461A463F
:10139000A84B1A800A21022000F0A6FC03461AB2CC
:1013A000A54B1A80A04B1B881846FFF72BF896A375
:1013B000D3E90023FFF790F802460B4614461D467A
:1013C0009E4B1B681846FFF72FF802460B46204637
:1013D0002946FFF781F802460B4610461946FFF7EB
:1013E00053FB03469AB2964B1A80904B1B881846C3
:1013F000FFF708F884A3D3E90023FFF76DF802464E
:101400000B4614461D468D4B1B681846FFF70CF81B
:1014100002460B4620462946FFF75EF802460B4679
:1014200010461946FFF730FB03469AB2854B1A80E7
:101430007F4B1B881846FEF7E5FF75A3D3E9002311
:10144000FFF74AF802460B4614461D467B4B1B68C5
:101450001846FEF7E9FF02460B4620462946FFF7ED
:101460003BF802460B4610461946FFF70DFB0346B4
:101470009AB2754B1A806F4B1B881846FEF7C2FF55
:1014800063A3D3E90023FFF727F802460B4614466F
:101490001D466A4B1B681846FEF7C6FF02460B4600
:1014A00020462946FFF718F802460B461046194613
:1014B000FFF7EAFA03469AB2644B1A805E4BB3F91F
:1014C00000301846FEF79EFF51A3D3E90023FFF733
:1014D00003F802460B4614461D46584B1B68184637
:1014E000FEF7A2FF02460B4620462946FEF7F4FF10
:1014F00002460B4610461946FFF7C6FA03469AB253
:10150000534B1A804E4B1B8841F294124FF4FA71E0
:10151000184600F009FD03461A46494B1A80494B0C
:101520001B8840F6C412FA21184600F0FDFC034661
:101530001A46444B1A80444B1B8841F2F2224FF466
:101540009671184600F0F0FC03461A463E4B1A808E
:101550003E4B1B8841F2F2224FF49671184600F080
:10156000E3FC03461A46394B1A80394B1B8841F27B
:10157000F2224FF49671184600F0D6FC03461A4644
:10158000334B1A802E4B1B880121184600F0E0FBDC
:101590000346304A13602B4B1B880221184600F08B
:1015A000D7FB03462C4A1360274B1B8803211846A0
:1015B00000F0CEFB0346294A1360244B1B8804210C
:1015C000184600F0C5FB0346254A1360204B1B88D4
:1015D0000521184600F0BCFB0346224A1360204B4D
:1015E0001B68214A13601D4B1B68204A1360204B67
:1015F0001846FEF719FF04460D461E4B1846FEF727
:1016000013FF39E0AFF3008028F224E99AC9E93FDB
:10161000F0A7C64B3789F33F000200204C0300209F
:1016200074020020BC020020740300207603002016
:10163000780300207A0300207C0300200C000020A7
:101640007E0300208003002082030020840300200A
:1016500086030020880300208C03002090030020D4
:1016600094030020980300200400002000000020C4
:10167000DB0F494052B8D6404FF000024FF0804394
:10168000FFF754F802460B46104619464FF0000289
:101690004FF0804306F050FE02460B462046294696
:1016A000FEF71AFF02460B4614461D46B64B184677
:1016B000FEF7BAFE02460B4620462946FEF70CFF0F
:1016C00002460B4610461946FFF7FEF90346AF4A9D
:1016D000136004231846FFF701FB0246AB4B1B685F
:1016E00019461046FFF74EFB0346A9491846FFF777
:1016F000FDFB03461A46A74B1A60A74B1B6818460A
:10170000FEF792FE9EA3D3E90023FEF72FFD0246CB
:101710000B4610461946FFF7D7F90346FB629F4B6D
:101720001B689F4A11461846FFF72CFB03461846D4
:10173000FEF77AFE04460D469A4BF96A1846FFF703
:1017400021FB03461846FEF76FFE4FF00002964B52
:10175000FEF7C2FE02460B4620462946FEF7E6FF8C
:1017600002460B4610461946FFF7AEF90346BB6228
:10177000884B1B688D4A11461846FFF703FB03464A
:101780001A468B4B1B6819461046FFF7FBFA0346B7
:10179000B96A1846FFF7F6FA03461846FEF744FE04
:1017A0004FF00002804BFEF797FE02460B461046B4
:1017B00019464FF000027F4BFEF7B8FF02460B467A
:1017C00010461946FFF780F903467B627A4B1946AB
:1017D000786AFFF78BFB03463B62754B1B68184624
:1017E000FEF722FE4FF00002744BFEF79FFF024609
:1017F0000B4614461D4604231846FEF703FE4FF021
:1018000000024FF08043FEF791FF02460B46204650
:101810002946FEF761FE02460B4610461946FFF7C1
:1018200053F90346FB61F969386AFFF75FFB03462A
:10183000BB61634B63491846FFF7A4FA03467B611B
:10184000614B1B681846FEF7EFFD4FF000025F4B3F
:10185000FEF742FE02460B4614461D464F4B1B68E0
:101860001846FEF7E1FD02460B4620462946FEF7E4
:101870007BFC02460B4610461946FFF725F9034646
:101880003B614FF000013869FFF724FC0346002B51
:1018900007D14FF000017869FFF71CFC0346002BCD
:1018A0000DD04B494B4804F009FC4A48FEF750FC68
:1018B00003469AB232234749474803F00FFD474B8E
:1018C0001846FEF7B1FD04460D4679693869FFF701
:1018D0000DFB03461846FEF7A7FD02460B461046D1
:1018E000194606F091FD02460B4620462946FEF7B2
:1018F000F3FD02460B4610461946FFF7E5F803468E
:10190000FB604FF07D53F9681846FFF73BFA03463A
:1019100033491846FFF7EAFA0346BB604FF000016F
:10192000B868FFF7D7FB0346002B0DD02D49294897
:1019300004F0C4FB2748FEF70BFC03469AB232239F
:101940002449254803F0CAFCB968B869FFF7CEFA04
:1019500003467B60244B79681846FFF70BF9034672
:101960001A46224B1A60214B1B68184600F080FB78
:1019700003461F4A13601F4B1B683DE0AFF3008016
:10198000666666666612714085EBE14004040020DD
:1019900000007A4408040020040000200000002019
:1019A0008FC2E7412506054100408F409A99593F73
:1019B0007003002000005E4033336B4100004E4056
:1019C000000040400000C8420800002000005940CC
:1019D000B09100089C0300200403002000007A431B
:1019E00000606A47EC910008CDCC4C3F0C0400200D
:1019F00010040020880300201846FEF715FD02465B
:101A00000B46A249A24804F059FBA148FEF7A0FBEF
:101A100003469AB232239E499E4803F05FFC9E4BD8
:101A20001B681846FEF700FD02460B469B49984886
:101A300004F044FB9648FEF78BFB03469AB2322330
:101A40009349944803F04AFC954B1B681846FEF7EF
:101A5000EBFC02460B4693498D4804F02FFB8C4863
:101A6000FEF776FB03469AB232238949894803F090
:101A700035FC8D4B1B681846FEF7D6FC02460B461C
:101A80008A49834804F01AFB8148FEF761FB03464C
:101A90009AB232237E497F4803F020FC844B1B68B6
:101AA0001846FEF7C1FC02460B468249784804F00E
:101AB00005FB7748FEF74CFB03469AB23223744984
:101AC000744803F00BFC7C4B1B681846FEF7ACFC1B
:101AD00002460B4679496E4804F0F0FA6C48FEF76E
:101AE00037FB03469AB2322369496A4803F0F6FB92
:101AF000786AFEF799FC02460B467149644804F087
:101B0000DDFA6348FEF724FB03469AB232236049AC
:101B1000604803F0E3FB6B495D4804F0CFFA5C4892
:101B2000FEF716FB03469AB232235949594803F08F
:101B3000D5FB386AFEF778FC02460B4662495448EA
:101B400004F0BCFA5248FEF703FB03469AB2322374
:101B50004F49504803F0C2FB5A494D4804F0AEFAD1
:101B60004B48FEF7F5FA03469AB2322348494948F2
:101B700003F0B4FBB869FEF757FC02460B46534925
:101B8000434804F09BFA4248FEF7E2FA03469AB251
:101B900032233F493F4803F0A1FB4D493C4804F044
:101BA0008DFA3B48FEF7D4FA03469AB232233849FD
:101BB000384803F093FBF868FEF736FC02460B4604
:101BC0004449334804F07AFA3148FEF7C1FA034633
:101BD0009AB232232E492F4803F080FB3E492C480D
:101BE00004F06CFA2A48FEF7B3FA03469AB232239D
:101BF0002749284803F072FB7868FEF715FC024677
:101C00000B463649224804F059FA2148FEF7A0FA5B
:101C100003469AB232231E491E4803F05FFB29494E
:101C20001B4804F04BFA1A48FEF792FA03469AB2A0
:101C300032231749174803F051FB294B1B681846FC
:101C4000FEF7F2FB02460B462649114804F036FA2D
:101C50000F48FEF77DFA03469AB232230C490D482D
:101C600003F03CFB1C490A4804F028FA0848FEF738
:101C70006FFA03469AB232230549064803F02EFB59
:101C8000642000F01DFFFFF765BB00BF3092000825
:101C90009C030020040300208C03002044920008D1
:101CA0009003002058920008940300206C920008D2
:101CB000980300208092000870030020949200088E
:101CC000A4920008B8920008C0920008E0920008B0
:101CD0000893000810930008309300083893000818
:101CE0000C0400206493000880B487B000AF034662
:101CF0000A46FB711346BB7100237B610023FB7412
:101D00000023FB8113E0FB79104A52F823307A69F3
:101D100013447B61FB7C0133FB7400233B8202E0B4
:101D20003B8A01333B823B8AB3F57A6FF8D3FA7C66
:101D3000BB799A42E7D3BB797A69B2FBF3F3FB81B3
:101D4000FB8918461C37BD4680BC70474C030020F9
:101D5000B0B584B000AF03460A46FB8013467B71E2
:101D60004FF00003FB607B79052B00F2AC8001A2F1
:101D700052F823F0C71E00088D1D0008C31D00087F
:101D8000F91D0008911E00082F1E0008FB88184648
:101D9000FEF738FB50A3D3E90023FEF79DFB024674
:101DA0000B46104619464EA3D3E90023FEF7DCF993
:101DB00002460B4610461946FEF786FE0346FB60B8
:101DC00082E0FB881846FEF71DFB47A3D3E90023FA
:101DD000FEF782FB02460B461046194644A3D3E9A0
:101DE0000023FEF7C1F902460B4610461946FEF7DE
:101DF0006BFE0346FB6067E0FB881846FEF702FBBC
:101E00003DA3D3E90023FEF767FB02460B461046CD
:101E100019463BA3D3E90023FEF7A8F902460B4677
:101E200010461946FEF750FE0346FB604CE0FB8867
:101E3000FA8802FB03F31846FEF7E4FA32A3D3E96B
:101E40000023FEF749FB02460B4614461D46FB885D
:101E50001846FEF7D7FA24A3D3E90023FEF73CFB8C
:101E600002460B4620462946FEF77EF902460B46FF
:101E70001046194626A3D3E90023FEF777F9024658
:101E80000B4610461946FEF71FFE0346FB601BE09B
:101E9000FB881846FEF7B6FA1FA3D3E90023FEF726
:101EA0001BFB02460B46104619461DA3D3E900232F
:101EB000FEF75AF902460B4610461946FEF704FE95
:101EC0000346FB6000E000BFFB6818461037BD46C4
:101ED000B0BD00BFAFF300809B559FABADD89F3F17
:101EE0005C8FC2F5281C3840F38E53742497AF3FA3
:101EF0003333333333733740D044D8F0F44A993F07
:101F0000C7BAB88D06F0F13FF168E388B5F8E43E52
:101F10008FC2F5285C1F5D401361C3D32B65993FC9
:101F2000355EBA490C52534080B485B000AF0346C9
:101F3000FB800B46BB8013467B800023FB81FA8825
:101F40007B889A4202D97B88FB8108E0FA88BB88AB
:101F50009A4202D2BB88FB8101E0FB88FB81FB89AE
:101F600018461437BD4680BC7047000090B589B054
:101F700000AF7860394B19467868FFF7ABF8034635
:101F8000002B01D0364B64E0364B19467868FFF7DA
:101F9000ABF80346002B01D0334B5AE00023FB770C
:101FA00052E0FB7F314A52F8333019467868FFF728
:101FB0009BF80346002B44D0FB7F01332B4A52F899
:101FC000333019467868FFF77BF80346002B38D08A
:101FD000FB7F264A52F83330BB61FB7F0133234A33
:101FE00052F833307B61FB7F204ADB0013445B688F
:101FF0003B61FB7F01331D4ADB0013445B68FB60E0
:10200000B9697868FEF7B4FD03461C463969F8687B
:10201000FEF7AEFD034619462046FEF7B3FE034623
:102020001C46B9697869FEF7A3FD034619462046A8
:10203000FEF75CFF034639691846FEF79BFD034631
:1020400007E0FB7F0133FB77FB7F082BA9D94FF01B
:102050007E5318462437BD4690BD00BF0000A0C186
:102060006666E63F0000B44248E17A3F8C93000880
:1020700080B584B000AF7860074B1B681846FFF747
:1020800075FFF860F9687868FEF77CFE034618462D
:102090001037BD4680BD00BF9803002080B594B0C6
:1020A00000AF07F1280328220021184604F06BF83E
:1020B00007F1140300221A605A609A60DA601A610C
:1020C0003B1D00221A605A609A60DA600123BB62ED
:1020D0004FF48033FB6200233B630123BB63022385
:1020E0007B644FF48033BB644FF4E013FB6407F16F
:1020F0002803184601F032FE0346002B01D000F001
:1021000023FA0F237B610223BB610023FB614FF4A1
:1021100080633B624FF4A0637B6207F114030221EA
:10212000184602F09DF80346002B01D000F00CFA8F
:1021300002237B600023FB603B1D184602F01EFA61
:102140000346002B01D000F0FFF900BF5037BD4619
:1021500080BD000080B584B000AF3B1D00221A6036
:102160005A609A60354B364A1A60344B4FF480728D
:102170009A60324B01221A73304B00221A752F4B92
:102180004FF46022DA612D4B00225A602B4B05225E
:102190001A612A4800F0B8FC0346002B01D000F079
:1021A000D3F900237B600123BB600523FB603B1D4B
:1021B0001946224800F07AFE0346002B01D000F0B9
:1021C000C3F901237B600223BB603B1D19461B48FA
:1021D00000F06CFE0346002B01D000F0B5F902239D
:1021E0007B600323BB603B1D1946144800F05EFE74
:1021F0000346002B01D000F0A7F903237B600423E2
:10220000BB603B1D19460D4800F050FE0346002BF5
:1022100001D000F099F904237B600523BB603B1DCE
:102220001946064800F042FE0346002B01D000F09C
:102230008BF900BF1037BD4680BD00BF00020020F3
:102240000024014080B58CB000AF07F120030022CC
:102250001A605A609A60DA6007F10C0300221A6073
:102260005A609A60DA601A613B1D00221A605A6057
:10227000254B4FF080421A60234B47225A60224B75
:1022800000229A60204B4FF6FF72DA601E4B00224C
:102290001A611D4B00229A611B4802F0DBFA0346CB
:1022A000002B01D000F050F94FF480533B6207F14E
:1022B00020031946144802F08DFC0346002B01D080
:1022C00000F042F90023FB6000233B6107F10C039F
:1022D00019460D4802F045FD0346002B01D000F0E1
:1022E00033F900237B600023BB603B1D1946064881
:1022F00002F034FF0346002B01D000F025F900BFA7
:102300003037BD4680BD00BF7402002080B58CB060
:1023100000AF07F1200300221A605A609A60DA6069
:1023200007F10C0300221A605A609A60DA601A61A1
:102330003B1D00221A605A60254B264A1A60244B26
:1023400040F2CF225A60224B00229A60204B4FF677
:10235000FF72DA601E4B00221A611D4B00229A6147
:102360001B4802F077FA0346002B01D000F0ECF88E
:102370004FF480533B6207F120031946144802F0E2
:1023800029FC0346002B01D000F0DEF80023FB609F
:1023900000233B6107F10C0319460D4802F0E1FCF4
:1023A0000346002B01D000F0CFF800237B60002310
:1023B000BB603B1D1946064802F0D0FE0346002BC9
:1023C00001D000F0C1F800BF3037BD4680BD00BF6E
:1023D000BC0200200004004080B500AF114B124A3F
:1023E0001A60104B4FF4E1325A600E4B00229A6093
:1023F0000C4B0022DA600B4B00221A61094B0C22B5
:102400005A61084B00229A61064B0022DA610548A6
:1024100002F014FF0346002B01D000F095F800BF36
:1024200080BD00BF040300200038014080B582B0A9
:1024300000AF0C4B5B690B4A43F001035361094B3E
:102440005B6903F001037B607B68002200210B20A5
:1024500001F0ABF80B2001F0C4F800BF0837BD460F
:1024600080BD00BF0010024080B588B000AF07F10A
:10247000100300221A605A609A60DA602E4B9B6942
:102480002D4A43F0100393612B4B9B6903F010031B
:10249000FB60FB68284B9B69274A43F0200393614C
:1024A000254B9B6903F02003BB60BB68224B9B69F3
:1024B000214A43F0040393611F4B9B6903F004031B
:1024C0007B607B681C4B9B691B4A43F0080393614C
:1024D000194B9B6903F008033B603B6800224FF4F3
:1024E0000051164801F00AFC4FF400533B610123F0
:1024F0007B610023BB610223FB6107F110031946D6
:102500000E4801F077FA4FF480533B610C4B7B612E
:102510000023BB6107F1100319460A4801F06AFA6B
:1025200000220021282001F040F8282001F059F86D
:1025300000BF2037BD4680BD0010024000100140A2
:1025400000001110000C014080B400AF72B600BF53
:1025500000BFFDE780B485B000AF154B9B69144AFE
:1025600043F001039361124B9B6903F00103BB60CD
:10257000BB680F4BDB690E4A43F08053D3610C4BB1
:10258000DB6903F080537B607B680A4B5B68FB6010
:10259000FB6823F0E063FB60FB6843F08063FB6053
:1025A000044AFB68536000BF1437BD4680BC7047C7
:1025B000001002400000014080B588B000AF786094
:1025C00007F1100300221A605A609A60DA607B6893
:1025D0001B68284A934249D1274B9B69264A43F4FA
:1025E00000739361244B9B6903F40073FB60FB68E9
:1025F000214B9B69204A43F0040393611E4B9B6966
:1026000003F00403BB60BB681F233B6103237B61B2
:1026100007F110031946194801F0ECF9184B194A53
:102620001A60174B00225A60154B00229A60144B17
:102630008022DA60124B4FF400721A61104B4FF493
:1026400000625A610E4B20229A610D4B0022DA6122
:102650000B4800F0E1FF0346002B01D0FFF774FFA9
:102660007B68074A1A62064A7B68536200BF2037BC
:10267000BD4680BD0024014000100240000801401A
:10268000300200200800024080B584B000AF7860BE
:102690007B681B68B3F1804F0CD1154BDB69144A82
:1026A00043F00103D361124BDB6903F00103FB60CC
:1026B000FB6818E07B681B680E4A934213D10C4BF1
:1026C000DB690B4A43F00203D361094BDB6903F07A
:1026D0000203BB60BB68002200211D2000F065FFE3
:1026E0001D2000F07EFF00BF1037BD4680BD00BF3B
:1026F000001002400004004080B588B000AF786050
:1027000007F1100300221A605A609A60DA607B6851
:102710001B681C4A934231D11B4B9B691A4A43F4F4
:1027200080439361184B9B6903F48043FB60FB6813
:10273000154B9B69144A43F004039361124B9B6948
:1027400003F00403BB60BB684FF400733B610223DA
:102750007B610323FB6107F1100319460B4801F06D
:1027600049F94FF480633B6100237B610023BB6127
:1027700007F110031946054801F03CF900BF203766
:10278000BD4680BD003801400010024000080140F5
:1027900080B400AF00BFFDE780B400AF00BFFDE72D
:1027A00080B400AF00BFFDE780B400AF00BFFDE71D
:1027B00080B400AF00BFFDE780B400AF00BFBD46EE
:1027C00080BC704780B400AF00BFBD4680BC70477E
:1027D00080B400AF00BFBD4680BC704780B500AF7D
:1027E00000F052F900BF80BD80B500AF024800F094
:1027F000CDFF00BF80BD00BF3002002080B500AF1C
:10280000024802F0F7F800BF80BD00BFBC02002004
:1028100080B500AF4FF4805001F088FA00BF80BD52
:1028200080B400AF01231846BD4680BC704780B518
:1028300082B000AF7860396003F0F8FC03461622DE
:102840001A604FF0FF3318460837BD4680BD80B58B
:1028500082B000AF78604FF0FF317868FFF7E7FF94
:1028600000BFFDE780B586B000AFF860B9607A6060
:1028700000237B610AE0AFF300800146BB685A1C6D
:10288000BA60CAB21A707B6901337B617A697B686E
:102890009A42F0DB7B6818461837BD4680BD80B58C
:1028A00086B000AFF860B9607A6000237B6109E010
:1028B000BB685A1CBA601B781846AFF300807B696E
:1028C00001337B617A697B689A42F1DB7B68184649
:1028D0001837BD4680BD80B483B000AF78604FF03C
:1028E000FF3318460C37BD4680BC704780B483B0B8
:1028F00000AF786039603B684FF400525A600023A3
:1029000018460C37BD4680BC704780B483B000AF1A
:102910007860012318460C37BD4680BC704780B4F0
:1029200085B000AFF860B9607A60002318461437AC
:10293000BD4680BC7047000080B586B000AF7860AF
:10294000144A154BD31A7B617B693B61134B1B689F
:10295000002B02D1114B124A1A60104B1A687B6887
:1029600013443A699A4207D203F060FC03460C22F2
:102970001A604FF0FF3309E0084B1B68FB60074B00
:102980001A687B681344054A1360FB6818461837B9
:10299000BD4680BD0050002000040000140400204B
:1029A0006805002080B400AF00BFBD4680BC704702
:1029B000FFF7F8FF0B480C490C4A002302E0D458FB
:1029C000C4500433C4188C42F9D3094A094C00237B
:1029D00001E013600432A242FBD303F02DFCFEF7AA
:1029E0008BFC704700000020E4010020E097000805
:1029F000E401002068050020FEE7000080B500AF7C
:102A0000084B1B68074A43F010031360032000F0D3
:102A1000C1FD0F2000F008F8FFF79CFD00231846C9
:102A200080BD00BF0020024080B582B000AF78605A
:102A3000124B1A68124B1B7819464FF47A73B3FB8A
:102A4000F1F3B2FBF3F3184600F0D9FD0346002B77
:102A500001D001230EE07B680F2B0AD80022796891
:102A60004FF0FF3000F0A1FD064A7B6813600023A1
:102A700000E0012318460837BD4680BD1000002045
:102A8000180000201400002080B400AF054B1B7814
:102A90001A46054B1B681344034A136000BFBD462A
:102AA00080BC7047180000201804002080B400AFDC
:102AB000024B1B681846BD4680BC704718040020B6
:102AC00080B584B000AF7860FFF7F0FFB8607B6836
:102AD000FB60FB68B3F1FF3F05D00A4B1B781A4639
:102AE000FB681344FB6000BFFFF7E0FF0246BB68D2
:102AF000D31AFA689A42F7D800BF00BF1037BD4614
:102B000080BD00BF1800002080B586B000AF78609F
:102B10000023FB7500233B610023BB600023FB60A7
:102B20007B68002B01D10123BEE07B689B68002BF2
:102B30007B689B6A002B09D17B680022DA627B6884
:102B4000002283F824207868FFF736FD786800F0CB
:102B5000FFFA0346FB757B689B6A03F01003002BAA
:102B600040F09980FB7D002B40F095807B689B6A4C
:102B700023F4885323F0020343F002027B689A6235
:102B80007B685A687B68DB691A437B681B7B5B0048
:102B90001343BA681343BB607B689B68B3F5807FBF
:102BA00003D07B689B68012B02D14FF4807300E057
:102BB00000233A6913433B617B681B7D012B19D1CC
:102BC0007B681B7B002B09D17B689B69013B5A0307
:102BD0003B69134343F400633B610BE07B689B6AF2
:102BE00043F020027B689A627B68DB6A43F0010253
:102BF0007B68DA627B681B685B6823F469417B68E9
:102C00001B683A690A435A607B681B689A68284BBC
:102C100013407A681268B9680B4393607B689B68BD
:102C2000B3F5807F03D07B689B68012B04D17B6860
:102C30001B69013B1B05FB607B681B68DB6A23F497
:102C400070017B681B68FA680A43DA627B681B685C
:102C50009A68184B1340BA689A420BD17B680022DD
:102C6000DA627B689B6A23F0030343F001027B680E
:102C70009A6218E07B689B6A23F0120343F010020B
:102C80007B689A627B68DB6A43F001027B68DA62E8
:102C90000123FB7507E07B689B6A43F010027B68A9
:102CA0009A620123FB75FB7D18461837BD4680BD2F
:102CB000FDF7E1FFFE0E1FFF80B586B000AFF860A4
:102CC000B9607A600023FB75FB681B68644A934215
:102CD00004D0FB681B68634A934206D1604B5B6873
:102CE00003F47023002B40F0B380FB6893F824308A
:102CF000012B01D10223AEE0FB68012283F82420DE
:102D0000F86800F0CBF90346FB75FB7D002B40F023
:102D10009A80FB689B6A23F4706323F0010343F4F9
:102D20008072FB689A62FB681B684E4A934205D129
:102D30004B4B5B6803F47023002B15D1FB689B6A37
:102D400023F48012FB689A62FB681B685B6803F4DB
:102D50008063002B26D0FB689B6A23F4405343F426
:102D60008052FB689A621DE0FB689B6A43F4801204
:102D7000FB689A62FB681B68394A934204D0FB687F
:102D80001B68384A93420DD1354B5B6803F480636E
:102D9000002B07D0FB689B6A23F4405343F4805216
:102DA000FB689A62FB689B6A03F48053002B06D091
:102DB000FB68DB6A23F00602FB68DA6202E0FB686C
:102DC0000022DA62FB68002283F82420FB681B6A79
:102DD000254A9A62FB681B6A244ADA62FB681B6A0E
:102DE000234A1A63FB681B686FF002021A60FB68D3
:102DF0001B689A68FB681B6842F480729A60FB68E3
:102E0000186AFB681B684C331946BA687B6800F087
:102E10005DFCFB681B689B6803F46023B3F5602FBF
:102E200008D1FB681B689A68FB681B6842F4A00223
:102E30009A600FE0FB681B689A68FB681B6842F4A5
:102E400080129A6006E0FB68002283F8242001E0EB
:102E50000123FB75FB7D18461837BD4680BD00BFBA
:102E60000024014000280140D33100084F320008FF
:102E70006B32000880B483B000AF786000BF0C37BD
:102E8000BD4680BC704780B483B000AF786000BF9F
:102E90000C37BD4680BC704780B483B000AF78600B
:102EA00000BF0C37BD4680BC7047000080B485B0C1
:102EB00000AF786039600023FB730023BB607B6840
:102EC00093F82430012B01D10223DCE07B6801223E
:102ED00083F824203B685B68062B1CD87B681B6842
:102EE000596B3B685A6813469B001344053B1F22ED
:102EF00002FA03F3DB4319403B6818683B685A68E1
:102F000013469B001344053B00FA03F27B681B68E1
:102F10000A435A633CE03B685B680C2B1CD87B6817
:102F20001B68196B3B685A6813469B001344233B8C
:102F30001F2202FA03F3DB4319403B6818683B6821
:102F40005A6813469B001344233B00FA03F27B6844
:102F50001B680A431A631BE07B681B68D96A3B68DD
:102F60005A6813469B001344413B1F2202FA03F3A5
:102F7000DB4319403B6818683B685A6813469B005E
:102F80001344413B00FA03F27B681B680A43DA6290
:102F90003B681B68092B1CD97B681B68D9683B6898
:102FA0001A6813465B0013441E3B072202FA03F320
:102FB000DB4319403B6898683B681A6813465B001E
:102FC00013441E3B00FA03F27B681B680A43DA6075
:102FD00019E07B681B6819693B681A6813465B0037
:102FE0001344072202FA03F3DB4319403B68986855
:102FF0003B681A6813465B00134400FA03F27B68CF
:103000001B680A431A613B681B68102B03D03B689E
:103010001B68112B32D17B681B681D4A934225D156
:103020007B681B689B6803F40003002B26D17B6838
:103030001B689A687B681B6842F400029A603B68D0
:103040001B68102B1AD1134B1B68134AA2FB0323D6
:103050009A0C13469B0013445B00BB6002E0BB6804
:10306000013BBB60BB68002BF9D107E07B689B6A22
:1030700043F020027B689A620123FB737B68002285
:1030800083F82420FB7B18461437BD4680BC70476C
:10309000002401401000002083DE1B4380B584B073
:1030A00000AF78600023FB600023BB607B681B6877
:1030B0009B6803F00103012B40D07B681B689A6872
:1030C0007B681B6842F001029A601F4B1B681F4A15
:1030D000A2FB03239B0CBB6002E0BB68013BBB600F
:1030E000BB68002BF9D1FFF7E1FCF8601FE0FFF7A8
:1030F000DDFC0246FB68D31A022B18D97B681B68DB
:103100009B6803F00103012B11D07B689B6A43F09D
:1031100010027B689A627B68DB6A43F001027B687D
:10312000DA627B68002283F82420012307E07B68B1
:103130001B689B6803F00103012BD8D100231846BC
:103140001037BD4680BD00BF1000002083DE1B434A
:1031500080B584B000AF78600023FB607B681B689B
:103160009B6803F00103012B2ED17B681B689A68D2
:103170007B681B6822F001029A60FFF797FCF860F9
:103180001BE0FFF793FC0246FB68D31A022B14D90D
:103190007B681B689B6803F00103012B0DD17B68E2
:1031A0009B6A43F010027B689A627B68DB6A43F09B
:1031B00001027B68DA62012307E07B681B689B6879
:1031C00003F00103012BDCD0002318461037BD4665
:1031D00080BD80B584B000AF78607B685B6AFB60BF
:1031E000FB689B6A03F05003002B27D1FB689B6AA6
:1031F00043F40072FB689A62FB681B689B6803F4E7
:103200006023B3F5602F15D1FB681B7B002B11D118
:10321000FB689B6A23F48072FB689A62FB689B6A76
:1032200003F48053002B05D1FB689B6A43F0010235
:10323000FB689A62F868FFF71DFE04E0FB681B6AF2
:103240001B6B7868984700BF1037BD4680BD80B5BE
:1032500084B000AF78607B685B6AFB60F868FFF75A
:1032600012FE00BF1037BD4680BD80B584B000AFF0
:1032700078607B685B6AFB60FB689B6A43F0400296
:10328000FB689A62FB68DB6A43F00402FB68DA625F
:10329000F868FFF701FE00BF1037BD4680BD000093
:1032A00090B587B000AF78600023FB750023FB600A
:1032B0007B6893F82430012B01D1022397E07B68CF
:1032C000012283F824207868FFF742FF0346FB754C
:1032D0007868FFF7E3FE0346FB75FB7D002B40F0AB
:1032E00081807B689B6A23F4885323F0020343F0B8
:1032F00002027B689A62404B1C68022001F0F4F9DC
:103300000346B4FBF3F35B00FB6002E0FB68013BA8
:10331000FB60FB68002BF9D17B681B689A687B68AF
:103320001B6842F008029A60FFF7C0FB38611BE09F
:10333000FFF7BCFB02463B69D31A0A2B14D97B6802
:103340001B689B6803F00803002B0DD07B689B6A09
:1033500023F0120343F010027B689A627B6800221C
:1033600083F82420012342E07B681B689B6803F0FC
:103370000803002BDCD17B681B689A687B681B689C
:1033800042F004029A60FFF791FB38611BE0FFF7FF
:103390008DFB02463B69D31A0A2B14D97B681B6844
:1033A0009B6803F00403002B0DD07B689B6A23F01D
:1033B000120343F010027B689A627B68002283F854
:1033C0002420012313E07B681B689B6803F004033F
:1033D000002BDCD17B689B6A23F0030343F00102DE
:1033E0007B689A627B68002283F82420FB7D184664
:1033F0001C37BD4690BD00BF1000002080B485B0D2
:1034000000AF78607B6803F00703FB600C4BDB6860
:10341000BB60BA684FF6FF031340BB60FB681A023B
:10342000BB68134343F0BF6343F40033BB60044AFB
:10343000BB68D36000BF1437BD4680BC704700BF77
:1034400000ED00E080B400AF044BDB681B0A03F022
:1034500007031846BD4680BC704700BF00ED00E082
:1034600080B483B000AF0346FB7197F90730002B9F
:103470000BDBFB7903F01F02064997F907305B0964
:10348000012000FA02F241F8232000BF0C37BD46AC
:1034900080BC704700E100E080B483B000AF034619
:1034A0003960FB7197F90730002B0ADB3B68DAB211
:1034B0000C4997F907301201D2B20B4483F800236C
:1034C0000AE03B68DAB20849FB7903F00F03043BDA
:1034D0001201D2B20B441A7600BF0C37BD4680BC35
:1034E000704700BF00E100E000ED00E080B489B06B
:1034F00000AFF860B9607A60FB6803F00703FB6116
:10350000FB69C3F10703042B28BF0423BB61FB69DC
:103510000433062B02D9FB69033B00E000237B61E7
:103520004FF0FF32BB6902FA03F3DA43BB681A407B
:103530007B699A404FF0FF317B6901FA03F3D9436D
:103540007B680B40134318462437BD4680BC704748
:1035500080B582B000AF78607B68013BB3F1807FBB
:1035600001D301230FE00A4A7B68013B53600F211E
:103570004FF0FF30FFF790FF054B00229A60044B9D
:1035800007221A60002318460837BD4680BD00BFD9
:1035900010E000E080B582B000AF78607868FFF797
:1035A0002DFF00BF0837BD4680BD80B586B000AF97
:1035B0000346B9607A60FB7300237B61FFF742FF2B
:1035C00078617A68B9687869FFF790FF024697F9E1
:1035D0000F3011461846FFF75FFF00BF1837BD4692
:1035E00080BD80B582B000AF0346FB7197F907300C
:1035F0001846FFF735FF00BF0837BD4680BD80B5D0
:1036000082B000AF78607868FFF7A2FF03461846E3
:103610000837BD4680BD000080B485B000AF78603B
:103620000023FB607B68002B01D1012343E07B6812
:103630001B681A46224B1344224AA2FB03231B0990
:103640009A007B681A647B681F4ADA637B680222EF
:1036500083F821207B681B681B68FB60FB6823F4F0
:103660007F5323F03003FB607B685A687B689B685C
:103670001A437B68DB681A437B681B691A437B68C3
:103680005B691A437B689B691A437B68DB69134358
:10369000FA681343FB607B681B68FA681A607B68F2
:1036A00000229A637B68012283F821207B68002234
:1036B00083F82020002318461437BD4680BC70478D
:1036C000F8FFFDBFCDCCCCCC0000024080B586B069
:1036D00000AFF860B9607A603B600023FB75FB685F
:1036E00093F82030012B01D102234BE0FB6801222B
:1036F00083F82020FB6893F82130DBB2012B3AD10C
:10370000FB68022283F82120FB6800229A63FB6891
:103710001B681A68FB681B6822F001021A603B688C
:103720007A68B968F86800F037F9FB68DB6A002B43
:1037300008D0FB681B681A68FB681B6842F00E0221
:103740001A600FE0FB681B681A68FB681B6822F0B0
:1037500004021A60FB681B681A68FB681B6842F069
:103760000A021A60FB681B681A68FB681B6842F053
:1037700001021A6005E0FB68002283F82020022382
:10378000FB75FB7D18461837BD4680BD80B584B0FB
:1037900000AF78607B68DB6B1B68FB607B681B6835
:1037A0001B68BB607B681B6C04229A40FB6813405B
:1037B000002B4FD0BB6803F00403002B4AD07B687A
:1037C0001B681B6803F02003002B07D17B681B6874
:1037D0001A687B681B6822F004021A607B681B6809
:1037E000664A934229D07B681B68654A934222D07F
:1037F0007B681B68634A93421AD07B681B68624AE5
:10380000934212D07B681B68604A93420AD07B685F
:103810001B685F4A934202D14FF480030EE04FF0E1
:1038200080630BE04FF4802308E04FF4804305E011
:103830004FF4806302E0402300E00423554A5360C4
:103840007B68DB6A002B00F094807B68DB6A786819
:1038500098478EE07B681B6C02229A40FB681340FD
:10386000002B56D0BB6803F00203002B51D07B68BD
:103870001B681B6803F02003002B0BD17B681B68BF
:103880001A687B681B6822F00A021A607B680122B2
:1038900083F821207B681B68384A934229D07B68D3
:1038A0001B68374A934222D07B681B68354A934293
:1038B0001AD07B681B68344A934212D07B681B681D
:1038C000324A93420AD07B681B68314A934202D144
:1038D0004FF400130EE04FF000730BE04FF4003391
:1038E00008E04FF4005305E04FF4007302E020239A
:1038F00000E00223274A53607B68002283F82020DF
:103900007B689B6A002B34D07B689B6A78689847F9
:103910002FE07B681B6C08229A40FB681340002B49
:1039200028D0BB6803F00803002B23D07B681B68FA
:103930001A687B681B6822F00E021A607B681A6C9A
:103940007B68DB6B012101FA02F25A607B6801227D
:103950009A637B68012283F821207B68002283F828
:1039600020207B681B6B002B04D07B681B6B786866
:10397000984700BF00BF1037BD4680BD0800024019
:103980001C00024030000240440002405800024047
:103990006C0002400000024080B485B000AFF860C7
:1039A000B9607A603B60FB681A6CFB68DB6B0121D5
:1039B00001FA02F25A60FB681B683A685A60FB68B9
:1039C0005B68102B08D1FB681B687A689A60FB68FB
:1039D0001B68BA68DA6007E0FB681B68BA689A601F
:1039E000FB681B687A68DA6000BF1437BD4680BC8C
:1039F0007047000080B48BB000AF7860396000235E
:103A00007B6200233B6269E101227B6A02FA03F3D5
:103A1000FB613B681B68FA691340BB61BA69FB69CB
:103A20009A4240F058813B685B689A4A93425ED064
:103A3000984A934275D8984A934258D0964A9342EE
:103A40006FD8964A934252D0944A934269D8944A86
:103A500093424CD0924A934263D8924A934246D0C2
:103A6000904A93425DD8122B2AD8122B59D801A222
:103A700052F823F0EF3A0008C93A0008DB3A000890
:103A80001D3B0008233B0008233B0008233B0008A4
:103A9000233B0008233B0008233B0008233B00088E
:103AA000233B0008233B0008233B0008233B00087E
:103AB000233B0008233B0008D13A0008E53A000800
:103AC000794A934213D02CE03B68DB683B6229E0E3
:103AD0003B68DB6804333B6224E03B68DB68083307
:103AE0003B621FE03B68DB680C333B621AE03B68DB
:103AF0009B68002B02D104233B6213E03B689B6868
:103B0000012B05D108233B627B68FA691A6109E041
:103B100008233B627B68FA695A6103E000233B6239
:103B200000E000BFBB69FF2B01D87B6801E07B6828
:103B300004337B61BB69FF2B02D87B6A9B0002E0E8
:103B40007B6A083B9B003B617B691A680F213B69DC
:103B500001FA03F3DB431A40396A3B6901FA03F3C4
:103B60001A437B691A603B685B6803F08053002B43
:103B700000F0B1804D4B9B694C4A43F001039361C7
:103B80004A4B9B6903F00103BB60BB68484A7B6AF0
:103B90009B08023352F82330FB607B6A03F0030377
:103BA0009B000F2202FA03F3DB43FA681340FB6029
:103BB0007B68404A934213D07B683F4A93420DD0C2
:103BC0007B683E4A934207D07B683D4A934201D1CD
:103BD000032306E0042304E0022302E0012300E0C3
:103BE00000237A6A02F0030292009340FA681343BA
:103BF000FB602F497B6A9B080233FA6841F8232057
:103C00003B685B6803F48013002B06D02D4B9A6849
:103C10002C49BB6913438B6006E02A4B9A68BB6949
:103C2000DB43284913408B603B685B6803F4001357
:103C3000002B06D0234BDA682249BB691343CB60C3
:103C400006E0204BDA68BB69DB431E491340CB60BA
:103C50003B685B6803F40033002B06D0194B5A68AD
:103C60001849BB6913434B6006E0164B5A68BB69A1
:103C7000DB43144913404B603B685B6803F48033BB
:103C8000002B21D00F4B1A680E49BB6913430B6000
:103C900021E000BF000032100000311000002210AF
:103CA000000021100000121000001110001002404E
:103CB0000000014000080140000C014000100140DC
:103CC00000140140000401400B4B1A68BB69DB4340
:103CD000094913400B607B6A01337B623B681A68B9
:103CE0007B6A22FA03F3002B7FF48EAE00BF00BF85
:103CF0002C37BD4680BC70470004014080B483B0BF
:103D000000AF78600B467B8013467B707B78002B7E
:103D100003D07A887B681A6103E07B881A047B6889
:103D20001A6100BF0C37BD4680BC704780B582B0B9
:103D300000AF0346FB80084B5A69FB881340002BF9
:103D400006D0054AFB885361FB881846FDF7FCF94D
:103D500000BF0837BD4680BD0004014080B586B075
:103D600000AF78607B68002B01D1012372E27B6891
:103D70001B6803F00103002B00F08780924B5B6807
:103D800003F00C03042B0CD08F4B5B6803F00C0387
:103D9000082B12D18C4B5B6803F48033B3F5803F62
:103DA0000BD1894B1B6803F40033002B6CD07B686C
:103DB0005B68002B68D101234CE27B685B68B3F53C
:103DC000803F06D1804B1B687F4A43F480331360E9
:103DD0002EE07B685B68002B0CD17B4B1B687A4A1A
:103DE00023F480331360784B1B68774A23F48023D5
:103DF00013601DE07B685B68B3F5A02F0CD1724B9C
:103E00001B68714A43F4802313606F4B1B686E4A32
:103E100043F4803313600BE06B4B1B686A4A23F456
:103E200080331360684B1B68674A23F48023136058
:103E30007B685B68002B13D0FEF738FE386108E022
:103E4000FEF734FE02463B69D31A642B01D90323E3
:103E500000E25D4B1B6803F40033002BF0D014E04C
:103E6000FEF724FE386108E0FEF720FE02463B69BB
:103E7000D31A642B01D90323ECE1534B1B6803F4E1
:103E80000033002BF0D100E000BF7B681B6803F01B
:103E90000203002B63D04C4B5B6803F00C03002B38
:103EA0000BD0494B5B6803F00C03082B1CD1464B2D
:103EB0005B6803F48033002B16D1434B1B6803F07F
:103EC0000203002B05D07B681B69012B01D0012365
:103ED000C0E13D4B1B6823F0F8027B685B69DB00A7
:103EE000394913430B603AE07B681B69002B20D0F3
:103EF000364B01221A60FEF7D9FD386108E0FEF763
:103F0000D5FD02463B69D31A022B01D90323A1E157
:103F10002D4B1B6803F00203002BF0D02A4B1B68CB
:103F200023F0F8027B685B69DB00274913430B60D1
:103F300015E0264B00221A60FEF7B8FD386108E054
:103F4000FEF7B4FD02463B69D31A022B01D90323C5
:103F500080E11D4B1B6803F00203002BF0D17B684E
:103F60001B6803F00803002B3AD07B689B69002B89
:103F700019D0174B01221A60FEF798FD386108E04E
:103F8000FEF794FD02463B69D31A022B01D90323A5
:103F900060E10D4B5B6A03F00203002BF0D00120BF
:103FA00000F0CEFA1CE00A4B00221A60FEF77EFDFC
:103FB00038610FE0FEF77AFD02463B69D31A022B07
:103FC00008D9032346E100BF00100240000042422E
:103FD00080044242924B5B6A03F00203002BE9D15A
:103FE0007B681B6803F00403002B00F0A68000230D
:103FF000FB758B4BDB6903F08053002B0DD1884B95
:10400000DB69874A43F08053D361854BDB6903F05A
:104010008053BB60BB680123FB75824B1B6803F4B4
:104020008073002B18D17F4B1B687E4A43F480734A
:104030001360FEF73BFD386108E0FEF737FD0246EE
:104040003B69D31A642B01D9032303E1754B1B6829
:1040500003F48073002BF0D07B68DB68012B06D162
:104060006F4B1B6A6E4A43F0010313622DE07B68BD
:10407000DB68002B0CD16A4B1B6A694A23F00103F1
:104080001362674B1B6A664A23F0040313621CE049
:104090007B68DB68052B0CD1614B1B6A604A43F0DF
:1040A000040313625E4B1B6A5D4A43F00103136213
:1040B0000BE05B4B1B6A5A4A23F001031362584B17
:1040C0001B6A574A23F0040313627B68DB68002BEA
:1040D00015D0FEF7EBFC38610AE0FEF7E7FC02467C
:1040E0003B69D31A41F28832934201D90323B1E0EC
:1040F0004B4B1B6A03F00203002BEED014E0FEF7DB
:10410000D5FC38610AE0FEF7D1FC02463B69D31AC0
:1041100041F28832934201D903239BE0404B1B6A52
:1041200003F00203002BEED1FB7D012B05D13C4BAC
:10413000DB693B4A23F08053D3617B68DB69002B4A
:1041400000F08780364B5B6803F00C03082B61D0CE
:104150007B68DB69022B46D1334B00221A60FEF7E5
:10416000A5FC386108E0FEF7A1FC02463B69D31AC2
:10417000022B01D903236DE0294B1B6803F0007368
:10418000002BF0D17B681B6AB3F5803F08D1244B2C
:104190005B6823F400327B689B68214913434B60C2
:1041A0001F4B5B6823F474127B68196A7B685B6A37
:1041B0000B431B4913434B601B4B01221A60FEF754
:1041C00075FC386108E0FEF771FC02463B69D31AC2
:1041D000022B01D903233DE0114B1B6803F0007350
:1041E000002BF0D035E0104B00221A60FEF75EFC89
:1041F000386108E0FEF75AFC02463B69D31A022BED
:1042000001D9032326E0064B1B6803F00073002B43
:10421000F0D11EE07B68DB69012B07D1012319E097
:104220000010024000700040600042420B4B5B688F
:10423000FB60FB6803F480327B681B6A9A4206D1FC
:10424000FB6803F470127B685B6A9A4201D0012319
:1042500000E0002318461837BD4680BD001002401C
:1042600080B584B000AF786039607B68002B01D1E5
:104270000123D0E06A4B1B6803F007033A689A42B7
:1042800010D9674B1B6823F0070265493B6813434D
:104290000B60634B1B6803F007033A689A4201D036
:1042A0000123B8E07B681B6803F00203002B20D0D9
:1042B0007B681B6803F00403002B05D0594B5B6837
:1042C000584A43F4E06353607B681B6803F00803BB
:1042D000002B05D0534B5B68524A43F46053536044
:1042E000504B5B6823F0F0027B689B684D49134399
:1042F0004B607B681B6803F00103002B40D07B6898
:104300005B68012B07D1474B1B6803F40033002B7C
:1043100015D101237FE07B685B68022B07D1414BFD
:104320001B6803F00073002B09D1012373E03D4BA0
:104330001B6803F00203002B01D101236BE0394B12
:104340005B6823F003027B685B68364913434B606C
:10435000FEF7ACFBF8600AE0FEF7A8FB0246FB683C
:10436000D31A41F28832934201D9032353E02D4BF3
:104370005B6803F00C027B685B689B009A42EBD1A0
:10438000274B1B6803F007033A689A4210D2244B6C
:104390001B6823F0070222493B6813430B60204B44
:1043A0001B6803F007033A689A4201D0012332E008
:1043B0007B681B6803F00403002B08D0194B5B6873
:1043C00023F4E0627B68DB68164913434B607B682B
:1043D0001B6803F00803002B09D0124B5B6823F421
:1043E00060527B681B69DB000E4913434B6000F091
:1043F00021F802460B4B5B681B0903F00F030A49C7
:10440000CB5C22FA03F3094A1360094B1B68184678
:10441000FEF70AFB002318461037BD4680BD00BFDB
:104420000020024000100240DC9300081000002031
:104430001400002080B487B000AF0023FB6000238D
:10444000BB6000237B6100237B6000233B611E4B2C
:104450005B68FB60FB6803F00C03042B02D0082BA5
:1044600003D027E0194B3B6127E0FB689B0C03F06E
:104470000F03174AD35C7B60FB6803F48033002B87
:1044800010D0114B5B685B0C03F00103114AD35C45
:10449000BB607B680D4A03FB02F2BB68B2FBF3F31F
:1044A0007B6104E07B680C4A02FB03F37B617B6960
:1044B0003B6102E0054B3B6100BF3B6918461C377E
:1044C000BD4680BC704700BF0010024000127A0059
:1044D000F49300080494000800093D0080B400AF84
:1044E000024B1B681846BD4680BC70471000002078
:1044F00080B500AFFFF7F2FF0246054B5B681B0A71
:1045000003F007030349CB5C22FA03F3184680BD8E
:1045100000100240EC93000880B500AFFFF7DEFF0B
:104520000246054B5B68DB0A03F007030349CB5CDB
:1045300022FA03F3184680BD00100240EC930008F5
:1045400080B485B000AF78600A4B1B680A4AA2FBB2
:1045500003235B0A7A6802FB03F3FB6000BFFB687E
:104560005A1EFA60002BF9D100BF00BF1437BD46B8
:1045700080BC704710000020D34D621080B586B01B
:1045800000AF786000233B610023FB607B681B6801
:1045900003F00103002B7DD00023FB754F4BDB693B
:1045A00003F08053002B0DD14C4BDB694B4A43F099
:1045B0008053D361494BDB6903F08053BB60BB6818
:1045C0000123FB75464B1B6803F48073002B18D145
:1045D000434B1B68424A43F480731360FEF766FA4C
:1045E000386108E0FEF762FA02463B69D31A642B91
:1045F00001D903236DE03A4B1B6803F48073002B51
:10460000F0D0364B1B6A03F44073FB60FB68002B51
:104610002ED07B685B6803F44073FA689A4227D017
:104620002E4B1B6A23F44073FB602E4B01221A6051
:104630002C4B00221A60294AFB681362FB6803F0C6
:104640000103002B14D0FEF731FA38610AE0FEF7BF
:104650002DFA02463B69D31A41F28832934201D9BE
:10466000032336E01D4B1B6A03F00203002BEED040
:104670001A4B1B6A23F440727B685B68174913432B
:104680000B62FB7D012B05D1144BDB69134A23F030
:104690008053D3617B681B6803F00203002B08D0B2
:1046A0000E4B5B6823F440427B689B680B491343C5
:1046B0004B607B681B6803F01003002B08D0074B8E
:1046C0005B6823F480027B68DB68044913434B601A
:1046D000002318461837BD4680BD00BF00100240B9
:1046E000007000404004424280B588B000AF78605E
:1046F00000237B610023FB6100233B610023FB60FF
:104700000023BB617B68102B0AD07B68102B00F262
:104710008A807B68012B45D07B68022B75D082E0B4
:10472000464B5B68FB60454B1B6803F08073002BB6
:104730007BD0FB689B0C03F00F03414AD35C3B61C9
:10474000FB6803F48033002B15D03C4B5B685B0C9B
:1047500003F001033B4AD35C7B61FB6803F48033C5
:10476000002B0DD0384A7B69B2FBF3F23B6902FBA8
:1047700003F3FB6104E03B69344A02FB03F3FB6192
:104780002E4B5B6803F48003B3F5800F02D1FB6905
:10479000BB614AE0FB695B002D4AA2FB03235B0877
:1047A000BB6142E0254B1B6AFB60FB6803F440736E
:1047B000B3F5807F08D1FB6803F00203002B03D020
:1047C0004FF40043BB611FE0FB6803F44073B3F593
:1047D000007F09D1194B5B6A03F00203002B03D061
:1047E00049F64043BB610FE0FB6803F44073B3F547
:1047F000407F1CD1114B1B6803F40033002B16D0F3
:104800004FF22443BB6112E011E0FFF785FE024640
:104810000A4B5B689B0B03F0030301335B00B2FBA5
:10482000F3F3BB6104E000BF02E000BF00E000BFA3
:10483000BB6918462037BD4680BD00BF001002404E
:10484000089400081894000800127A0000093D003E
:10485000ABAAAAAA80B582B000AF78607B68002BB3
:1048600001D1012341E07B6893F83D30DBB2002B9E
:1048700006D17B68002283F83C207868FDF704FFAE
:104880007B68022283F83D207B681A687B680433CA
:104890001946104600F0CCFA7B68012283F84620C6
:1048A0007B68012283F83E207B68012283F83F2049
:1048B0007B68012283F840207B68012283F8412035
:1048C0007B68012283F842207B68012283F8432021
:1048D0007B68012283F844207B68012283F845200D
:1048E0007B68012283F83D20002318460837BD4627
:1048F00080BD000080B485B000AF78607B6893F81D
:104900003D30DBB2012B01D001233AE07B6802226B
:1049100083F83D207B681B68DA687B681B6842F07F
:104920000102DA607B681B68184A93420ED07B68EC
:104930001B68B3F1804F09D07B681B68144A93420F
:1049400004D07B681B68134A934211D17B681B68B3
:104950009B6803F00703FB60FB68062B10D07B68A5
:104960001B681A687B681B6842F001021A6007E046
:104970007B681B681A687B681B6842F001021A603A
:10498000002318461437BD4680BC7047002C0140F8
:10499000000400400008004080B483B000AF78609D
:1049A0007B681B68DA687B681B6822F00102DA60AA
:1049B0007B681B681A6A41F211131340002B0FD158
:1049C0007B681B681A6A40F244431340002B07D1EE
:1049D0007B681B681A687B681B6822F001021A60FA
:1049E0007B68012283F83D20002318460C37BD4622
:1049F00080BC704780B584B000AF78607B681B686E
:104A0000DB68FB607B681B681B69BB60BB6803F0ED
:104A10000203002B20D0FB6803F00203002B1BD005
:104A20007B681B686FF002021A617B6801221A77AB
:104A30007B681B689B6903F00303002B03D0786835
:104A400000F0DAF905E0786800F0CDF9786800F058
:104A5000DCF97B6800221A77BB6803F00403002BA3
:104A600020D0FB6803F00403002B1BD07B681B687D
:104A70006FF004021A617B6802221A777B681B6858
:104A80009B6903F44073002B03D0786800F0B4F9FD
:104A900005E0786800F0A7F9786800F0B6F97B685F
:104AA00000221A77BB6803F00803002B20D0FB68B4
:104AB00003F00803002B1BD07B681B686FF0080213
:104AC0001A617B6804221A777B681B68DB6903F034
:104AD0000303002B03D0786800F08EF905E07868B6
:104AE00000F081F9786800F090F97B6800221A776D
:104AF000BB6803F01003002B20D0FB6803F0100309
:104B0000002B1BD07B681B686FF010021A617B685A
:104B100008221A777B681B68DB6903F44073002B5B
:104B200003D0786800F068F905E0786800F05BF978
:104B3000786800F06AF97B6800221A77BB6803F096
:104B40000103002B0CD0FB6803F00103002B07D0FE
:104B50007B681B686FF001021A617868FCF7D8FA6D
:104B6000BB6803F08003002B0CD0FB6803F08003CC
:104B7000002B07D07B681B686FF080021A61786891
:104B800000F053FBBB6803F04003002B0CD0FB6824
:104B900003F04003002B07D07B681B686FF04002D6
:104BA0001A61786800F03AF9BB6803F02003002B23
:104BB0000CD0FB6803F02003002B07D07B681B6838
:104BC0006FF020021A61786800F026FB00BF1037F2
:104BD000BD4680BD80B584B000AF786039600023E9
:104BE000FB737B6893F83C30012B01D10223B4E0C6
:104BF0007B68012283F83C207B68022283F83D20F9
:104C00007B681B689B68BB60BB6823F07703BB6055
:104C1000BB6823F47F43BB607B681B68BA689A60FB
:104C20003B681B68B3F5005F3ED0B3F5005F00F250
:104C30008780B3F5805F00F08680B3F5805F7FD812
:104C4000702B1AD0702B7BD8602B50D0602B77D86C
:104C5000502B3CD0502B73D8402B58D0402B6FD8C2
:104C6000302B64D0302B6BD8202B60D0202B67D812
:104C7000002B5CD0102B5AD062E07B6818683B6830
:104C800099683B685A683B68DB6800F047FA7B68C4
:104C90001B689B68BB60BB6843F07703BB607B68A5
:104CA0001B68BA689A604FE07B6818683B6899682F
:104CB0003B685A683B68DB6800F030FA7B681B6829
:104CC0009A687B681B6842F480429A603CE07B688B
:104CD00018683B6859683B68DB681A4600F0A7F91A
:104CE0007B681B685021184600F0FEF92CE07B68B9
:104CF00018683B6859683B68DB681A4600F0C5F9DC
:104D00007B681B686021184600F0EEF91CE07B68A8
:104D100018683B6859683B68DB681A4600F087F9F9
:104D20007B681B684021184600F0DEF90CE07B68C8
:104D30001A683B681B681946104600F0D5F903E075
:104D40000123FB7300E000BF7B68012283F83D2054
:104D50007B68002283F83C20FB7B18461037BD4659
:104D600080BD80B582B000AF786039607B6893F811
:104D70003C30012B01D1022331E07B68012283F812
:104D80003C207B68022283F83D203968786800F077
:104D9000BDF80346002B09D07B68012283F83D2033
:104DA0007B68002283F83C20012318E07B681B68A5
:104DB000DA687B681B6822F04002DA607B681B6857
:104DC000DA687B681B6822F48042DA607B68012223
:104DD00083F83D207B68002283F83C20002318469E
:104DE0000837BD4680BD80B483B000AF786000BF97
:104DF0000C37BD4680BC704780B483B000AF78608C
:104E000000BF0C37BD4680BC704780B483B000AF94
:104E1000786000BF0C37BD4680BC704780B483B05B
:104E200000AF786000BF0C37BD4680BC7047000003
:104E300080B485B000AF786039607B681B68FB6028
:104E40007B682F4A93420BD07B68B3F1804F07D029
:104E50007B682C4A934203D07B682B4A934208D14B
:104E6000FB6823F07003FB603B685B68FA681343E0
:104E7000FB607B68224A93420BD07B68B3F1804F82
:104E800007D07B681F4A934203D07B681E4A934237
:104E900008D1FB6823F44073FB603B68DB68FA6869
:104EA0001343FB60FB6823F080023B685B6913439C
:104EB000FB607B68FA681A603B689A687B68DA6214
:104EC0003B681A687B689A627B680D4A934203D1FB
:104ED0003B681A697B681A637B6801225A617B68A8
:104EE0001B6903F00103002B05D07B681B6923F0CD
:104EF00001027B681A6100BF1437BD4680BC704751
:104F0000002C0140000400400008004080B586B03D
:104F100000AF786039600023FB757B681B689B6875
:104F20003B613B6923F070033B613B685B683A6916
:104F300013433B613B6923F007033B613B681B68FC
:104F40003A6913433B617B681B683A699A603B6826
:104F50005B68702B1AD0702B60D8602B54D0602BFC
:104F60005CD8502B46D0502B58D8402B19D0402B12
:104F700054D8302B55D0302B50D8202B51D0202B4B
:104F80004CD8002B4DD0102B4BD047E07B681868D5
:104F90003B68D9683B689A683B681B6900F0BEF8BB
:104FA00040E03B681B68052B01D101233BE07B6897
:104FB0001B681B6AFB607B681B681A6A7B681B683E
:104FC00022F001021A627B681B689B69BB60BB68A8
:104FD00023F0F003BB603B681B691B01BA681343F5
:104FE000BB607B681B68BA689A617B681B68FA685B
:104FF0001A6217E07B6818683B6899683B681B6910
:105000001A4600F014F80DE07B6818683B68996850
:105010003B681B691A4600F038F803E00123FB7572
:1050200000E000BFFB7D18461837BD4680BD80B448
:1050300087B000AFF860B9607A60FB681B6A7B617B
:10504000FB681B6A23F00102FB681A62FB689B691C
:105050003B613B6923F0F0033B617B681B013A69CC
:1050600013433B617B6923F00A037B617A69BB6868
:1050700013437B61FB683A699A61FB687A691A623B
:1050800000BF1C37BD4680BC704780B487B000AFFE
:10509000F860B9607A60FB681B6A7B61FB681B6A19
:1050A00023F01002FB681A62FB689B693B613B6955
:1050B00023F470433B617B681B033A6913433B61F4
:1050C0007B6923F0A0037B61BB681B017A691343F2
:1050D0007B61FB683A699A61FB687A691A6200BF72
:1050E0001C37BD4680BC704780B485B000AF786087
:1050F00039607B689B68FB60FB6823F07003FB6092
:105100003A68FB68134343F00703FB607B68FA6867
:105110009A6000BF1437BD4680BC704780B487B02A
:1051200000AFF860B9607A603B60FB689B687B61A8
:105130007B6923F47F437B613B681A027B681A43D7
:10514000BB6813437A6913437B61FB687A699A6091
:1051500000BF1C37BD4680BC7047000080B485B0DE
:1051600000AF786039607B6893F83C30012B01D147
:10517000022346E07B68012283F83C207B68022200
:1051800083F83D207B681B685B68FB607B681B685D
:105190009B68BB60FB6823F07003FB603B681B6887
:1051A000FA681343FB607B681B68FA685A607B6887
:1051B0001B68164A93420ED07B681B68B3F1804F80
:1051C00009D07B681B68124A934204D07B681B6835
:1051D000104A93420CD1BB6823F08003BB603B684C
:1051E0005B68BA681343BB607B681B68BA689A60E7
:1051F0007B68012283F83D207B68002283F83C20F5
:10520000002318461437BD4680BC7047002C01406F
:10521000000400400008004080B483B000AF786014
:1052200000BF0C37BD4680BC704780B483B000AF70
:10523000786000BF0C37BD4680BC704780B582B037
:1052400000AF78607B68002B01D1012342E07B68CE
:1052500093F84130DBB2002B06D17B68002283F843
:1052600040207868FDF748FA7B68242283F84120C3
:105270007B681B68DA687B681B6822F40052DA607E
:10528000786800F071F97B681B681A697B681B6895
:1052900022F490421A617B681B685A697B681B681C
:1052A00022F02A025A617B681B68DA687B681B68F7
:1052B00042F40052DA607B6800225A647B68202244
:1052C00083F841207B68202283F842207B680022FB
:1052D0005A63002318460837BD4680BD80B58AB0A2
:1052E00002AFF860B9603B601346FB8000237B612E
:1052F000FB6893F84130DBB2202B75D1BB68002BE3
:1053000002D0FB88002B01D101236EE0FB68002254
:105310005A64FB68212283F84120FDF7C7FB7861BE
:10532000FB68FA889A84FB68FA88DA84FB689B68D1
:10533000B3F5805F08D1FB681B69002B04D1002303
:10534000FB61BB68BB6103E0BB68FB610023BB6121
:105350002EE03B6800937B6900228021F86800F012
:1053600048F80346002B05D0FB68202283F8412033
:1053700003233AE0FB69002B0BD1BB691B881A465B
:10538000FB681B68C2F308025A60BB690233BB6149
:1053900007E0FB691A78FB681B685A60FB690133F8
:1053A000FB61FB68DB8C9BB2013B9AB2FB68DA8441
:1053B000FB68DB8C9BB2002BCBD13B6800937B69F5
:1053C00000224021F86800F014F80346002B05D0B5
:1053D000FB68202283F84120032306E0FB6820229B
:1053E00083F84120002300E0022318462037BD4601
:1053F00080BD80B586B000AFF860B9603B601346F1
:10540000FB713BE03B6AB3F1FF3F37D0FDF74EFB4A
:1054100002463B68D31A3A6A9A4202D33B6A002B8F
:1054200001D103233AE0FB681B68DB6803F0040347
:10543000002B23D0BB68802B20D0BB68402B1DD015
:10544000FB681B681B6803F00803082B16D10023B8
:105450007B61FB681B681B687B61FB681B685B6882
:105460007B617B69F86800F01DF8FB6808225A64CC
:10547000FB68002283F8402001230FE0FB681B68D3
:105480001A68BB681340BA689A420CBF0123002314
:10549000DBB21A46FB799A42B4D00023184618377B
:1054A000BD4680BD80B495B000AF78607B681B6856
:1054B0000C337B637B6B53E8003F3B633B6B23F414
:1054C0009073FB647B681B680C33FA6C3A64FB6373
:1054D000F96B3A6C41E80023BB63BB6B002BE5D151
:1054E0007B681B6814333B623B6A53E8003FFB61F7
:1054F000FB6923F00103BB647B681B681433BA6C3F
:10550000FA62BB62B96AFA6A41E800237B627B6A8D
:10551000002BE5D17B681B6B012B19D17B681B68C5
:105520000C33FB60FB6853E8003FBB60BB6823F0B3
:1055300010037B647B681B680C337A6CBA617B61F7
:105540007969BA6941E800233B613B69002BE5D1E9
:105550007B68202283F842207B6800221A6300BF08
:105560005437BD4680BC704780B584B000AF7860CA
:105570007B681B681B6923F440517B68DA687B6891
:105580001B680A431A617B689A687B681B691A4327
:105590007B685B691343BB607B681B68DB6823F433
:1055A000B05323F00C037A681268B9680B43D360D8
:1055B0007B681B685B6923F440717B689A697B6830
:1055C0001B680A435A617B681B682C4A934203D1CB
:1055D000FEF7A2FFF86002E0FEF78AFFF860FA68C3
:1055E00013469B0013449A001A447B685B689B0037
:1055F000B2FBF3F3224AA2FB03235B091901FA6809
:1056000013469B0013449A001A447B685B689B0016
:10561000B2FBF3F21A4BA3FB02035B09642000FB0D
:1056200003F3D31A1B013233154AA2FB03235B0990
:1056300003F0F0031944FA6813469B0013449A00E0
:105640001A447B685B689B00B2FBF3F20C4BA3FB34
:1056500002035B09642000FB03F3D31A1B013233FE
:10566000074AA2FB03235B0903F00F027B681B6858
:105670000A449A6000BF1037BD4680BD0038014023
:105680001F85EB51002B2DE9F0471D46BBBF03F1F1
:1056900000431D4600232D2388B01446B8BF14468E
:1056A000129A109E1370149BDDF84CA023F0200872
:1056B000B8F1460F05D0B8F1450F00D101360223ED
:1056C00000E0032307AA049206AACDE902A2CDE9CD
:1056D000003622462B4600F06FFEB8F1470F074612
:1056E00019D1119BDB070ED500EB06090022002320
:1056F00020462946FBF758F908B1CDF81C90302216
:10570000079B4B451ED33846079B159ADB1B13603E
:1057100008B0BDE8F087B8F1460F00EB0609E5D107
:105720000378302B0AD10022002320462946FBF7BC
:105730003BF918B9C6F10106CAF80060DAF8003082
:105740009944D3E7591C07911A70D9E7F7B5002996
:10575000B6BF2D232B23494209290270437029DD4E
:105760000DF107031D460A27B1FBF7F61A4607FBA2
:105770001614303402F8014C0C46632C314603F108
:10578000FF33F1DC3031941E03F8011C2346411C29
:10579000AB420AD30DF109039B1AAC4288BF002328
:1057A00002330344181A03B0F0BD13F8016B01F87B
:1057B000016FEDE7302330318370C170031DF1E7D5
:1057C0002DE9F04F91B00C46DDF8688016461F4673
:1057D000054600F0E1FC036818460893FAF7B8FCA8
:1057E00000230E93D8F800300990073323F0070305
:1057F00003F1080294F818A0D4F800B0C8F800200B
:10580000D3E9008929F000430B93CDF828804FF0AD
:10581000FF32DDE90A01C4E912899C4BFBF7F6F877
:1058200070BBDDE90A014FF0FF32984BFBF7D0F86F
:1058300030BB0022002340464946FBF7BFF810B1B9
:105840002D2384F84330924A924BBAF1470F8CBF14
:105850009046984603234FF0000923612BF0040380
:10586000236033462146284600970FAA00F0D4F95A
:10587000013040F090804FF0FF3011B0BDE8F08F64
:1058800042464B4640464946FBF7C0F848B14B46B6
:10589000002BB8BF2D23804AB8BF84F843307F4B1C
:1058A000D3E763680AF0DF015A1C3FD10623636027
:1058B00000224BF48063236006920EAACDE904A275
:1058C0000DAA03920DF13302CDE90132636842461D
:1058D000009328464B460A91FFF7D4FE0A9980466A
:1058E00047290D9928D1C81C02DB6368994240DD25
:1058F000AAF1020A5FFA8AFA5246013904F150000D
:105900000D91FFF723FF0E9A81461318012A236198
:1059100002DC2268D20701D5013323619DF83330C0
:10592000002B9ED02D2384F843309AE74729BFD11E
:10593000002BBDD10123BAE7BAF1650FDCD9BAF16A
:10594000660F18D1002963680BDD216113B9226845
:10595000D00702D501330B4423614FF00009A16544
:10596000DCE713B92268D20701D50233F4E701233B
:10597000F2E74FF0670A0E9B994205DB236821612D
:10598000D807EAD54B1CE7E70029CCBF0122C1F1BB
:1059900002021344E0E723685A0507D4236942460C
:1059A00031462846B84701302BD164E7BAF1650F7C
:1059B00040F2DC80D4E9120100220023FAF7F4FF60
:1059C000002833D0012331462846354AB8470130F4
:1059D0003FF451AFDDE90D38434502DB2368D807BA
:1059E0000FD5DDE9082331462846B84701303FF49A
:1059F00042AF4FF0000908F1FF3804F11A0AC84518
:105A000009DC23689B0700F10281E0680F9B984244
:105A1000B8BF184631E70123524631462846B847F9
:105A200001303FF428AF09F10109E8E70D9B002B95
:105A300038DC012331462846194AB84701303FF483
:105A40001AAFDDE90D3959EA030302D12368D907FA
:105A5000D7D5DDE9082331462846B84701303FF461
:105A60000AAF4FF0000A04F11A0B0D9B5B4253453D
:105A700001DC4B4693E701235A4631462846B84796
:105A800001303FF4F8AE0AF1010AEEE7FFFFEF7FC5
:105A90001E9400081A940008269400082294000816
:105AA0002A940008A36DDDF838A05345A8BF5346DB
:105AB000002B994636DC4FF0000B29EAE97904F116
:105AC0001A02A36D0A93A3EB09035B4531DC0D9B1E
:105AD0009A453ADC2368DA0737D40D9BAAEB030911
