:020000040800F2
:1000000000500020F9100008811000088910000835
:100010009110000899100008A110000800000000CD
:10002000000000000000000000000000A91000080F
:10003000B510000800000000C1100008CD10000835
:100040004111000841110008411100084111000848
:100050004111000841110008411100084111000838
:10006000411100084111000841110008D910000891
:100070004111000841110008411100084111000818
:100080004111000841110008411100084111000808
:1000900041110008411100084111000841110008F8
:1000A00041110008411100084111000841110008E8
:1000B00041110008411100084111000841110008D8
:1000C00041110008411100084111000841110008C8
:1000D00041110008411100084111000841110008B8
:1000E0004111000841110008411100080000000002
:1000F0000000000000000000000000000000000000
:0C01000000000000000000005FF808F1A3
:10010C0010B5054C237833B9044B13B10448AFF345
:10011C0000800123237010BD0C00002000000000A3
:10012C00982C000808B5034B1BB103490348AFF3E7
:10013C00008008BD0000000010000020982C000872
:10014C0080B582B000AF03460A46FB711346BB7103
:10015C00BB7903F00103002B14D0FB795A4A3421EC
:10016C0001FB03F3134404331868FB79564A34211A
:10017C0001FB03F3134408331B880122194602F0D8
:10018C00ADF813E0FB79504A342101FB03F313441F
:10019C0004331868FB794C4A342101FB03F31344F4
:1001AC0008331B880022194602F098F8BB7903F03B
:1001BC000203002B14D0FB79434A342101FB03F3D7
:1001CC0013440C331868FB793F4A342101FB03F3C9
:1001DC00134410331B880122194602F07FF813E0F8
:1001EC00FB79394A342101FB03F313440C331868AF
:1001FC00FB79354A342101FB03F3134410331B887C
:10020C000022194602F06AF8BB7903F00403002BB4
:10021C0014D0FB792C4A342101FB03F3134414331F
:10022C001868FB79284A342101FB03F31344183373
:10023C001B880122194602F051F813E0FB79224A7F
:10024C00342101FB03F3134414331868FB791E4A61
:10025C00342101FB03F3134418331B880022194685
:10026C0002F03CF8BB7903F00803002B14D0FB79A7
:10027C00154A342101FB03F313441C331868FB7932
:10028C00114A342101FB03F3134420331B88012250
:10029C00194602F023F813E0FB790B4A342101FBD9
:1002AC0003F313441C331868FB79074A342101FB10
:1002BC0003F3134420331B880022194602F00EF876
:1002CC0000BF0837BD4680BDCC2C000880B588B077
:1002DC0000AF03460A46FB711346BB71FB79574AC4
:1002EC00342101FB03F313442C331868FB79534A74
:1002FC00342101FB03F3134430331B8800221946CD
:10030C0001F0ECFFBA79FB7911461846FFF718FF9C
:10031C00FB794A4A342101FB03F313442433186854
:10032C00FB79464A342101FB03F3134428331B8821
:10033C000022194601F0D2FF414B9B68FB61414BF7
:10034C001B68414AA2FB03239A0C13469B001A44D8
:10035C003C4B1B683C49A1FB03139B0C5B08D31A59
:10036C00BB61374B9B68FA69D31ABA699A42F8D8C1
:10037C00FB79324A342101FB03F31344243318680C
:10038C00FB792E4A342101FB03F3134428331B88D9
:10039C000122194601F0A2FF294B9B687B61294B76
:1003AC001B68294AA2FB03239A0C13469B001A4490
:1003BC00244B1B682449A1FB03139B0C5B08D31A29
:1003CC003B611F4B9B687A69D31A3A699A42F8D8F9
:1003DC00FB791A4A342101FB03F3134424331868C4
:1003EC00FB79164A342101FB03F3134428331B8891
:1003FC000022194601F072FF114B9B68FB60114BF8
:10040C001B68114AA2FB03239B0C642203FB02F220
:10041C000C4B1B680C49A1FB03139B0C5B08D31AF8
:10042C00BB60074B9B68FA68D31ABA689A42F8D833
:10043C0000BF00BF2037BD4680BD00BFCC2C0008DC
:10044C0010E000E00000002083DE1B4380B586B086
:10045C0000AF0346FB71FB7900211846FFF736FF0E
:10046C00FB7901211846FFF731FF00237B611FE068
:10047C00134B9B683B61134B1B68134AA2FB032372
:10048C009B0C4FF47A7203FB02F20E4B1B680E4965
:10049C00A1FB03139B0C5B08D31AFB60084B9B68F6
:1004AC003A69D31AFA689A42F8D87B6901337B61AE
:1004BC007B69012BDCD900BF00BF1837BD4680BD5E
:1004CC0010E000E00000002083DE1B4380B584B008
:1004DC0000AF0346FB710B46BB7113467B71BB79B6
:1004EC00012B15D17B797F33FB73FB7B1B09BB7312
:1004FC00FB7B03F00F037B73BA7BFB791146184629
:10050C00FFF7E4FE7A7BFB7911461846FFF7DEFE17
:10051C00BB79022B15D17B79413BFB73FB7B1B0910
:10052C00BB73FB7B03F00F037B73BA7BFB79114628
:10053C001846FFF7CBFE7A7BFB7911461846FFF77E
:10054C00C5FE00BF1037BD4680BD000080B58EB023
:10055C0000AF0346FB7100BF00F046FE0346312B93
:10056C00FAD9FB797C4A342101FB03F313442C3375
:10057C001868FB79784A342101FB03F313443033B8
:10058C001B880022194601F0A9FEFB79724A34211E
:10059C0001FB03F3134424331868FB796E4A3421AE
:1005AC0001FB03F3134428331B880022194601F086
:1005BC0095FEFB7900211846FFF7C2FD00237B63F3
:1005CC001FE0664B9B683B61654B1B68654AA2FB51
:1005DC0003239B0C4FF47A7203FB02F2604B1B68F3
:1005EC006049A1FB03139B0C5B08D31AFB605B4BAC
:1005FC009B683A69D31AFA689A42F8D87B6B013334
:10060C007B637B6B952BDCD9FB7903211846FFF7B9
:10061C005DFE00233B631FE0504B9B68BB61504B5E
:10062C001B68504AA2FB03239B0C4FF47A7203FB0A
:10063C0002F24B4B1B684B49A1FB03139B0C5B0851
:10064C00D31A7B61454B9B68BA69D31A7A699A4273
:10065C00F8D83B6B01333B633B6B042BDCD9FB7948
:10066C0003211846FFF732FE0023FB621FE03B4BD1
:10067C009B683B623A4B1B683A4AA2FB03239B0CD8
:10068C004FF47A7203FB02F2354B1B683549A1FB20
:10069C0003139B0C5B08D31AFB61304B9B683A6AC3
:1006AC00D31AFA699A42F8D8FB6A0133FB62FB6AE7
:1006BC00042BDCD9FB7903211846FFF707FE274BE7
:1006CC009B68BB62264B1B68264AA2FB03239B0C30
:1006DC00962203FB02F2224B1B682249A1FB031357
:1006EC009B0C5B08D31A7B621C4B9B68BA6AD31AAF
:1006FC007A6A9A42F8D8FB7902211846FFF7E6FD90
:10070C00FB7902211846FFF7E1FDFB790821184619
:10071C00FFF7DCFDFB7900211846FFF7D7FDFB79CD
:10072C000C211846FFF7D2FDFB7900211846FFF784
:10073C00CDFDFB7906211846FFF7C8FDFB7900219A
:10074C001846FFF7C3FDFB7901211846FFF7BEFDE4
:10075C0000BF3837BD4680BDCC2C000810E000E04F
:10076C000000002083DE1B4380B590B000AF034631
:10077C000A46FB711346BB71BB7903F00F0387F874
:10078C003F30BB7923F00F0387F83E30FB79A44A46
:10079C00342101FB03F313442C331868FB79A04A72
:1007AC00342101FB03F3134430331B880122194617
:1007BC0001F094FD97F83E301B09DAB2FB79114633
:1007CC001846FFF7BDFCFB79954A342101FB03F376
:1007DC00134424331868FB79914A342101FB03F349
:1007EC00134428331B880022194601F077FD8D4BEA
:1007FC009B68BB638C4B1B688C4AA2FB03239A0C33
:10080C0013469B001A44884B1B688849A1FB0313B1
:10081C009B0C5B08D31A7B63824B9B68BA6BD31A15
:10082C007A6B9A42F8D8FB797D4A342101FB03F3A9
:10083C00134424331868FB79794A342101FB03F300
:10084C00134428331B880122194601F047FD754BD0
:10085C009B683B63744B1B68744AA2FB03239A0C82
:10086C0013469B001A44704B1B687049A1FB031381
:10087C009B0C5B08D31AFB626A4B9B683A6BD31ACE
:10088C00FA6A9A42F8D8FB79654A342101FB03F3E2
:10089C00134424331868FB79614A342101FB03F3B8
:1008AC00134428331B880022194601F017FD5D4BB9
:1008BC009B68BB625C4B1B685C4AA2FB03239B0CD2
:1008CC00642203FB02F2584B1B685849A1FB03132B
:1008DC009B0C5B08D31A7B62524B9B68BA6AD31A87
:1008EC007A6A9A42F8D897F83F20FB791146184655
:1008FC00FFF726FCFB794A4A342101FB03F313442E
:10090C0024331868FB79464A342101FB03F3134462
:10091C0028331B880022194601F0E0FC414B9B68F0
:10092C003B62414B1B68414AA2FB03239A0C1346C2
:10093C009B001A443C4B1B683C49A1FB03139B0CCA
:10094C005B08D31AFB61374B9B683A6AD31AFA6976
:10095C009A42F8D8FB79324A342101FB03F3134451
:10096C0024331868FB792E4A342101FB03F313441A
:10097C0028331B880122194601F0B0FC294B9B68D7
:10098C00BB61294B1B68294AA2FB03239A0C134613
:10099C009B001A44244B1B682449A1FB03139B0C9A
:1009AC005B08D31A7B611F4B9B68BA69D31A7A69AF
:1009BC009A42F8D8FB791A4A342101FB03F3134409
:1009CC0024331868FB79164A342101FB03F31344D2
:1009DC0028331B880022194601F080FC114B9B68C0
:1009EC003B61114B1B68114AA2FB03239B0C642235
:1009FC0003FB02F20C4B1B680C49A1FB03139B0C71
:100A0C005B08D31AFB60074B9B683A69D31AFA68E8
:100A1C009A42F8D800BF00BF4037BD4680BD00BF2A
:100A2C00CC2C000810E000E00000002083DE1B430B
:100A3C0080B584B000AF03463960FB710023FB60C6
:100A4C000BE0FB683A6813441A78FB791146184698
:100A5C00FFF78AFEFB680133FB60FB683A681344BE
:100A6C001B78002BEDD100BF00BF1037BD4680BDF9
:100A7C0080B500AF00F060FB00F082F800F056F992
:100A8C0000F036F900F0D8F803223749374800F067
:100A9C00B1FC0020FFF75AFD0020FFF7D7FC012224
:100AAC0001210020FFF712FD31490020FFF7C0FFA4
:100ABC004FF4FA6000F0A2FB03222B492B4800F004
:100ACC0099FC0020FFF7C2FC012201210020FFF756
:100ADC00FDFC28490020FFF7ABFF234B1B680A22C3
:100AEC002549184600F0C4F9012202210020FFF725
:100AFC00EDFC21490020FFF79BFF0522022100207D
:100B0C00FFF7E4FC1D490020FFF792FF164B5B68D2
:100B1C000A221949184600F0ABF9062202210020DE
:100B2C00FFF7D4FC14490020FFF782FF0A220221B0
:100B3C000020FFF7CBFC11490020FFF779FF0A4B8F
:100B4C009B680A220C49184600F092F90B220221EC
:100B5C000020FFF7BBFC08490020FFF769FFC82005
:100B6C0000F04CFB00BFA7E79C00002028000020F1
:100B7C00B02C0008BC2C0008A8000020C82C0008D1
:100B8C0080B594B000AF07F1280328220021184645
:100B9C0002F050F807F1140300221A605A609A60B0
:100BAC00DA601A613B1D00221A605A609A60DA60A2
:100BBC000123BB624FF48033FB6200233B630123B0
:100BCC00BB6302237B644FF48033BB644FF4E013AC
:100BDC00FB6407F12803184601F098FB0346002B31
:100BEC0001D000F011F90F237B610223BB610023BC
:100BFC00FB614FF480633B624FF4A0637B6207F1AF
:100C0C0014030221184601F003FE0346002B01D009
:100C1C0000F0FAF802237B600023FB603B1D1846B2
:100C2C0001F052FF0346002B01D000F0EDF800BF9D
:100C3C005037BD4680BD000080B584B000AF3B1D71
:100C4C0000221A605A609A60274B284A1A60264B79
:100C5C004FF480729A60244B00221A73224B0022AC
:100C6C001A75214B4FF46022DA611F4B00225A6037
:100C7C001D4B03221A611C4800F0E4FA0346002BBA
:100C8C0001D000F0C1F800237B600123BB60072377
:100C9C00FB603B1D1946144800F0A6FC0346002BD4
:100CAC0001D000F0B1F801237B600223BB603B1D37
:100CBC0019460D4800F098FC0346002B01D000F0BB
:100CCC00A3F802237B600323BB603B1D1946064837
:100CDC0000F08AFC0346002B01D000F095F800BF11
:100CEC001037BD4680BD00BF280000200024014005
:100CFC0080B582B000AF0C4B5B690B4A43F001032B
:100D0C005361094B5B6903F001037B607B68002234
:100D1C0000210B2000F039FF0B2000F052FF00BF28
:100D2C000837BD4680BD00BF0010024080B588B0BA
:100D3C0000AF07F1100300221A605A609A60DA6063
:100D4C002E4B9B692D4A43F0100393612B4B9B69EF
:100D5C0003F01003FB60FB68284B9B69274A43F0A8
:100D6C0020039361254B9B6903F02003BB60BB6898
:100D7C00224B9B69214A43F0040393611F4B9B69EF
:100D8C0003F004037B607B681C4B9B691B4A43F09C
:100D9C0008039361194B9B6903F008033B603B68A4
:100DAC0000224FF40051164801F098FA00224FF43B
:100DBC007C41144801F092FA4FF400533B6101233B
:100DCC007B610023BB610223FB6107F11003194611
:100DDC000B4801F0FFF84FF47C433B6101237B612E
:100DEC000023BB610223FB6107F110031946054880
:100DFC0001F0F0F800BF2037BD4680BD0010024066
:100E0C0000100140000C014080B400AF72B600BF6E
:100E1C0000BFFDE780B485B000AF78600B46FB7077
:100E2C000023FB73FB78013BBB7317E0FB7B7A68F9
:100E3C0013441B787B73BB7B7A681A44FB7B796801
:100E4C000B4412781A70BB7B7A6813447A7B1A7045
:100E5C00FB7B0133FB73BB7B013BBB73FA7BBB7B23
:100E6C009A42E3D300BF00BF1437BD4680BC704725
:100E7C0080B586B000AFF860B9601346FB710023F3
:100E8C00FB750023BB75FB68002B0ED1FB7D5A1C38
:100E9C00FA751A46BB68134430221A70FB7DBA6887
:100EAC00134400221A70FB7D44E0FB68002B28DA07
:100EBC00FB790A2B25D10123BB75FB685B42FB60D8
:100ECC001FE0FA79FB6893FBF2F101FB02F29B1A2B
:100EDC003B613B69092B04DD3B69DBB23733DBB289
:100EEC0003E03B69DBB23033DBB2FA7D511CF975A0
:100EFC001146BA680A441370FB79FA6892FBF3F353
:100F0C00FB60FB68002BDCD1BB7D002B07D0FB7D8D
:100F1C005A1CFA751A46BB6813442D221A70FB7DB5
:100F2C00BA68134400221A70FB7D1946B868FFF7A3
:100F3C0071FFFB7D18461837BD4680BD80B485B067
:100F4C0000AF154B9B69144A43F001039361124B9C
:100F5C009B6903F00103BB60BB680F4BDB690E4A56
:100F6C0043F08053D3610C4BDB6903F080537B60FF
:100F7C007B680A4B5B68FB60FB6823F0E063FB60FB
:100F8C00FB6843F08063FB60044AFB68536000BF5E
:100F9C001437BD4680BC7047001002400000014071
:100FAC0080B588B000AF786007F1100300221A609A
:100FBC005A609A60DA607B681B68294A93424AD16E
:100FCC00284B9B69274A43F400739361254B9B691B
:100FDC0003F40073FB60FB68224B9B69214A43F0CE
:100FEC00040393611F4B9B6903F00403BB60BB6854
:100FFC0007233B6103237B6107F1100319461A4851
:10100C0000F0E8FF194B1A4A1A60184B00225A607C
:10101C00164B00229A60154B8022DA60134B4FF46A
:10102C0000721A61114B4FF400625A610F4B20226F
:10103C009A610E4B4FF48052DA610C4800F0DCFDE3
:10104C000346002B01D0FFF7DFFE7B68074A1A62CC
:10105C00064A7B68536200BF2037BD4680BD00BF87
:10106C0000240140001002400008014058000020FC
:10107C000800024080B400AF00BFFDE780B400AFB1
:10108C0000BFFDE780B400AF00BFFDE780B400AF48
:10109C0000BFFDE780B400AF00BFFDE780B400AF38
:1010AC0000BFBD4680BC704780B400AF00BFBD46DA
:1010BC0080BC704780B400AF00BFBD4680BC704799
:1010CC0080B500AF00F07EF800BF80BD80B500AFEA
:1010DC00024800F04BFE00BF80BD00BF580000204E
:1010EC0080B400AF00BFBD4680BC7047FFF7F8FF6F
:1010FC000B480C490C4A002302E0D458C45004336A
:10110C00C4188C42F9D3094A094C002301E013603E
:10111C000432A242FBD301F095FDFFF7A9FC704706
:10112C00000000200C0000202C2D00080C000020DA
:10113C00C0000020FEE7000080B500AF084B1B6824
:10114C00074A43F010031360032000F013FD0F2037
:10115C0000F008F8FFF7F2FE0023184680BD00BF30
:10116C000020024080B582B000AF7860124B1A6844
:10117C00124B1B7819464FF47A73B3FBF1F3B2FBA5
:10118C00F3F3184600F02BFD0346002B01D001238E
:10119C000EE07B680F2B0AD8002279684FF0FF30E5
:1011AC0000F0F3FC064A7B681360002300E0012387
:1011BC0018460837BD4680BD0000002008000020FE
:1011CC000400002080B400AF054B1B781A46054B79
:1011DC001B681344034A136000BFBD4680BC7047B4
:1011EC0008000020BC00002080B400AF024B1B683C
:1011FC001846BD4680BC7047BC00002080B584B04A
:10120C0000AF7860FFF7F0FFB8607B68FB60FB68AD
:10121C00B3F1FF3F05D00A4B1B781A46FB68134409
:10122C00FB6000BFFFF7E0FF0246BB68D31AFA6809
:10123C009A42F7D800BF00BF1037BD4680BD00BF33
:10124C000800002080B586B000AF78600023FB75E5
:10125C0000233B610023BB600023FB607B68002BF9
:10126C0001D10123BEE07B689B68002B7B689B6AE5
:10127C00002B09D17B680022DA627B68002283F89C
:10128C0024207868FFF78CFE786800F0FFFA03469C
:10129C00FB757B689B6A03F01003002B40F0998070
:1012AC00FB7D002B40F095807B689B6A23F4885370
:1012BC0023F0020343F002027B689A627B685A684F
:1012CC007B68DB691A437B681B7B5B001343BA6842
:1012DC001343BB607B689B68B3F5807F03D07B684E
:1012EC009B68012B02D14FF4807300E000233A6914
:1012FC0013433B617B681B7D012B19D17B681B7BE6
:10130C00002B09D17B689B69013B5A033B69134352
:10131C0043F400633B610BE07B689B6A43F0200263
:10132C007B689A627B68DB6A43F001027B68DA6255
:10133C007B681B685B6823F469417B681B683A69AE
:10134C000A435A607B681B689A68284B13407A687A
:10135C001268B9680B4393607B689B68B3F5807F18
:10136C0003D07B689B68012B04D17B681B69013B14
:10137C001B05FB607B681B68DB6A23F470017B68D0
:10138C001B68FA680A43DA627B681B689A68184B18
:10139C001340BA689A420BD17B680022DA627B68F0
:1013AC009B6A23F0030343F001027B689A6218E006
:1013BC007B689B6A23F0120343F010027B689A62ED
:1013CC007B68DB6A43F001027B68DA620123FB7500
:1013DC0007E07B689B6A43F010027B689A620123EA
:1013EC00FB75FB7D18461837BD4680BDFDF7E1FF48
:1013FC00FE0E1FFF80B586B000AFF860B9607A6052
:10140C000023FB75FB681B68644A934204D0FB689D
:10141C001B68634A934206D1604B5B6803F47023EC
:10142C00002B40F0B380FB6893F82430012B01D1E2
:10143C000223AEE0FB68012283F82420F86800F058
:10144C00CBF90346FB75FB7D002B40F09A80FB68C3
:10145C009B6A23F4706323F0010343F48072FB68EE
:10146C009A62FB681B684E4A934205D14B4B5B68F2
:10147C0003F47023002B15D1FB689B6A23F48012B4
:10148C00FB689A62FB681B685B6803F48063002B43
:10149C0026D0FB689B6A23F4405343F48052FB68CC
:1014AC009A621DE0FB689B6A43F48012FB689A62A7
:1014BC00FB681B68394A934204D0FB681B68384AA6
:1014CC0093420DD1354B5B6803F48063002B07D03E
:1014DC00FB689B6A23F4405343F48052FB689A6286
:1014EC00FB689B6A03F48053002B06D0FB68DB6A15
:1014FC0023F00602FB68DA6202E0FB680022DA6283
:10150C00FB68002283F82420FB681B6A254A9A6238
:10151C00FB681B6A244ADA62FB681B6A234A1A635B
:10152C00FB681B686FF002021A60FB681B689A6804
:10153C00FB681B6842F480729A60FB68186AFB684F
:10154C001B684C331946BA687B6800F0AFFBFB682C
:10155C001B689B6803F46023B3F5602F08D1FB680C
:10156C001B689A68FB681B6842F4A0029A600FE043
:10157C00FB681B689A68FB681B6842F480129A60CF
:10158C0006E0FB68002283F8242001E00123FB75B0
:10159C00FB7D18461837BD4680BD00BF00240140B6
:1015AC00002801401B19000897190008B3190008FE
:1015BC0080B483B000AF786000BF0C37BD4680BCF0
:1015CC00704780B483B000AF786000BF0C37BD4665
:1015DC0080BC704780B483B000AF786000BF0C371C
:1015EC00BD4680BC7047000080B485B000AF786009
:1015FC0039600023FB730023BB607B6893F82430B5
:10160C00012B01D10223DCE07B68012283F824202A
:10161C003B685B68062B1CD87B681B68596B3B6866
:10162C005A6813469B001344053B1F2202FA03F32E
:10163C00DB4319403B6818683B685A6813469B00AB
:10164C001344053B00FA03F27B681B680A435A6398
:10165C003CE03B685B680C2B1CD87B681B68196BE7
:10166C003B685A6813469B001344233B1F2202FA23
:10167C0003F3DB4319403B6818683B685A68134610
:10168C009B001344233B00FA03F27B681B680A435C
:10169C001A631BE07B681B68D96A3B685A6813465F
:1016AC009B001344413B1F2202FA03F3DB43194016
:1016BC003B6818683B685A6813469B001344413BCF
:1016CC0000FA03F27B681B680A43DA623B681B680A
:1016DC00092B1CD97B681B68D9683B681A681346B0
:1016EC005B0013441E3B072202FA03F3DB43194051
:1016FC003B6898683B681A6813465B0013441E3BB2
:10170C0000FA03F27B681B680A43DA6019E07B6815
:10171C001B6819693B681A6813465B00134407225F
:10172C0002FA03F3DB4319403B6898683B681A687C
:10173C0013465B00134400FA03F27B681B680A43F0
:10174C001A613B681B68102B03D03B681B68112B7C
:10175C0032D17B681B681D4A934225D17B681B687C
:10176C009B6803F40003002B26D17B681B689A68E6
:10177C007B681B6842F400029A603B681B68102B64
:10178C001AD1134B1B68134AA2FB03239A0C134662
:10179C009B0013445B00BB6002E0BB68013BBB6079
:1017AC00BB68002BF9D107E07B689B6A43F02002F1
:1017BC007B689A620123FB737B68002283F82420E8
:1017CC00FB7B18461437BD4680BC70470024014093
:1017DC000000002083DE1B4380B584B000AF78602E
:1017EC000023FB600023BB607B681B689B6803F0D5
:1017FC000103012B40D07B681B689A687B681B68CF
:10180C0042F001029A601F4B1B681F4AA2FB032384
:10181C009B0CBB6002E0BB68013BBB60BB68002B50
:10182C00F9D1FFF7E1FCF8601FE0FFF7DDFC0246A1
:10183C00FB68D31A022B18D97B681B689B6803F0D2
:10184C000103012B11D07B689B6A43F010027B686B
:10185C009A627B68DB6A43F001027B68DA627B6820
:10186C00002283F82420012307E07B681B689B6817
:10187C0003F00103012BD8D1002318461037BD46C5
:10188C0080BD00BF0000002083DE1B4380B584B008
:10189C0000AF78600023FB607B681B689B6803F0DB
:1018AC000103012B2ED17B681B689A687B681B682F
:1018BC0022F001029A60FFF797FCF8601BE0FFF73B
:1018CC0093FC0246FB68D31A022B14D97B681B6865
:1018DC009B6803F00103012B0DD17B689B6A43F0DD
:1018EC0010027B689A627B68DB6A43F001027B68BA
:1018FC00DA62012307E07B681B689B6803F0010335
:10190C00012BDCD0002318461037BD4680BD80B5B6
:10191C0084B000AF78607B685B6AFB60FB689B6A95
:10192C0003F05003002B27D1FB689B6A43F4007231
:10193C00FB689A62FB681B689B6803F46023B3F531
:10194C00602F15D1FB681B7B002B11D1FB689B6AA8
:10195C0023F48072FB689A62FB689B6A03F48053E1
:10196C00002B05D1FB689B6A43F00102FB689A626D
:10197C00F868FFF71DFE04E0FB681B6A1B6B7868B8
:10198C00984700BF1037BD4680BD80B584B000AF0E
:10199C0078607B685B6AFB60F868FFF712FE00BF3B
:1019AC001037BD4680BD80B584B000AF78607B68D1
:1019BC005B6AFB60FB689B6A43F04002FB689A62BF
:1019CC00FB68DB6A43F00402FB68DA62F868FFF735
:1019DC0001FE00BF1037BD4680BD000080B485B04D
:1019EC0000AF78607B6803F00703FB600C4BDB688F
:1019FC00BB60BA684FF6FF031340BB60FB681A026A
:101A0C00BB68134343F0BF6343F40033BB60044A29
:101A1C00BB68D36000BF1437BD4680BC704700BFA5
:101A2C0000ED00E080B400AF044BDB681B0A03F050
:101A3C0007031846BD4680BC704700BF00ED00E0B0
:101A4C0080B483B000AF0346FB7197F90730002BCD
:101A5C000BDBFB7903F01F02064997F907305B0992
:101A6C00012000FA02F241F8232000BF0C37BD46DA
:101A7C0080BC704700E100E080B483B000AF034647
:101A8C003960FB7197F90730002B0ADB3B68DAB23F
:101A9C000C4997F907301201D2B20B4483F800239A
:101AAC000AE03B68DAB20849FB7903F00F03043B08
:101ABC001201D2B20B441A7600BF0C37BD4680BC63
:101ACC00704700BF00E100E000ED00E080B489B099
:101ADC0000AFF860B9607A60FB6803F00703FB6144
:101AEC00FB69C3F10703042B28BF0423BB61FB690B
:101AFC000433062B02D9FB69033B00E000237B6116
:101B0C004FF0FF32BB6902FA03F3DA43BB681A40A9
:101B1C007B699A404FF0FF317B6901FA03F3D9439B
:101B2C007B680B40134318462437BD4680BC704776
:101B3C0080B582B000AF78607B68013BB3F1807FE9
:101B4C0001D301230FE00A4A7B68013B53600F214C
:101B5C004FF0FF30FFF790FF054B00229A60044BCB
:101B6C0007221A60002318460837BD4680BD00BF07
:101B7C0010E000E080B582B000AF78607868FFF7C5
:101B8C002DFF00BF0837BD4680BD80B586B000AFC5
:101B9C000346B9607A60FB7300237B61FFF742FF59
:101BAC0078617A68B9687869FFF790FF024697F90F
:101BBC000F3011461846FFF75FFF00BF1837BD46C0
:101BCC0080BD80B582B000AF0346FB7197F907303A
:101BDC001846FFF735FF00BF0837BD4680BD80B5FE
:101BEC0082B000AF78607868FFF7A2FF0346184612
:101BFC000837BD4680BD000080B485B000AF78606A
:101C0C000023FB607B68002B01D1012343E07B6840
:101C1C001B681A46224B1344224AA2FB03231B09BE
:101C2C009A007B681A647B681F4ADA637B6802221D
:101C3C0083F821207B681B681B68FB60FB6823F41E
:101C4C007F5323F03003FB607B685A687B689B688A
:101C5C001A437B68DB681A437B681B691A437B68F1
:101C6C005B691A437B689B691A437B68DB69134386
:101C7C00FA681343FB607B681B68FA681A607B6820
:101C8C0000229A637B68012283F821207B68002262
:101C9C0083F82020002318461437BD4680BC7047BB
:101CAC00F8FFFDBFCDCCCCCC0000024080B586B097
:101CBC0000AFF860B9607A603B600023FB75FB688D
:101CCC0093F82030012B01D102234BE0FB68012259
:101CDC0083F82020FB6893F82130DBB2012B3AD13A
:101CEC00FB68022283F82120FB6800229A63FB68C0
:101CFC001B681A68FB681B6822F001021A603B68BB
:101D0C007A68B968F86800F037F9FB68DB6A002B71
:101D1C0008D0FB681B681A68FB681B6842F00E024F
:101D2C001A600FE0FB681B681A68FB681B6822F0DE
:101D3C0004021A60FB681B681A68FB681B6842F097
:101D4C000A021A60FB681B681A68FB681B6842F081
:101D5C0001021A6005E0FB68002283F820200223B0
:101D6C00FB75FB7D18461837BD4680BD80B584B029
:101D7C0000AF78607B68DB6B1B68FB607B681B6863
:101D8C001B68BB607B681B6C04229A40FB68134089
:101D9C00002B4FD0BB6803F00403002B4AD07B68A8
:101DAC001B681B6803F02003002B07D17B681B68A2
:101DBC001A687B681B6822F004021A607B681B6837
:101DCC00664A934229D07B681B68654A934222D0AD
:101DDC007B681B68634A93421AD07B681B68624A13
:101DEC00934212D07B681B68604A93420AD07B688E
:101DFC001B685F4A934202D14FF480030EE04FF010
:101E0C0080630BE04FF4802308E04FF4804305E03F
:101E1C004FF4806302E0402300E00423554A5360F2
:101E2C007B68DB6A002B00F094807B68DB6A786847
:101E3C0098478EE07B681B6C02229A40FB6813402B
:101E4C00002B56D0BB6803F00203002B51D07B68EB
:101E5C001B681B6803F02003002B0BD17B681B68ED
:101E6C001A687B681B6822F00A021A607B680122E0
:101E7C0083F821207B681B68384A934229D07B6801
:101E8C001B68374A934222D07B681B68354A9342C1
:101E9C001AD07B681B68344A934212D07B681B684B
:101EAC00324A93420AD07B681B68314A934202D172
:101EBC004FF400130EE04FF000730BE04FF40033BF
:101ECC0008E04FF4005305E04FF4007302E02023C8
:101EDC0000E00223274A53607B68002283F820200D
:101EEC007B689B6A002B34D07B689B6A7868984728
:101EFC002FE07B681B6C08229A40FB681340002B78
:101F0C0028D0BB6803F00803002B23D07B681B6828
:101F1C001A687B681B6822F00E021A607B681A6CC8
:101F2C007B68DB6B012101FA02F25A607B680122AB
:101F3C009A637B68012283F821207B68002283F856
:101F4C0020207B681B6B002B04D07B681B6B786894
:101F5C00984700BF00BF1037BD4680BD0800024047
:101F6C001C00024030000240440002405800024075
:101F7C006C0002400000024080B485B000AFF860F5
:101F8C00B9607A603B60FB681A6CFB68DB6B012103
:101F9C0001FA02F25A60FB681B683A685A60FB68E7
:101FAC005B68102B08D1FB681B687A689A60FB6829
:101FBC001B68BA68DA6007E0FB681B68BA689A604D
:101FCC00FB681B687A68DA6000BF1437BD4680BCBA
:101FDC007047000080B48BB000AF7860396000238C
:101FEC007B6200233B6269E101227B6A02FA03F304
:101FFC00FB613B681B68FA691340BB61BA69FB69FA
:10200C009A4240F058813B685B689A4A93425ED092
:10201C00984A934275D8984A934258D0964A93421C
:10202C006FD8964A934252D0944A934269D8944AB4
:10203C0093424CD0924A934263D8924A934246D0F0
:10204C00904A93425DD8122B2AD8122B59D801A250
:10205C0052F823F0DB200008B5200008C720000848
:10206C00092100080F2100080F2100080F2100088A
:10207C000F2100080F2100080F2100080F21000874
:10208C000F2100080F2100080F2100080F21000864
:10209C000F2100080F210008BD200008D1200008E6
:1020AC00794A934213D02CE03B68DB683B6229E011
:1020BC003B68DB6804333B6224E03B68DB68083335
:1020CC003B621FE03B68DB680C333B621AE03B6809
:1020DC009B68002B02D104233B6213E03B689B6896
:1020EC00012B05D108233B627B68FA691A6109E070
:1020FC0008233B627B68FA695A6103E000233B6268
:10210C0000E000BFBB69FF2B01D87B6801E07B6856
:10211C0004337B61BB69FF2B02D87B6A9B0002E016
:10212C007B6A083B9B003B617B691A680F213B690A
:10213C0001FA03F3DB431A40396A3B6901FA03F3F2
:10214C001A437B691A603B685B6803F08053002B71
:10215C0000F0B1804D4B9B694C4A43F001039361F5
:10216C004A4B9B6903F00103BB60BB68484A7B6A1E
:10217C009B08023352F82330FB607B6A03F00303A5
:10218C009B000F2202FA03F3DB43FA681340FB6057
:10219C007B68404A934213D07B683F4A93420DD0F0
:1021AC007B683E4A934207D07B683D4A934201D1FB
:1021BC00032306E0042304E0022302E0012300E0F1
:1021CC0000237A6A02F0030292009340FA681343E8
:1021DC00FB602F497B6A9B080233FA6841F8232085
:1021EC003B685B6803F48013002B06D02D4B9A6878
:1021FC002C49BB6913438B6006E02A4B9A68BB6978
:10220C00DB43284913408B603B685B6803F4001385
:10221C00002B06D0234BDA682249BB691343CB60F1
:10222C0006E0204BDA68BB69DB431E491340CB60E8
:10223C003B685B6803F40033002B06D0194B5A68DB
:10224C001849BB6913434B6006E0164B5A68BB69CF
:10225C00DB43144913404B603B685B6803F48033E9
:10226C00002B21D00F4B1A680E49BB6913430B602E
:10227C0021E000BF000032100000311000002210DD
:10228C00000021100000121000001110001002407C
:10229C000000014000080140000C0140001001400A
:1022AC0000140140000401400B4B1A68BB69DB436E
:1022BC00094913400B607B6A01337B623B681A68E7
:1022CC007B6A22FA03F3002B7FF48EAE00BF00BFB3
:1022DC002C37BD4680BC70470004014080B483B0ED
:1022EC0000AF78600B467B8013467B707B78002BAD
:1022FC0003D07A887B681A6103E07B881A047B68B8
:10230C001A6100BF0C37BD4680BC704780B586B0E3
:10231C0000AF78607B68002B01D1012372E27B68EF
:10232C001B6803F00103002B00F08780924B5B6865
:10233C0003F00C03042B0CD08F4B5B6803F00C03E5
:10234C00082B12D18C4B5B6803F48033B3F5803FC0
:10235C000BD1894B1B6803F40033002B6CD07B68CA
:10236C005B68002B68D101234CE27B685B68B3F59A
:10237C00803F06D1804B1B687F4A43F48033136047
:10238C002EE07B685B68002B0CD17B4B1B687A4A78
:10239C0023F480331360784B1B68774A23F4802333
:1023AC0013601DE07B685B68B3F5A02F0CD1724BFA
:1023BC001B68714A43F4802313606F4B1B686E4A91
:1023CC0043F4803313600BE06B4B1B686A4A23F4B5
:1023DC0080331360684B1B68674A23F480231360B7
:1023EC007B685B68002B13D0FEF7FEFE386108E0BB
:1023FC00FEF7FAFE02463B69D31A642B01D903237C
:10240C0000E25D4B1B6803F40033002BF0D014E0AA
:10241C00FEF7EAFE386108E0FEF7E6FE02463B698D
:10242C00D31A642B01D90323ECE1534B1B6803F43F
:10243C000033002BF0D100E000BF7B681B6803F079
:10244C000203002B63D04C4B5B6803F00C03002B96
:10245C000BD0494B5B6803F00C03082B1CD1464B8B
:10246C005B6803F48033002B16D1434B1B6803F0DD
:10247C000203002B05D07B681B69012B01D00123C3
:10248C00C0E13D4B1B6823F0F8027B685B69DB0005
:10249C00394913430B603AE07B681B69002B20D051
:1024AC00364B01221A60FEF79FFE386108E0FEF7FA
:1024BC009BFE02463B69D31A022B01D90323A1E1EF
:1024CC002D4B1B6803F00203002BF0D02A4B1B682A
:1024DC0023F0F8027B685B69DB00274913430B6030
:1024EC0015E0264B00221A60FEF77EFE386108E0EC
:1024FC00FEF77AFE02463B69D31A022B01D903235D
:10250C0080E11D4B1B6803F00203002BF0D17B68AC
:10251C001B6803F00803002B3AD07B689B69002BE7
:10252C0019D0174B01221A60FEF75EFE386108E0E5
:10253C00FEF75AFE02463B69D31A022B01D903233C
:10254C0060E10D4B5B6A03F00203002BF0D001201D
:10255C0000F09CFA1CE00A4B00221A60FEF744FEC5
:10256C0038610FE0FEF740FE02463B69D31A022B9E
:10257C0008D9032346E100BF00100240000042428C
:10258C0080044242924B5B6A03F00203002BE9D1B8
:10259C007B681B6803F00403002B00F0A68000236B
:1025AC00FB758B4BDB6903F08053002B0DD1884BF3
:1025BC00DB69874A43F08053D361854BDB6903F0B9
:1025CC008053BB60BB680123FB75824B1B6803F413
:1025DC008073002B18D17F4B1B687E4A43F48073A9
:1025EC001360FEF701FE386108E0FEF7FDFD0246C0
:1025FC003B69D31A642B01D9032303E1754B1B6888
:10260C0003F48073002BF0D07B68DB68012B06D1C0
:10261C006F4B1B6A6E4A43F0010313622DE07B681B
:10262C00DB68002B0CD16A4B1B6A694A23F001034F
:10263C001362674B1B6A664A23F0040313621CE0A7
:10264C007B68DB68052B0CD1614B1B6A604A43F03D
:10265C00040313625E4B1B6A5D4A43F00103136271
:10266C000BE05B4B1B6A5A4A23F001031362584B75
:10267C001B6A574A23F0040313627B68DB68002B48
:10268C0015D0FEF7B1FD38610AE0FEF7ADFD02464C
:10269C003B69D31A41F28832934201D90323B1E04A
:1026AC004B4B1B6A03F00203002BEED014E0FEF739
:1026BC009BFD38610AE0FEF797FD02463B69D31A91
:1026CC0041F28832934201D903239BE0404B1B6AB1
:1026DC0003F00203002BEED1FB7D012B05D13C4B0B
:1026EC00DB693B4A23F08053D3617B68DB69002BA9
:1026FC0000F08780364B5B6803F00C03082B61D02D
:10270C007B68DB69022B46D1334B00221A60FEF743
:10271C006BFD386108E0FEF767FD02463B69D31A92
:10272C00022B01D903236DE0294B1B6803F00073C6
:10273C00002BF0D17B681B6AB3F5803F08D1244B8A
:10274C005B6823F400327B689B68214913434B6020
:10275C001F4B5B6823F474127B68196A7B685B6A95
:10276C000B431B4913434B601B4B01221A60FEF7B2
:10277C003BFD386108E0FEF737FD02463B69D31A92
:10278C00022B01D903233DE0114B1B6803F00073AE
:10279C00002BF0D035E0104B00221A60FEF724FD20
:1027AC00386108E0FEF720FD02463B69D31A022B84
:1027BC0001D9032326E0064B1B6803F00073002BA2
:1027CC00F0D11EE07B68DB69012B07D1012319E0F6
:1027DC000010024000700040600042420B4B5B68EE
:1027EC00FB60FB6803F480327B681B6A9A4206D15B
:1027FC00FB6803F470127B685B6A9A4201D0012378
:10280C0000E0002318461837BD4680BD001002407A
:10281C0080B584B000AF786039607B68002B01D143
:10282C000123D0E06A4B1B6803F007033A689A4215
:10283C0010D9674B1B6823F0070265493B681343AB
:10284C000B60634B1B6803F007033A689A4201D094
:10285C000123B8E07B681B6803F00203002B20D037
:10286C007B681B6803F00403002B05D0594B5B6895
:10287C00584A43F4E06353607B681B6803F0080319
:10288C00002B05D0534B5B68524A43F460535360A2
:10289C00504B5B6823F0F0027B689B684D491343F7
:1028AC004B607B681B6803F00103002B40D07B68F6
:1028BC005B68012B07D1474B1B6803F40033002BDB
:1028CC0015D101237FE07B685B68022B07D1414B5C
:1028DC001B6803F00073002B09D1012373E03D4BFF
:1028EC001B6803F00203002B01D101236BE0394B71
:1028FC005B6823F003027B685B68364913434B60CB
:10290C00FEF772FCF8600AE0FEF76EFC0246FB680C
:10291C00D31A41F28832934201D9032353E02D4B51
:10292C005B6803F00C027B685B689B009A42EBD1FE
:10293C00274B1B6803F007033A689A4210D2244BCA
:10294C001B6823F0070222493B6813430B60204BA2
:10295C001B6803F007033A689A4201D0012332E066
:10296C007B681B6803F00403002B08D0194B5B68D1
:10297C0023F4E0627B68DB68164913434B607B6889
:10298C001B6803F00803002B09D0124B5B6823F47F
:10299C0060527B681B69DB000E4913434B6000F0EF
:1029AC0021F802460B4B5B681B0903F00F030A4925
:1029BC00CB5C22FA03F3094A1360094B1B681846D7
:1029CC00FEF7D0FB002318461037BD4680BD00BF74
:1029DC000020024000100240002D000800000020E2
:1029EC000400002080B487B000AF0023FB600023FC
:1029FC00BB6000237B6100237B6000233B611E4B8B
:102A0C005B68FB60FB6803F00C03042B02D0082B03
:102A1C0003D027E0194B3B6127E0FB689B0C03F0CC
:102A2C000F03174AD35C7B60FB6803F48033002BE5
:102A3C0010D0114B5B685B0C03F00103114AD35CA3
:102A4C00BB607B680D4A03FB02F2BB68B2FBF3F37D
:102A5C007B6104E07B680C4A02FB03F37B617B69BE
:102A6C003B6102E0054B3B6100BF3B6918461C37DC
:102A7C00BD4680BC704700BF0010024000127A00B7
:102A8C00102D0008202D000800093D0080B485B0F1
:102A9C0000AF78600A4B1B680A4AA2FB03235B0A4F
:102AAC007A6802FB03F3FB6000BFFB685A1EFA60F6
:102ABC00002BF9D100BF00BF1437BD4680BC704756
:102ACC0000000020D34D621080B586B000AF786056
:102ADC0000233B610023FB607B681B6803F0010350
:102AEC00002B7DD00023FB754F4BDB6903F080532B
:102AFC00002B0DD14C4BDB694B4A43F08053D36117
:102B0C00494BDB6903F08053BB60BB680123FB7549
:102B1C00464B1B6803F48073002B18D1434B1B6886
:102B2C00424A43F480731360FEF75EFB386108E0A1
:102B3C00FEF75AFB02463B69D31A642B01D90323D7
:102B4C006DE03A4B1B6803F48073002BF0D0364BCE
:102B5C001B6A03F44073FB60FB68002B2ED07B6870
:102B6C005B6803F44073FA689A4227D02E4B1B6AB9
:102B7C0023F44073FB602E4B01221A602C4B002275
:102B8C001A60294AFB681362FB6803F00103002BEF
:102B9C0014D0FEF729FB38610AE0FEF725FB02464C
:102BAC003B69D31A41F28832934201D9032336E0B0
:102BBC001D4B1B6A03F00203002BEED01A4B1B6A51
:102BCC0023F440727B685B68174913430B62FB7DEF
:102BDC00012B05D1144BDB69134A23F08053D361CD
:102BEC007B681B6803F00203002B08D00E4B5B685C
:102BFC0023F440427B689B680B4913434B607B6812
:102C0C001B6803F01003002B08D0074B5B6823F400
:102C1C0080027B68DB68044913434B600023184631
:102C2C001837BD4680BD00BF001002400070004048
:102C3C004004424203460244934200D1704703F8D9
:102C4C00011BF9E770B500260C4D0D4C641BA4104C
:102C5C00A64209D100F01AF800260A4D0A4C641B52
:102C6C00A410A64205D170BD55F8043B9847013617
:102C7C00EEE755F8043B98470136F2E7242D00089F
:102C8C00242D0008242D0008282D0008F8B500BFBD
:102C9C00F8BC08BC9E467047F8B500BFF8BC08BC31
:042CAC009E46704789
:102CB00050524F46204D6F7A61727400414E303A47
:102CC000414E313A414E32003A000000000000000F
:102CD000000C014000100000000C0140002000002A
:102CE000000C014000400000000C0140008000008A
:102CF000000C014000080000000C0140000400002E
:102D0000000000000000000001020304060708099B
:102D100002030405060708090A0B0C0D0E0F10101C
:042D200001020000AC
:042D24003101000871
:042D28000D01000891
:0C2D2C0000127A001000000001000000FE
:04000005080010F9E6
:00000001FF
