:020000040800F2
:1000000000500020291A0008051800080D180008E3
:10001000151800081D180008251800080000000029
:100020000000000000000000000000002D18000883
:100030003918000800000000451800085118000891
:10004000711A0008711A0008711A0008711A000864
:10005000711A0008711A0008711A0008711A000854
:10006000711A0008711A0008711A00085D1800085A
:10007000711A0008711A0008711A0008711A000834
:10008000711A0008711A000871180008711A000826
:10009000711A0008711A0008711A0008711A000814
:1000A000711A0008711A0008711A0008711A000804
:1000B00085180008711A0008711A0008711A0008E2
:1000C000711A0008711A0008711A0008711A0008E4
:1000D000711A0008711A0008711A0008711A0008D4
:1000E000711A0008711A0008711A00080000000057
:1000F0000000000000000000000000000000000000
:0C01000000000000000000005FF808F1A3
:1001100010B5054C237833B9044B13B10448AFF341
:1001200000800123237010BDD801002000000000D2
:10013000907B000808B5034B1BB103490348AFF39C
:10014000008008BD00000000DC010020907B00085A
:10015000034613F8012B002AFBD1181A0138704707
:1001600081F0004102E000BF83F0004330B54FEA68
:1001700041044FEA430594EA050F08BF90EA020FD5
:100180001FBF54EA000C55EA020C7FEA645C7FEA68
:10019000655C00F0E2804FEA5454D4EB5555B8BF8B
:1001A0006D420CDD2C4480EA020281EA030382EAFC
:1001B000000083EA010180EA020281EA0303362D8E
:1001C00088BF30BD11F0004F4FEA01314FF4801C61
:1001D0004CEA113102D0404261EB410113F0004F73
:1001E0004FEA03334CEA133302D0524263EB43032A
:1001F00094EA050F00F0A780A4F10104D5F1200EC8
:100200000DDB02FA0EFC22FA05F2801841F1000122
:1002100003FA0EF2801843FA05F359410EE0A5F1F6
:1002200020050EF1200E012A03FA0EFC28BF4CF027
:10023000020C43FA05F3C01851EBE37101F00045DD
:1002400007D54FF0000EDCF1000C7EEB00006EEBEA
:100250000101B1F5801F1BD3B1F5001F0CD3490874
:100260005FEA30004FEA3C0C04F101044FEA4452CB
:1002700012F5800F80F09A80BCF1004F08BF5FEA52
:10028000500C50F1000041EB045141EA050130BD32
:100290005FEA4C0C404141EB0101013C28BFB1F544
:1002A000801FE9D291F0000F04BF01460020B1FA8F
:1002B00081F308BF2033A3F10B03B3F120020CDA62
:1002C0000C3208DD02F1140CC2F10C0201FA0CF040
:1002D00021FA02F10CE002F11402D8BFC2F1200CA5
:1002E00001FA02F120FA0CFCDCBF41EA0C0190405B
:1002F000E41AA2BF01EB0451294330BD6FEA0404A4
:100300001F3C1CDA0C340EDC04F11404C4F120028E
:1003100020FA04F001FA02F340EA030021FA04F3A0
:1003200045EA030130BDC4F10C04C4F1200220FAF7
:1003300002F001FA04F340EA0300294630BD21FA35
:1003400004F0294630BD94F0000F83F4801306BFFB
:1003500081F480110134013D4EE77FEA645C18BFEF
:100360007FEA655C29D094EA050F08BF90EA020F86
:1003700005D054EA000C04BF1946104630BD91EA7E
:10038000030F1EBF0021002030BD5FEA545C05D181
:100390004000494128BF41F0004130BD14F58004C0
:1003A0003CBF01F5801130BD01F0004545F0FE4134
:1003B00041F470014FF0000030BD7FEA645C1ABF69
:1003C000194610467FEA655C1CBF0B46024650EAA0
:1003D000013406BF52EA033591EA030F41F40021CC
:1003E00030BD00BF90F0000F04BF0021704730B552
:1003F0004FF4806404F132044FF000054FF0000127
:1004000050E700BF90F0000F04BF0021704730B5E7
:100410004FF4806404F1320410F0004548BF4042BC
:100420004FF000013EE700BF42004FEAE2014FEA11
:1004300031014FEA02701FBF12F07F4393F07F4FEC
:1004400081F06051704732F07F4208BF704793F0EF
:100450007F4F04BF41F40021704730B54FF4607402
:1004600001F0004521F000411CE700BF50EA010205
:1004700008BF704730B54FF000050AE050EA0102AE
:1004800008BF704730B511F0004502D5404261EB1E
:1004900041014FF4806404F132045FEA915C3FF45F
:1004A000D8AE4FF003025FEADC0C18BF03325FEAFC
:1004B000DC0C18BF033202EBDC02C2F1200300FAAD
:1004C00003FC20FA02F001FA03FE40EA0E0021FAD2
:1004D00002F11444BDE600BF70B54FF0FF0C4CF4C0
:1004E000E06C1CEA11541DBF1CEA135594EA0C0F72
:1004F00095EA0C0F00F0DEF82C4481EA030621EAAD
:100500004C5123EA4C5350EA013518BF52EA0335E7
:1005100041F4801143F4801338D0A0FB02CE4FF099
:100520000005E1FB02E506F00042E0FB03E54FF0C9
:100530000006E1FB03569CF0000F18BF4EF0010EC1
:10054000A4F1FF04B6F5007F64F5407404D25FEABD
:100550004E0E6D4146EB060642EAC62141EA555170
:100560004FEAC52040EA5E504FEACE2EB4F1FD0CB2
:1005700088BFBCF5E06F1ED8BEF1004F08BF5FEA30
:10058000500E50F1000041EB045170BD06F00046E2
:1005900046EA010140EA020081EA0301B4EB5C048F
:1005A000C2BFD4EB0C0541EA045170BD41F4801187
:1005B0004FF0000E013C00F3AB8014F1360FDEBFAC
:1005C000002001F0004170BDC4F10004203C35DA88
:1005D0000C341BDC04F11404C4F1200500FA05F30B
:1005E00020FA04F001FA05F240EA020001F00042AC
:1005F00021F0004110EBD37021FA04F642EB060122
:100600005EEA430E08BF20EAD37070BDC4F10C044B
:10061000C4F1200500FA04F320FA05F001FA04F20F
:1006200040EA020001F0004110EBD37041F10001FB
:100630005EEA430E08BF20EAD37070BDC4F1200506
:1006400000FA05F24EEA020E20FA04F301FA05F26E
:1006500043EA020321FA04F001F0004121FA04F216
:1006600020EA020000EBD3705EEA430E08BF20EAE6
:10067000D37070BD94F0000F0FD101F00046400020
:1006800041EB010111F4801F08BF013CF7D041EAA2
:10069000060195F0000F18BF704703F000465200A6
:1006A00043EB030313F4801F08BF013DF7D043EA77
:1006B0000603704794EA0C0F0CEA135518BF95EA2D
:1006C0000C0F0CD050EA410618BF52EA4306D1D1B4
:1006D00081EA030101F000414FF0000070BD50EAD3
:1006E000410606BF1046194652EA430619D094EA5D
:1006F0000C0F02D150EA013613D195EA0C0F05D147
:1007000052EA03361CBF104619460AD181EA03019A
:1007100001F0004141F0FE4141F470014FF0000052
:1007200070BD41F0FE4141F4780170BD70B54FF0ED
:10073000FF0C4CF4E06C1CEA11541DBF1CEA13556D
:1007400094EA0C0F95EA0C0F00F0A7F8A4EB05044F
:1007500081EA030E52EA03354FEA013100F0888046
:100760004FEA03334FF0805545EA131343EA12630F
:100770004FEA022245EA111545EA10654FEA0026C4
:100780000EF000419D4208BF964244F1FD0404F57D
:10079000407402D25B084FEA3202B61A65EB0305D9
:1007A0005B084FEA32024FF480104FF4002CB6EB96
:1007B000020E75EB030E22BFB61A754640EA0C0016
:1007C0005B084FEA3202B6EB020E75EB030E22BF56
:1007D000B61A754640EA5C005B084FEA3202B6EB97
:1007E000020E75EB030E22BFB61A754640EA9C0056
:1007F0005B084FEA3202B6EB020E75EB030E22BF26
:10080000B61A754640EADC0055EA060E18D04FEAE3
:10081000051545EA16754FEA06164FEAC30343EA83
:1008200052734FEAC2025FEA1C1CC0D111F4801F50
:100830000BD141EA00014FF000004FF0004CB6E749
:1008400011F4801F04BF01430020B4F1FD0C88BFE8
:10085000BCF5E06F3FF6AFAEB5EB030C04BFB6EBF3
:10086000020C5FEA500C50F1000041EB045170BDE6
:100870000EF0004E4EEA113114EB5C04C2BFD4EB13
:100880000C0541EA045170BD41F480114FF0000E97
:10089000013C90E645EA060E8DE60CEA135594EA13
:1008A0000C0F08BF95EA0C0F3FF43BAF94EA0C0F16
:1008B0000AD150EA01347FF434AF95EA0C0F7FF48B
:1008C00025AF104619462CE795EA0C0F06D152EADF
:1008D00003353FF4FDAE1046194622E750EA4106C3
:1008E00018BF52EA43067FF4C5AE50EA41047FF4D4
:1008F0000DAF52EA43057FF4EBAE12E74FF0FF3C39
:1009000006E000BF4FF0010C02E000BF4FF0010C09
:100910004DF804CD4FEA410C7FEA6C5C4FEA430C82
:1009200018BF7FEA6C5C1BD001B050EA410C0CBFD1
:1009300052EA430C91EA030F02BF90EA020F002033
:10094000704710F1000F91EA030F58BF994208BF9A
:1009500090422CBFD8176FEAE37040F00100704757
:100960004FEA410C7FEA6C5C02D150EA013C07D1AE
:100970004FEA430C7FEA6C5CD6D152EA033CD3D0F9
:100980005DF8040B704700BF8446104662468C46F3
:100990001946634600E000BF01B5FFF7B7FF002826
:1009A00048BF10F1000F01BD4DF808EDFFF7F4FF4F
:1009B0000CBF012000205DF808FB00BF4DF808EDDA
:1009C000FFF7EAFF34BF012000205DF808FB00BFFD
:1009D0004DF808EDFFF7E0FF94BF012000205DF81F
:1009E00008FB00BF4DF808EDFFF7CEFF94BF0120D4
:1009F00000205DF808FB00BF4DF808EDFFF7C4FFCD
:100A000034BF012000205DF808FB00BF4FEA410C15
:100A10007FEA6C5C02D150EA013C0AD14FEA430CF8
:100A20007FEA6C5C02D152EA033C02D14FF0000035
:100A300070474FF0010070474FEA410212F5001273
:100A400015D211D56FF47873B3EB625212D94FEA15
:100A5000C12343F0004343EA505311F0004F23FAFF
:100A600002F018BF404270474FF00000704750EA54
:100A7000013005D111F0004008BF6FF00040704711
:100A80004FF00000704700BF4A0011D212F500126B
:100A900011D20DD56FF47873B3EB62520ED44FEAD6
:100AA000C12343F0004343EA505323FA02F0704756
:100AB0004FF00000704750EA013002D14FF0FF3094
:100AC00070474FF0000070474FEA4102B2F1E04337
:100AD00024BFB3F5001CDCF1FE5C0DD901F0004C25
:100AE0004FEAC0024CEA5070B2F1004F40EB830075
:100AF00008BF20F00100704711F0804F21D113F1A1
:100B00003872BCBF01F00040704741F480114FEAD9
:100B10005252C2F11802C2F1200C10FA0CF320FA62
:100B200002F018BF40F001004FEAC1234FEAD3237F
:100B300003FA0CFC40EA0C0023FA02F34FEA4303E9
:100B4000CCE77FEA625307D150EA01331EBF4FF072
:100B5000FE4040F44000704701F0004040F0FE408D
:100B600040F40000704700BF80B483B000AF7860ED
:100B700000BF0C37BD4680BC70470000000000007D
:100B8000B0B500AF00F076FF00F0FFFA00F090FC87
:100B900000F070FC00F054FB00F0B6FB00F040FCED
:100BA000BB4802F093FFBB4801F074FC0422BA4931
:100BB000B84801F0BDF80021B54803F031F8B74B53
:100BC000C8221A806421002000F0D6F903461A4694
:100BD000B34B1A806421012000F0CEF903461A4677
:100BE000B04B1A806421022000F0C6F903461A4671
:100BF000AD4B1A806421032000F0BEF903461A466B
:100C0000AA4B1A80A64B1B881846FFF7FBFB9EA336
:100C1000D3E90023FFF760FC02460B4614461D464D
:100C2000A34B1B681846FFF7FFFB02460B46204606
:100C30002946FFF751FC02460B4610461946FFF7BE
:100C400023FF03469AB29B4B1A80964B1B8818468B
:100C5000FFF7D8FB8CA3D3E90023FFF73DFC024646
:100C60000B4614461D46924B1B681846FFF7DCFBEB
:100C700002460B4620462946FFF72EFC02460B464D
:100C800010461946FFF700FF03469AB28A4B1A80B6
:100C9000854B1B881846FFF7B5FB7BA3D3E90023E0
:100CA000FFF71AFC02460B4614461D46804B1B6894
:100CB0001846FFF7B9FB02460B4620462946FFF7C8
:100CC0000BFC02460B4610461946FFF7DDFE0346B5
:100CD0009AB27A4B1A80754B1B881846FFF792FB25
:100CE00069A3D3E90023FFF7F7FB02460B4614463E
:100CF0001D466F4B1B681846FFF796FB02460B46D6
:100D000020462946FFF7E8FB02460B4610461946E7
:100D1000FFF7BAFE03469AB2694B1A80654B1B88EF
:100D200041F294124FF4FA71184600F00DFA03469E
:100D30001A46604B1A805F4B1B880121184600F051
:100D400053F903465F4A13605B4B1B880221184628
:100D500000F04AF903465C4A1360584B1B88032194
:100D6000184600F041F90346584A1360544B1B885B
:100D70000421184600F038F90346554A1360514BD8
:100D80001B681846FFF750FB4FF00002514BFFF76E
:100D9000A3FB02460B4610461946FFF775FE0346B5
:100DA0009AB23E4B1A803D4B1A884FF080435A63EB
:100DB000404B1B881A464849484804F0ADFD474857
:100DC000FFF7C6F903469AB232234449444803F078
:100DD000B3FE394B1B881A464249404804F09CFD3B
:100DE0003E48FFF7B5F903469AB232233B493C48E7
:100DF00003F0A2FE314B1B881A463B49374804F0EA
:100E00008BFD3648FFF7A4F903469AB232233349E3
:100E1000334803F091FE2A4B1B881A4633492F486A
:100E200004F07AFD2D48FFF793F903469AB2322376
:100E30002A492B4803F080FE224B1B681846FFF717
:100E4000F3FA02460B462A49244804F065FD23487C
:100E5000FFF77EF903469AB232232049204803F077
:100E60006BFE194B1B681846FFF7DEFA02460B466D
:100E700020491A4804F050FD1848FFF769F9034665
:100E80009AB239E0AFF300807EE36BCF2C89F33F59
:100E900068020020F4010020F80200202003002056
:100EA00000030020020300200403002006030020AA
:100EB00000000020080300200A0300200C0300208B
:100EC0000E0300201003002014030020180300204C
:100ED0001C03002000802440A87B0008240300207D
:100EE000B0020020BC7B0008D47B0008E87B00082F
:100EF000FC7B0008107C000832231949194803F0D4
:100F00001BFE194B1B681846FFF78EFA02460B466C
:100F10001649134804F000FD1148FFF719F903467C
:100F20009AB232230E490F4803F006FE104B1B689D
:100F30001846FFF779FA02460B460E49084804F0B6
:100F4000EBFC0748FFF704F903469AB23223044941
:100F5000044803F0F1FD642000F0EEFD00BF31E62F
:100F600024030020B002002018030020247C000885
:100F70001C030020387C000880B487B000AF034613
:100F80000A46FB711346BB7100237B610023FB748F
:100F90000023FB8114E0FB79114A32F813301A4622
:100FA0007B6913447B61FB7C0133FB7400233B8230
:100FB00002E03B8A01333B823B8AB3F5615FF8D3A1
:100FC000FA7CBB799A42E6D3BB797A69B2FBF3F338
:100FD000FB81FB8918461C37BD4680BC704700BFAB
:100FE000F80200200000000080B584B000AF034686
:100FF0000A46FB8013467B714FF00003FB607B7950
:10100000042B79D801A252F823F000BFF910000890
:1010100021100008571000088D100008C3100008A8
:10102000FB881846FFF7EEF937A3D3E90023FFF753
:1010300053FA02460B461046194635A3D3E900235E
:10104000FFF792F802460B4610461946FFF73CFDA3
:101050000346FB6051E0FB881846FFF7D3F92EA347
:10106000D3E90023FFF738FA02460B46104619462B
:101070002BA3D3E90023FFF777F802460B4610466F
:101080001946FFF721FD0346FB6036E0FB88184652
:10109000FFF7B8F924A3D3E90023FFF71DFA0246AE
:1010A0000B461046194622A3D3E90023FFF75EF84A
:1010B00002460B4610461946FFF706FD0346FB6045
:1010C0001BE0FB881846FFF79DF91BA3D3E900231B
:1010D000FFF702FA02460B461046194618A3D3E959
:1010E0000023FFF741F802460B4610461946FFF76A
:1010F000EBFC0346FB6000E000BFFB6818461037BE
:10110000BD4680BDAFF300809B559FABADD89F3FE0
:101110005C8FC2F5281C3840F38E53742497AF3F80
:101120003333333333733740FA7E6ABC749398BFDA
:1011300002BC0512140B5B40FA7E6ABC7493983FA4
:101140004D158C4AEA84284080B485B000AF034630
:10115000FB800B46BB8013467B800023FB81FA8813
:101160007B889A4202D97B88FB8108E0FA88BB8899
:101170009A4202D2BB88FB8101E0FB88FB81FB899C
:1011800018461437BD4680BC704780B594B000AF98
:1011900007F1280328220021184604F022FC07F159
:1011A000140300221A605A609A60DA601A613B1DCB
:1011B00000221A605A609A60DA600123BB624FF421
:1011C0008033FB6200233B630123BB6302237B6408
:1011D0004FF48033BB644FF4E013FB6407F1280342
:1011E000184601F0A7FE0346002B01D000F0ACF931
:1011F0000F237B610223BB610023FB614FF48063FB
:101200003B624FF4A0637B6207F11403022118468E
:1012100002F012F90346002B01D000F095F90223E9
:101220007B600023FB603B1D184602F093FA0346E7
:10123000002B01D000F088F900BF5037BD4680BDBB
:1012400080B584B000AF3B1D00221A605A609A60DE
:101250002B4B2C4A1A602A4B4FF480729A60284B11
:1012600001221A73264B00221A75254B4FF4602277
:10127000DA61234B00225A60214B04221A61204874
:1012800000F07EFC0346002B01D000F05DF9002346
:101290007B600123BB600723FB603B1D1946184898
:1012A00000F0FEFE0346002B01D000F04DF90223B2
:1012B000BB603B1D1946124800F0F2FE0346002BAE
:1012C00001D000F041F90323BB603B1D19460C48D7
:1012D00000F0E6FE0346002B01D000F035F90423B0
:1012E000BB603B1D1946064800F0DAFE0346002BA2
:1012F00001D000F029F900BF1037BD4680BD00BF06
:10130000F40100200024014080B592B000AF07F145
:10131000380300221A605A609A60DA6007F12403E9
:1013200000221A605A609A60DA601A6107F11C03A1
:1013300000221A605A603B4600221A605A609A6086
:10134000DA601A615A619A61344B4FF080421A6038
:10135000324B06225A60314B00229A602F4B40F2EA
:101360000142DA602D4B00221A612C4B00229A6157
:101370002A4802F05BFB0346002B01D000F0E4F8A2
:101380004FF48053BB6307F138031946234802F03A
:101390009BFE0346002B01D000F0D6F81F4802F058
:1013A000E7FB0346002B01D000F0CEF800237B6260
:1013B0000023BB6207F124031946184802F04BFFD3
:1013C0000346002B01D000F0BFF80023FB6100238F
:1013D0003B6207F11C031946104803F0EDFA03467F
:1013E000002B01D000F0B0F860233B6000237B604D
:1013F0000023BB6000233B613B460022194607489F
:1014000002F0A0FD0346002B01D000F09DF8034838
:1014100000F066F900BF4837BD4680BD6802002075
:1014200080B500AF114B124A1A60104B4FF4E132F5
:101430005A600E4B00229A600C4B0022DA600B4B74
:1014400000221A61094B0C225A61084B00229A6152
:10145000064B0022DA61054803F01EFB0346002B11
:1014600001D000F071F800BF80BD00BFB0020020C5
:101470000038014080B582B000AF0C4B5B690B4A6D
:1014800043F001035361094B5B6903F001037B6087
:101490007B68002200210B2001F08BF90B2001F06A
:1014A000A4F900BF0837BD4680BD00BF0010024050
:1014B00080B588B000AF07F1100300221A605A60AF
:1014C0009A60DA601E4B9B691D4A43F010039361DA
:1014D0001B4B9B6903F01003FB60FB68184B9B6977
:1014E000174A43F020039361154B9B6903F02003D7
:1014F000BB60BB68124B9B69114A43F004039361C4
:101500000F4B9B6903F004037B607B6800224FF460
:1015100000510C4801F0F6FC4FF400533B610123ED
:101520007B610023BB610323FB6107F110031946B4
:10153000044801F063FB00BF2037BD4680BD00BFFB
:10154000001002400010014080B400AF72B600BF2E
:1015500000BFFDE780B485B000AF154B9B69144A0E
:1015600043F001039361124B9B6903F00103BB60DD
:10157000BB680F4BDB690E4A43F08053D3610C4BC1
:10158000DB6903F080537B607B680A4B5B68FB6020
:10159000FB6823F0E063FB60FB6843F08063FB6063
:1015A000044AFB68536000BF1437BD4680BC7047D7
:1015B000001002400000014080B588B000AF7860A4
:1015C00007F1100300221A605A609A60DA607B68A3
:1015D0001B682C4A934251D12B4B9B692A4A43F4F6
:1015E00000739361284B9B6903F40073FB60FB68F5
:1015F000254B9B69244A43F004039361224B9B696A
:1016000003F00403BB60BB680F233B6103237B61D2
:1016100007F1100319461D4801F0F0FA1C4B1D4A52
:101620001A601B4B00225A60194B00229A60184B1B
:101630008022DA60164B4FF480721A61144B4FF41B
:1016400080625A61124B20229A61114B0022DA61AA
:101650000F4801F0E5F80346002B01D0FFF774FFB7
:101660007B680B4A1A620A4A7B6853620022002197
:10167000122001F09EF8122001F0B7F800BF2037C9
:10168000BD4680BD0024014000100240000801401A
:10169000240200200800024080B584B000AF7860CA
:1016A0007B681B68B3F1804F13D10C4BDB690B4A8D
:1016B00043F00103D361094BDB6903F00103FB60D5
:1016C000FB68002200211C2001F073F81C2001F0AF
:1016D0008CF800BF1037BD4680BD00BF001002402F
:1016E00080B588B000AF786007F10C0300221A6063
:1016F0005A609A60DA607B681B68B3F1804F2AD128
:10170000174B9B69164A43F004039361144B9B6982
:1017100003F00403BB60BB684FF40043FB6002238B
:101720003B610223BB6107F10C0319460D4801F030
:1017300065FA0D4B5B68FB61FB6923F44073FB6149
:10174000FB6943F0E063FB61FB6943F48073FB6179
:10175000054AFB69536000BF2037BD4680BD00BF0E
:1017600000100240000801400000014080B588B030
:1017700000AF786007F1100300221A605A609A6087
:10178000DA607B681B681C4A934231D11B4B9B6912
:101790001A4A43F480439361184B9B6903F48043D6
:1017A000FB60FB68154B9B69144A43F0040393618B
:1017B000124B9B6903F00403BB60BB684FF40073DA
:1017C0003B6102237B610323FB6107F11003194690
:1017D0000B4801F013FA4FF480633B6100237B61F7
:1017E0000023BB6107F110031946054801F006FA12
:1017F00000BF2037BD4680BD0038014000100240C8
:101800000008014080B400AF00BFFDE780B400AF26
:1018100000BFFDE780B400AF00BFFDE780B400AFBC
:1018200000BFFDE780B400AF00BFFDE780B400AFAC
:1018300000BFBD4680BC704780B400AF00BFBD464E
:1018400080BC704780B400AF00BFBD4680BC70470D
:1018500080B500AF00F054F900BF80BD80B500AF87
:10186000024801F097F800BF80BD00BF24020020AD
:1018700080B500AF024800F039FB00BF80BD00BF5B
:10188000F401002080B500AF024802F06BFA00BFFF
:1018900080BD00BF6802002080B400AF012318465D
:1018A000BD4680BC704780B582B000AF78603960BB
:1018B00004F0EAF8034616221A604FF0FF33184688
:1018C0000837BD4680BD80B582B000AF78604FF06C
:1018D000FF317868FFF7E7FF00BFFDE780B586B00E
:1018E00000AFF860B9607A6000237B610AE0AFF373
:1018F00000800146BB685A1CBA60CAB21A707B6984
:1019000001337B617A697B689A42F0DB7B68184619
:101910001837BD4680BD80B586B000AFF860B960AD
:101920007A6000237B6109E0BB685A1CBA601B78AF
:101930001846AFF300807B6901337B617A697B686D
:101940009A42F1DB7B6818461837BD4680BD80B4EB
:1019500083B000AF78604FF0FF3318460C37BD46B8
:1019600080BC704780B483B000AF786039603B685A
:101970004FF400525A60002318460C37BD4680BC15
:10198000704780B483B000AF7860012318460C37ED
:10199000BD4680BC704780B485B000AFF860B960C8
:1019A0007A60002318461437BD4680BC704700009B
:1019B00080B586B000AF7860144A154BD31A7B61AE
:1019C0007B693B61134B1B68002B02D1114B124A00
:1019D0001A60104B1A687B6813443A699A4207D21E
:1019E00004F052F803460C221A604FF0FF3309E06E
:1019F000084B1B68FB60074B1A687B681344054A59
:101A00001360FB6818461837BD4680BD00500020A3
:101A10000004000058030020B004002080B400AF90
:101A200000BFBD4680BC7047FFF7F8FF0B480C496C
:101A30000C4A002302E0D458C4500433C4188C422A
:101A4000F9D3094A094C002301E013600432A24291
:101A5000FBD304F01FF8FFF793F870470000002055
:101A6000D80100200C800008D8010020AC04002020
:101A7000FEE7000080B500AF084B1B68074A43F043
:101A800010031360032000F089FE0F2000F008F817
:101A9000FFF760FD0023184680BD00BF0020024014
:101AA00080B582B000AF7860124B1A68124B1B7879
:101AB00019464FF47A73B3FBF1F3B2FBF3F3184614
:101AC00000F0A1FE0346002B01D001230EE07B684D
:101AD0000F2B0AD8002279684FF0FF3000F069FE22
:101AE000064A7B681360002300E00123184608378C
:101AF000BD4680BD040000200C000020080000202E
:101B000080B400AF054B1B781A46054B1B68134485
:101B1000034A136000BFBD4680BC70470C00002024
:101B20005C03002080B400AF024B1B681846BD4622
:101B300080BC70475C03002080B584B000AF786043
:101B4000FFF7F0FFB8607B68FB60FB68B3F1FF3F15
:101B500005D00A4B1B781A46FB681344FB6000BF94
:101B6000FFF7E0FF0246BB68D31AFA689A42F7D83B
:101B700000BF00BF1037BD4680BD00BF0C00002075
:101B800080B586B000AF78600023FB7500233B6111
:101B90000023BB600023FB607B68002B01D1012385
:101BA000BEE07B689B68002B7B689B6A002B09D199
:101BB0007B680022DA627B68002283F82420786840
:101BC000FFF7FAFC786800F0BDFB0346FB757B6805
:101BD0009B6A03F01003002B40F09980FB7D002BE3
:101BE00040F095807B689B6A23F4885323F00203BE
:101BF00043F002027B689A627B685A687B68DB6903
:101C00001A437B681B7B5B001343BA681343BB60BA
:101C10007B689B68B3F5807F03D07B689B68012B52
:101C200002D14FF4807300E000233A6913433B6113
:101C30007B681B7D012B19D17B681B7B002B09D195
:101C40007B689B69013B5A033B69134343F4006380
:101C50003B610BE07B689B6A43F020027B689A62E1
:101C60007B68DB6A43F001027B68DA627B681B6891
:101C70005B6823F469417B681B683A690A435A60D0
:101C80007B681B689A68284B13407A681268B968A9
:101C90000B4393607B689B68B3F5807F03D07B68C0
:101CA0009B68012B04D17B681B69013B1B05FB6012
:101CB0007B681B68DB6A23F470017B681B68FA6829
:101CC0000A43DA627B681B689A68184B1340BA684B
:101CD0009A420BD17B680022DA627B689B6A23F010
:101CE000030343F001027B689A6218E07B689B6AF9
:101CF00023F0120343F010027B689A627B68DB6A70
:101D000043F001027B68DA620123FB7507E07B6820
:101D10009B6A43F010027B689A620123FB75FB7D8E
:101D200018461837BD4680BDFDF7E1FFFE0E1FFFC8
:101D300080B586B000AFF860B9607A600023FB75AB
:101D4000FB681B68644A934204D0FB681B68634AC3
:101D5000934206D1604B5B6803F47023002B40F084
:101D6000B380FB6893F82430012B01D10223AEE04D
:101D7000FB68012283F82420F86800F089FA034602
:101D8000FB75FB7D002B40F09A80FB689B6A23F477
:101D9000706323F0010343F48072FB689A62FB686E
:101DA0001B684E4A934205D14B4B5B6803F470238A
:101DB000002B15D1FB689B6A23F48012FB689A62A2
:101DC000FB681B685B6803F48063002B26D0FB680C
:101DD0009B6A23F4405343F48052FB689A621DE0EF
:101DE000FB689B6A43F48012FB689A62FB681B687D
:101DF000394A934204D0FB681B68384A93420DD19C
:101E0000354B5B6803F48063002B07D0FB689B6A4B
:101E100023F4405343F48052FB689A62FB689B6A48
:101E200003F48053002B06D0FB68DB6A23F0060224
:101E3000FB68DA6202E0FB680022DA62FB680022DB
:101E400083F82420FB681B6A254A9A62FB681B6A98
:101E5000244ADA62FB681B6A234A1A63FB681B6820
:101E60006FF002021A60FB681B689A68FB681B68C7
:101E700042F480729A60FB68186AFB681B684C33F6
:101E80001946BA687B6800F025FDFB681B689B68F3
:101E900003F46023B3F5602F08D1FB681B689A68D0
:101EA000FB681B6842F4A0029A600FE0FB681B68A5
:101EB0009A68FB681B6842F480129A6006E0FB682F
:101EC000002283F8242001E00123FB75FB7D1846E6
:101ED0001837BD4680BD00BF0024014000280140E6
:101EE000C7230008432400085F24000880B584B09D
:101EF00000AF78607B681B681B68FB607B681B68B1
:101F00005B68BB60BB6803F02003002B3ED0FB681E
:101F100003F00203002B39D07B689B6A03F01003A7
:101F2000002B05D17B689B6A43F400727B689A6240
:101F30007B681B689B6803F46023B3F5602F1DD199
:101F40007B681B7B002B19D17B681B685A687B68F8
:101F50001B6822F020025A607B689B6A23F480721F
:101F60007B689A627B689B6A03F48053002B05D1DF
:101F70007B689B6A43F001027B689A627868FEF78F
:101F8000F3FD7B681B686FF012021A60BB6803F0F8
:101F90008003002B4DD0FB6803F00403002B48D0D6
:101FA0007B689B6A03F01003002B05D17B689B6A5A
:101FB00043F400527B689A627B681B689B6803F459
:101FC000E043B3F5E04F12D07B681B685B6803F415
:101FD0008063002B25D17B681B689B6803F460231A
:101FE000B3F5602F1DD17B681B7B002B19D17B685B
:101FF0001B685A687B681B6822F080025A607B6805
:102000009B6A23F480527B689A627B689B6A03F424
:102010008073002B05D17B689B6A43F001027B68CB
:102020009A62786800F0E4FA7B681B686FF00C0233
:102030001A60BB6803F04003002B12D0FB6803F06A
:102040000103002B0DD07B689B6A43F480327B68D0
:102050009A62786800F012F87B681B686FF00102E2
:102060001A6000BF1037BD4680BD80B483B000AF9A
:10207000786000BF0C37BD4680BC704780B483B029
:1020800000AF786000BF0C37BD4680BC704780B49D
:1020900083B000AF786000BF0C37BD4680BC70478E
:1020A00080B485B000AF786039600023FB730023F3
:1020B000BB607B6893F82430012B01D10223DCE064
:1020C0007B68012283F824203B685B68062B1CD8C0
:1020D0007B681B68596B3B685A6813469B00134426
:1020E000053B1F2202FA03F3DB4319403B681868E3
:1020F0003B685A6813469B001344053B00FA03F201
:102100007B681B680A435A633CE03B685B680C2BA6
:102110001CD87B681B68196B3B685A6813469B0088
:102120001344233B1F2202FA03F3DB4319403B68AD
:1021300018683B685A6813469B001344233B00FA17
:1021400003F27B681B680A431A631BE07B681B6809
:10215000D96A3B685A6813469B001344413B1F22CF
:1021600002FA03F3DB4319403B6818683B685A687E
:1021700013469B001344413B00FA03F27B681B6843
:102180000A43DA623B681B68092B1CD97B681B6811
:10219000D9683B681A6813465B0013441E3B07224C
:1021A00002FA03F3DB4319403B6898683B681A68FE
:1021B00013465B0013441E3B00FA03F27B681B6866
:1021C0000A43DA6019E07B681B6819693B681A6882
:1021D00013465B001344072202FA03F3DB43194062
:1021E0003B6898683B681A6813465B00134400FA22
:1021F00003F27B681B680A431A613B681B68102B5B
:1022000003D03B681B68112B32D17B681B681D4AC9
:10221000934225D17B681B689B6803F40003002B65
:1022200026D17B681B689A687B681B6842F40002B1
:102230009A603B681B68102B1AD1134B1B68134A1A
:10224000A2FB03239A0C13469B0013445B00BB6064
:1022500002E0BB68013BBB60BB68002BF9D107E023
:102260007B689B6A43F020027B689A620123FB73C0
:102270007B68002283F82420FB7B18461437BD4678
:1022800080BC7047002401400400002083DE1B4313
:1022900080B584B000AF78600023FB600023BB6092
:1022A0007B681B689B6803F00103012B40D07B68AF
:1022B0001B689A687B681B6842F001029A601F4B9A
:1022C0001B681F4AA2FB03239B0CBB6002E0BB6898
:1022D000013BBB60BB68002BF9D1FFF723FCF86022
:1022E0001FE0FFF71FFC0246FB68D31A022B18D928
:1022F0007B681B689B6803F00103012B11D07B688E
:102300009B6A43F010027B689A627B68DB6A43F049
:1023100001027B68DA627B68002283F824200123B3
:1023200007E07B681B689B6803F00103012BD8D191
:10233000002318461037BD4680BD00BF04000020B2
:1023400083DE1B4380B584B000AF78600023FB6060
:102350007B681B689B6803F00103012B2ED17B680F
:102360001B689A687B681B6822F001029A60FFF77D
:10237000D9FBF8601BE0FFF7D5FB0246FB68D31AD8
:10238000022B14D97B681B689B6803F00103012BA7
:102390000DD17B689B6A43F010027B689A627B6870
:1023A000DB6A43F001027B68DA62012307E07B68A5
:1023B0001B689B6803F00103012BDCD00023184647
:1023C0001037BD4680BD80B584B000AF78607B68B3
:1023D0005B6AFB60FB689B6A03F05003002B27D10C
:1023E000FB689B6A43F40072FB689A62FB681B6897
:1023F0009B6803F46023B3F5602F15D1FB681B7B4A
:10240000002B11D1FB689B6A23F48072FB689A62EF
:10241000FB689B6A03F48053002B05D1FB689B6A21
:1024200043F00102FB689A62F868FEF79DFB04E046
:10243000FB681B6A1B6B7868984700BF1037BD4666
:1024400080BD80B584B000AF78607B685B6AFB605C
:10245000F868FFF70AFE00BF1037BD4680BD80B5A3
:1024600084B000AF78607B685B6AFB60FB689B6A46
:1024700043F04002FB689A62FB68DB6A43F00402A7
:10248000FB68DA62F868FFF702FE00BF1037BD464E
:1024900080BD000090B587B000AF78600023FB7569
:1024A0000023FB607B6893F82430012B01D10223C9
:1024B00097E07B68012283F824207868FFF742FFC9
:1024C0000346FB757868FFF7E3FE0346FB75FB7D6B
:1024D000002B40F081807B689B6A23F4885323F0B3
:1024E000020343F002027B689A62404B1C680220A0
:1024F00001F0E6F90346B4FBF3F35B00FB6002E096
:10250000FB68013BFB60FB68002BF9D17B681B6813
:102510009A687B681B6842F008029A60FFF702FB2A
:1025200038611BE0FFF7FEFA02463B69D31A0A2B1B
:1025300014D97B681B689B6803F00803002B0DD03F
:102540007B689B6A23F0120343F010027B689A6257
:102550007B68002283F82420012342E07B681B680B
:102560009B6803F00803002BDCD17B681B689A682A
:102570007B681B6842F004029A60FFF7D3FA386167
:102580001BE0FFF7CFFA02463B69D31A0A2B14D996
:102590007B681B689B6803F00403002B0DD07B68ED
:1025A0009B6A23F0120343F010027B689A627B68F7
:1025B000002283F82420012313E07B681B689B68BA
:1025C00003F00403002BDCD17B689B6A23F0030338
:1025D00043F001027B689A627B68002283F8242022
:1025E000FB7D18461C37BD4690BD00BF040000208F
:1025F00080B483B000AF786000BF0C37BD4680BCAC
:102600007047000080B485B000AF78607B6803F04D
:102610000703FB600C4BDB68BB60BA684FF6FF0337
:102620001340BB60FB681A02BB68134343F0BF63EF
:1026300043F40033BB60044ABB68D36000BF143767
:10264000BD4680BC704700BF00ED00E080B400AF25
:10265000044BDB681B0A03F007031846BD4680BC29
:10266000704700BF00ED00E080B483B000AF0346C8
:10267000FB7197F90730002B0BDBFB7903F01F028E
:10268000064997F907305B09012000FA02F241F888
:10269000232000BF0C37BD4680BC704700E100E03E
:1026A00080B483B000AF03463960FB7197F90730FF
:1026B000002B0ADB3B68DAB20C4997F907301201AC
:1026C000D2B20B4483F800230AE03B68DAB208492F
:1026D000FB7903F00F03043B1201D2B20B441A76CC
:1026E00000BF0C37BD4680BC704700BF00E100E072
:1026F00000ED00E080B489B000AFF860B9607A60A6
:10270000FB6803F00703FB61FB69C3F10703042BBC
:1027100028BF0423BB61FB690433062B02D9FB6984
:10272000033B00E000237B614FF0FF32BB6902FAFC
:1027300003F3DA43BB681A407B699A404FF0FF31DC
:102740007B6901FA03F3D9437B680B4013431846B6
:102750002437BD4680BC704780B582B000AF78603A
:102760007B68013BB3F1807F01D301230FE00A4A6C
:102770007B68013B53600F214FF0FF30FFF790FF64
:10278000054B00229A60044B07221A60002318466A
:102790000837BD4680BD00BF10E000E080B582B0C4
:1027A00000AF78607868FFF72DFF00BF0837BD469F
:1027B00080BD80B586B000AF0346B9607A60FB7318
:1027C00000237B61FFF742FF78617A68B968786916
:1027D000FFF790FF024697F90F3011461846FFF7B2
:1027E0005FFF00BF1837BD4680BD80B582B000AF27
:1027F0000346FB7197F907301846FFF735FF00BF16
:102800000837BD4680BD80B582B000AF786078687B
:10281000FFF7A2FF034618460837BD4680BD0000FB
:1028200080B485B000AF78600023FB607B68002B2C
:1028300001D1012343E07B681B681A46224B1344F5
:10284000224AA2FB03231B099A007B681A647B6857
:102850001F4ADA637B68022283F821207B681B68A9
:102860001B68FB60FB6823F47F5323F03003FB609D
:102870007B685A687B689B681A437B68DB681A43ED
:102880007B681B691A437B685B691A437B689B6999
:102890001A437B68DB691343FA681343FB607B6868
:1028A0001B68FA681A607B6800229A637B680122C1
:1028B00083F821207B68002283F82020002318461B
:1028C0001437BD4680BC7047F8FFFDBFCDCCCCCCE3
:1028D0000000024080B586B000AFF860B9607A6051
:1028E0003B600023FB75FB6893F82030012B01D17E
:1028F00002234BE0FB68012283F82020FB6893F859
:102900002130DBB2012B3AD1FB68022283F821206F
:10291000FB6800229A63FB681B681A68FB681B68E7
:1029200022F001021A603B687A68B968F86800F022
:1029300037F9FB68DB6A002B08D0FB681B681A6854
:10294000FB681B6842F00E021A600FE0FB681B6810
:102950001A68FB681B6822F004021A60FB681B6897
:102960001A68FB681B6842F00A021A60FB681B6861
:102970001A68FB681B6842F001021A6005E0FB68F8
:10298000002283F820200223FB75FB7D18461837B0
:10299000BD4680BD80B584B000AF78607B68DB6BDE
:1029A0001B68FB607B681B681B68BB607B681B6CDB
:1029B00004229A40FB681340002B4FD0BB6803F001
:1029C0000403002B4AD07B681B681B6803F02003BC
:1029D000002B07D17B681B681A687B681B6822F094
:1029E00004021A607B681B68664A934229D07B68A0
:1029F0001B68654A934222D07B681B68634A9342F6
:102A00001AD07B681B68624A934212D07B681B68AD
:102A1000604A93420AD07B681B685F4A934202D1A6
:102A20004FF480030EE04FF080630BE04FF48023FF
:102A300008E04FF4804305E04FF4806302E0402358
:102A400000E00423554A53607B68DB6A002B00F0EA
:102A500094807B68DB6A786898478EE07B681B6CA3
:102A600002229A40FB681340002B56D0BB6803F04B
:102A70000203002B51D07B681B681B6803F0200306
:102A8000002B0BD17B681B681A687B681B6822F0DF
:102A90000A021A607B68012283F821207B681B6888
:102AA000384A934229D07B681B68374A934222D028
:102AB0007B681B68354A93421AD07B681B68344A8E
:102AC000934212D07B681B68324A93420AD07B68DB
:102AD0001B68314A934202D14FF400130EE04FF0CD
:102AE00000730BE04FF4003308E04FF4005305E0AF
:102AF0004FF4007302E0202300E00223274A5360D2
:102B00007B68002283F820207B689B6A002B34D0EE
:102B10007B689B6A786898472FE07B681B6C08226B
:102B20009A40FB681340002B28D0BB6803F00803D1
:102B3000002B23D07B681B681A687B681B6822F017
:102B40000E021A607B681A6C7B68DB6B012101FA4C
:102B500002F25A607B6801229A637B68012283F843
:102B600021207B68002283F820207B681B6B002BD0
:102B700004D07B681B6B7868984700BF00BF103794
:102B8000BD4680BD080002401C00024030000240EB
:102B900044000240580002406C0002400000024025
:102BA00080B485B000AFF860B9607A603B60FB68C4
:102BB0001A6CFB68DB6B012101FA02F25A60FB68B8
:102BC0001B683A685A60FB685B68102B08D1FB6889
:102BD0001B687A689A60FB681B68BA68DA6007E06D
:102BE000FB681B68BA689A60FB681B687A68DA60E1
:102BF00000BF1437BD4680BC7047000080B48BB066
:102C000000AF7860396000237B6200233B6269E19A
:102C100001227B6A02FA03F3FB613B681B68FA69D5
:102C20001340BB61BA69FB699A4240F058813B6826
:102C30005B689A4A93425ED0984A934275D8984A04
:102C4000934258D0964A93426FD8964A934252D0B4
:102C5000944A934269D8944A93424CD0924A934200
:102C600063D8924A934246D0904A93425DD8122B41
:102C70002AD8122B59D801A252F823F0F72C0008B9
:102C8000D12C0008E32C0008252D00082B2D00086E
:102C90002B2D00082B2D00082B2D00082B2D0008B4
:102CA0002B2D00082B2D00082B2D00082B2D0008A4
:102CB0002B2D00082B2D00082B2D00082B2D000894
:102CC000D92C0008ED2C0008794A934213D02CE04F
:102CD0003B68DB683B6229E03B68DB6804333B62AE
:102CE00024E03B68DB6808333B621FE03B68DB683D
:102CF0000C333B621AE03B689B68002B02D1042333
:102D00003B6213E03B689B68012B05D108233B62C3
:102D10007B68FA691A6109E008233B627B68FA69FB
:102D20005A6103E000233B6200E000BFBB69FF2B58
:102D300001D87B6801E07B6804337B61BB69FF2BB2
:102D400002D87B6A9B0002E07B6A083B9B003B61E8
:102D50007B691A680F213B6901FA03F3DB431A40D0
:102D6000396A3B6901FA03F31A437B691A603B68CD
:102D70005B6803F08053002B00F0B1804D4B9B69E2
:102D80004C4A43F0010393614A4B9B6903F00103F2
:102D9000BB60BB68484A7B6A9B08023352F8233009
:102DA000FB607B6A03F003039B000F2202FA03F32C
:102DB000DB43FA681340FB607B68404A934213D0C0
:102DC0007B683F4A93420DD07B683E4A934207D0CE
:102DD0007B683D4A934201D1032306E0042304E0CB
:102DE000022302E0012300E000237A6A02F00302DA
:102DF00092009340FA681343FB602F497B6A9B085B
:102E00000233FA6841F823203B685B6803F48013BF
:102E1000002B06D02D4B9A682C49BB6913438B605D
:102E200006E02A4B9A68BB69DB43284913408B6054
:102E30003B685B6803F40013002B06D0234BDA6871
:102E40002249BB691343CB6006E0204BDA68BB69BB
:102E5000DB431E491340CB603B685B6803F40033DF
:102E6000002B06D0194B5A681849BB6913434B60B5
:102E700006E0164B5A68BB69DB43144913404B60AC
:102E80003B685B6803F48033002B21D00F4B1A683A
:102E90000E49BB6913430B6021E000BF00003210F4
:102EA000000031100000221000002110000012105C
:102EB0000000111000100240000001400008014015
:102EC000000C0140001001400014014000040140CA
:102ED0000B4B1A68BB69DB43094913400B607B6AE3
:102EE00001337B623B681A687B6A22FA03F3002B8A
:102EF0007FF48EAE00BF00BF2C37BD4680BC70474C
:102F00000004014080B483B000AF78600B467B8042
:102F100013467B707B78002B03D07A887B681A611C
:102F200003E07B881A047B681A6100BF0C37BD463A
:102F300080BC704780B586B000AF78607B68002B9E
:102F400001D1012372E27B681B6803F00103002BAF
:102F500000F08780924B5B6803F00C03042B0CD0CD
:102F60008F4B5B6803F00C03082B12D18C4B5B6812
:102F700003F48033B3F5803F0BD1894B1B6803F416
:102F80000033002B6CD07B685B68002B68D1012379
:102F90004CE27B685B68B3F5803F06D1804B1B68D1
:102FA0007F4A43F4803313602EE07B685B68002B1C
:102FB0000CD17B4B1B687A4A23F480331360784B27
:102FC0001B68774A23F4802313601DE07B685B68ED
:102FD000B3F5A02F0CD1724B1B68714A43F48023C8
:102FE00013606F4B1B686E4A43F4803313600BE031
:102FF0006B4B1B686A4A23F480331360684B1B6871
:10300000674A23F4802313607B685B68002B13D02E
:10301000FEF788FD386108E0FEF784FD02463B6953
:10302000D31A642B01D9032300E25D4B1B6803F420
:103030000033002BF0D014E0FEF774FD386108E097
:10304000FEF770FD02463B69D31A642B01D90323B6
:10305000ECE1534B1B6803F40033002BF0D100E08C
:1030600000BF7B681B6803F00203002B63D04C4B4E
:103070005B6803F00C03002B0BD0494B5B6803F03B
:103080000C03082B1CD1464B5B6803F48033002BE8
:1030900016D1434B1B6803F00203002B05D07B685D
:1030A0001B69012B01D00123C0E13D4B1B6823F0BC
:1030B000F8027B685B69DB00394913430B603AE037
:1030C0007B681B69002B20D0364B01221A60FEF76B
:1030D00029FD386108E0FEF725FD02463B69D31A59
:1030E000022B01D90323A1E12D4B1B6803F002033E
:1030F000002BF0D02A4B1B6823F0F8027B685B6939
:10310000DB00274913430B6015E0264B00221A60B1
:10311000FEF708FD386108E0FEF704FD02463B6952
:10312000D31A022B01D9032380E11D4B1B6803F046
:103130000203002BF0D17B681B6803F00803002B0F
:103140003AD07B689B69002B19D0174B01221A607B
:10315000FEF7E8FC386108E0FEF7E4FC02463B6954
:10316000D31A022B01D9032360E10D4B5B6A03F0F4
:103170000203002BF0D0012000F0CEFA1CE00A4B35
:1031800000221A60FEF7CEFC38610FE0FEF7CAFCA1
:1031900002463B69D31A022B08D9032346E100BF3C
:1031A000001002400000424280044242924B5B6A9F
:1031B00003F00203002BE9D17B681B6803F00403D2
:1031C000002B00F0A6800023FB758B4BDB6903F01E
:1031D0008053002B0DD1884BDB69874A43F0805325
:1031E000D361854BDB6903F08053BB60BB6801236F
:1031F000FB75824B1B6803F48073002B18D17F4B47
:103200001B687E4A43F480731360FEF78BFC3861C1
:1032100008E0FEF787FC02463B69D31A642B01D90C
:10322000032303E1754B1B6803F48073002BF0D07C
:103230007B68DB68012B06D16F4B1B6A6E4A43F03B
:10324000010313622DE07B68DB68002B0CD16A4B15
:103250001B6A694A23F001031362674B1B6A664AC3
:1032600023F0040313621CE07B68DB68052B0CD1A0
:10327000614B1B6A604A43F0040313625E4B1B6A96
:103280005D4A43F0010313620BE05B4B1B6A5A4A31
:1032900023F001031362584B1B6A574A23F00403BF
:1032A00013627B68DB68002B15D0FEF73BFC3861AE
:1032B0000AE0FEF737FC02463B69D31A41F2883236
:1032C000934201D90323B1E04B4B1B6A03F0020385
:1032D000002BEED014E0FEF725FC38610AE0FEF783
:1032E00021FC02463B69D31A41F28832934201D94C
:1032F00003239BE0404B1B6A03F00203002BEED13B
:10330000FB7D012B05D13C4BDB693B4A23F080530D
:10331000D3617B68DB69002B00F08780364B5B68EC
:1033200003F00C03082B61D07B68DB69022B46D1CC
:10333000334B00221A60FEF7F5FB386108E0FEF718
:10334000F1FB02463B69D31A022B01D903236DE03E
:10335000294B1B6803F00073002BF0D17B681B6ABC
:10336000B3F5803F08D1244B5B6823F400327B68BF
:103370009B68214913434B601F4B5B6823F4741215
:103380007B68196A7B685B6A0B431B4913434B607C
:103390001B4B01221A60FEF7C5FB386108E0FEF7FF
:1033A000C1FB02463B69D31A022B01D903233DE03E
:1033B000114B1B6803F00073002BF0D035E0104B6D
:1033C00000221A60FEF7AEFB386108E0FEF7AAFBA8
:1033D00002463B69D31A022B01D9032326E0064B90
:1033E0001B6803F00073002BF0D11EE07B68DB69E3
:1033F000012B07D1012319E00010024000700040AA
:10340000600042420B4B5B68FB60FB6803F4803258
:103410007B681B6A9A4206D1FB6803F470127B68D2
:103420005B6A9A4201D0012300E000231846183756
:10343000BD4680BD0010024080B584B000AF78600A
:1034400039607B68002B01D10123D0E06A4B1B68F7
:1034500003F007033A689A4210D9674B1B6823F0C0
:10346000070265493B6813430B60634B1B6803F01D
:1034700007033A689A4201D00123B8E07B681B68D1
:1034800003F00203002B20D07B681B6803F00403C9
:10349000002B05D0594B5B68584A43F4E0635360F6
:1034A0007B681B6803F00803002B05D0534B5B6857
:1034B000524A43F460535360504B5B6823F0F00270
:1034C0007B689B684D4913434B607B681B6803F026
:1034D0000103002B40D07B685B68012B07D1474B71
:1034E0001B6803F40033002B15D101237FE07B68B8
:1034F0005B68022B07D1414B1B6803F00073002B64
:1035000009D1012373E03D4B1B6803F00203002B3C
:1035100001D101236BE0394B5B6823F003027B6828
:103520005B68364913434B60FEF7FCFAF8600AE02B
:10353000FEF7F8FA0246FB68D31A41F2883293424A
:1035400001D9032353E02D4B5B6803F00C027B6829
:103550005B689B009A42EBD1274B1B6803F0070383
:103560003A689A4210D2244B1B6823F00702224982
:103570003B6813430B60204B1B6803F007033A685A
:103580009A4201D0012332E07B681B6803F00403F8
:10359000002B08D0194B5B6823F4E0627B68DB6882
:1035A000164913434B607B681B6803F00803002B2C
:1035B00009D0124B5B6823F460527B681B69DB0007
:1035C0000E4913434B6000F021F802460B4B5B6839
:1035D0001B0903F00F030A49CB5C22FA03F3094AE3
:1035E0001360094B1B681846FEF75AFA0023184669
:1035F0001037BD4680BD00BF0020024000100240D1
:103600004C7C0008040000200800002080B487B033
:1036100000AF0023FB600023BB6000237B6100231D
:103620007B6000233B611E4B5B68FB60FB6803F023
:103630000C03042B02D0082B03D027E0194B3B616D
:1036400027E0FB689B0C03F00F03174AD35C7B60F9
:10365000FB6803F48033002B10D0114B5B685B0CCC
:1036600003F00103114AD35CBB607B680D4A03FB86
:1036700002F2BB68B2FBF3F37B6104E07B680C4AA7
:1036800002FB03F37B617B693B6102E0054B3B611D
:1036900000BF3B6918461C37BD4680BC704700BF61
:1036A0000010024000127A00647C0008747C00085C
:1036B00000093D0080B400AF024B1B681846BD46B0
:1036C00080BC70470400002080B500AFFFF7F2FF18
:1036D0000246054B5B681B0A03F007030349CB5CFA
:1036E00022FA03F3184680BD001002405C7C0008FB
:1036F00080B500AFFFF7DEFF0246054B5B68DB0AD3
:1037000003F007030349CB5C22FA03F3184680BD9C
:10371000001002405C7C000880B485B000AF786087
:103720000A4B1B680A4AA2FB03235B0A7A6802FB66
:1037300003F3FB6000BFFB685A1EFA60002BF9D14F
:1037400000BF00BF1437BD4680BC70470400002096
:10375000D34D621080B586B000AF786000233B6126
:103760000023FB607B681B6803F00103002B7DD006
:103770000023FB754F4BDB6903F08053002B0DD109
:103780004C4BDB694B4A43F08053D361494BDB69B7
:1037900003F08053BB60BB680123FB75464B1B687D
:1037A00003F48073002B18D1434B1B68424A43F447
:1037B00080731360FEF7B6F9386108E0FEF7B2F9DE
:1037C00002463B69D31A642B01D903236DE03A4BBF
:1037D0001B6803F48073002BF0D0364B1B6A03F494
:1037E0004073FB60FB68002B2ED07B685B6803F4A2
:1037F0004073FA689A4227D02E4B1B6A23F4407319
:10380000FB602E4B01221A602C4B00221A60294AC1
:10381000FB681362FB6803F00103002B14D0FEF772
:1038200081F938610AE0FEF77DF902463B69D31A57
:1038300041F28832934201D9032336E01D4B1B6AC3
:1038400003F00203002BEED01A4B1B6A23F44072E4
:103850007B685B68174913430B62FB7D012B05D125
:10386000144BDB69134A23F08053D3617B681B68D8
:1038700003F00203002B08D00E4B5B6823F4404298
:103880007B689B680B4913434B607B681B6803F0A4
:103890001003002B08D0074B5B6823F480027B6881
:1038A000DB68044913434B60002318461837BD46B4
:1038B00080BD00BF00100240007000404004424242
:1038C00080B588B000AF786000237B610023FB6186
:1038D00000233B610023FB600023BB617B68102B4E
:1038E0000AD07B68102B00F28A807B68012B45D0C0
:1038F0007B68022B75D082E0464B5B68FB60454BD2
:103900001B6803F08073002B7BD0FB689B0C03F0DB
:103910000F03414AD35C3B61FB6803F48033002B07
:1039200015D03C4B5B685B0C03F001033B4AD35C56
:103930007B61FB6803F48033002B0DD0384A7B6930
:10394000B2FBF3F23B6902FB03F3FB6104E03B696A
:10395000344A02FB03F3FB612E4B5B6803F48003E4
:10396000B3F5800F02D1FB69BB614AE0FB695B00E4
:103970002D4AA2FB03235B08BB6142E0254B1B6A77
:10398000FB60FB6803F44073B3F5807F08D1FB68EC
:1039900003F00203002B03D04FF40043BB611FE090
:1039A000FB6803F44073B3F5007F09D1194B5B6AE0
:1039B00003F00203002B03D049F64043BB610FE044
:1039C000FB6803F44073B3F5407F1CD1114B1B68B7
:1039D00003F40033002B16D04FF22443BB6112E0F6
:1039E00011E0FFF785FE02460A4B5B689B0B03F074
:1039F000030301335B00B2FBF3F3BB6104E000BFE0
:103A000002E000BF00E000BFBB6918462037BD469A
:103A100080BD00BF00100240787C0008887C000850
:103A200000127A0000093D00ABAAAAAA80B582B0B4
:103A300000AF78607B68002B01D1012341E07B68F7
:103A400093F83D30DBB2002B06D17B68002283F86F
:103A50003C207868FDF720FE7B68022283F83D2039
:103A60007B681A687B6804331946104600F062FCD4
:103A70007B68012283F846207B68012283F83E2080
:103A80007B68012283F83F207B68012283F8402075
:103A90007B68012283F841207B68012283F8422061
:103AA0007B68012283F843207B68012283F844204D
:103AB0007B68012283F845207B68012283F83D2042
:103AC000002318460837BD4680BD000080B485B08D
:103AD00000AF78607B6893F83D30DBB2012B01D0FA
:103AE00001233AE07B68022283F83D207B681B6853
:103AF000DA687B681B6842F00102DA607B681B6849
:103B0000184A93420ED07B681B68B3F1804F09D0EE
:103B10007B681B68144A934204D07B681B68134A75
:103B2000934211D17B681B689B6803F00703FB601D
:103B3000FB68062B10D07B681B681A687B681B68C3
:103B400042F001021A6007E07B681B681A687B6814
:103B50001B6842F001021A60002318461437BD4664
:103B600080BC7047002C0140000400400008004069
:103B700080B582B000AF78607B68002B01D1012353
:103B800041E07B6893F83D30DBB2002B06D17B68C7
:103B9000002283F83C20786800F039F87B68022224
:103BA00083F83D207B681A687B6804331946104609
:103BB00000F0C0FB7B68012283F846207B6801226D
:103BC00083F83E207B68012283F83F207B68012236
:103BD00083F840207B68012283F841207B68012222
:103BE00083F842207B68012283F843207B6801220E
:103BF00083F844207B68012283F845207B680122FA
:103C000083F83D20002318460837BD4680BD80B4A8
:103C100083B000AF786000BF0C37BD4680BC7047F2
:103C200080B584B000AF786039603B68002B09D163
:103C30007B6893F83E30DBB2012B14BF01230023D5
:103C4000DBB222E03B68042B09D17B6893F83F305C
:103C5000DBB2012B14BF01230023DBB215E03B686C
:103C6000082B09D17B6893F84030DBB2012B14BFDD
:103C700001230023DBB208E07B6893F84130DBB21C
:103C8000012B14BF01230023DBB2002B01D0012341
:103C90005EE03B68002B04D17B68022283F83E2063
:103CA00013E03B68042B04D17B68022283F83F2099
:103CB0000BE03B68082B04D17B68022283F840208C
:103CC00003E07B68022283F841207B681B680122A5
:103CD0003968184600F04BFE7B681B681E4A934209
:103CE00007D17B681B685A6C7B681B6842F40042F2
:103CF0005A647B681B68184A93420ED07B681B6825
:103D0000B3F1804F09D07B681B68144A934204D0FA
:103D10007B681B68124A934211D17B681B689B68C1
:103D200003F00703FB60FB68062B10D07B681B6861
:103D30001A687B681B6842F001021A6007E07B6822
:103D40001B681A687B681B6842F001021A60002336
:103D500018461037BD4680BD002C014000040040CD
:103D60000008004080B584B000AF78607B681B68B5
:103D7000DB68FB607B681B681B69BB60BB6803F08A
:103D80000203002B20D0FB6803F00203002B1BD0A2
:103D90007B681B686FF002021A617B6801221A7748
:103DA0007B681B689B6903F00303002B03D07868D2
:103DB00000F0A5FA05E0786800F098FA786800F05D
:103DC000A7FA7B6800221A77BB6803F00403002B74
:103DD00020D0FB6803F00403002B1BD07B681B681A
:103DE0006FF004021A617B6802221A777B681B68F5
:103DF0009B6903F44073002B03D0786800F07FFACE
:103E000005E0786800F072FA786800F081FA7B6863
:103E100000221A77BB6803F00803002B20D0FB6850
:103E200003F00803002B1BD07B681B686FF00802AF
:103E30001A617B6804221A777B681B68DB6903F0D0
:103E40000303002B03D0786800F059FA05E0786886
:103E500000F04CFA786800F05BFA7B6800221A7771
:103E6000BB6803F01003002B20D0FB6803F01003A5
:103E7000002B1BD07B681B686FF010021A617B68F7
:103E800008221A777B681B68DB6903F44073002BF8
:103E900003D0786800F033FA05E0786800F026FA7D
:103EA000786800F035FA7B6800221A77BB6803F067
:103EB0000103002B0CD0FB6803F00103002B07D09B
:103EC0007B681B686FF001021A61786800F005FAE0
:103ED000BB6803F08003002B0CD0FB6803F0800369
:103EE000002B07D07B681B686FF080021A6178682E
:103EF00000F0C9FDBB6803F04003002B0CD0FB6849
:103F000003F04003002B07D07B681B686FF0400272
:103F10001A61786800F005FABB6803F02003002BF3
:103F20000CD0FB6803F02003002B07D07B681B68D4
:103F30006FF020021A61786800F09CFD00BF103716
:103F4000BD4680BD80B586B000AFF860B9607A60CC
:103F50000023FB75FB6893F83C30012B01D1022351
:103F6000AEE0FB68012283F83C207B680C2B00F25A
:103F70009F8001A252F823F0AD3F0008B140000835
:103F8000B1400008B1400008ED3F0008B140000812
:103F9000B1400008B14000082F400008B1400008BF
:103FA000B1400008B14000086F400008FB681B6882
:103FB000B968184600F02CFAFB681B689A69FB6820
:103FC0001B6842F008029A61FB681B689A69FB68EB
:103FD0001B6822F004029A61FB681B689969BB6840
:103FE0001A69FB681B680A439A6164E0FB681B68F6
:103FF000B968184600F072FAFB681B689A69FB689A
:104000001B6842F400629A61FB681B689A69FB684E
:104010001B6822F480629A61FB681B689969BB681F
:104020001B691A02FB681B680A439A6143E0FB683C
:104030001B68B968184600F0BBFAFB681B68DA69B0
:10404000FB681B6842F00802DA61FB681B68DA69EA
:10405000FB681B6822F00402DA61FB681B68D969FF
:10406000BB681A69FB681B680A43DA6123E0FB68D6
:104070001B68B968184600F005FBFB681B68DA6925
:10408000FB681B6842F40062DA61FB681B68DA694E
:10409000FB681B6822F48062DA61FB681B68D969DF
:1040A000BB681B691A02FB681B680A43DA6102E0FD
:1040B0000123FB7500BFFB68002283F83C20FB7DD9
:1040C00018461837BD4680BD80B584B000AF786013
:1040D00039600023FB737B6893F83C30012B01D1DE
:1040E0000223B4E07B68012283F83C207B68022233
:1040F00083F83D207B681B689B68BB60BB6823F02E
:104100007703BB60BB6823F47F43BB607B681B689D
:10411000BA689A603B681B68B3F5005F3ED0B3F5A0
:10412000005F00F28780B3F5805F00F08680B3F512
:10413000805F7FD8702B1AD0702B7BD8602B50D02B
:10414000602B77D8502B3CD0502B73D8402B58D0B5
:10415000402B6FD8302B64D0302B6BD8202B60D005
:10416000202B67D8002B5CD0102B5AD062E07B68E4
:1041700018683B6899683B685A683B68DB6800F0E0
:10418000D7FB7B681B689B68BB60BB6843F0770309
:10419000BB607B681B68BA689A604FE07B681868F0
:1041A0003B6899683B685A683B68DB6800F0C0FB75
:1041B0007B681B689A687B681B6842F480429A603F
:1041C0003CE07B6818683B6859683B68DB681A46C6
:1041D00000F037FB7B681B685021184600F08EFB0F
:1041E0002CE07B6818683B6859683B68DB681A46B6
:1041F00000F055FB7B681B686021184600F07EFBD1
:104200001CE07B6818683B6859683B68DB681A46A5
:1042100000F017FB7B681B684021184600F06EFB1E
:104220000CE07B681A683B681B681946104600F072
:1042300065FB03E00123FB7300E000BF7B68012204
:1042400083F83D207B68002283F83C20FB7B1846E6
:104250001037BD4680BD80B582B000AF7860396050
:104260007B6893F83C30012B01D1022331E07B685D
:10427000012283F83C207B68022283F83D203968C4
:10428000786800F04DFA0346002B09D07B680122C4
:1042900083F83D207B68002283F83C20012318E04E
:1042A0007B681B68DA687B681B6822F04002DA6072
:1042B0007B681B68DA687B681B6822F48042DA60DE
:1042C0007B68012283F83D207B68002283F83C2034
:1042D000002318460837BD4680BD80B483B000AFC8
:1042E000786000BF0C37BD4680BC704780B483B097
:1042F00000AF786000BF0C37BD4680BC704780B40B
:1043000083B000AF786000BF0C37BD4680BC7047FB
:1043100080B483B000AF786000BF0C37BD4680BC6E
:10432000704780B483B000AF786000BF0C37BD46E3
:1043300080BC704780B485B000AF786039607B681E
:104340001B68FB607B682F4A93420BD07B68B3F1FC
:10435000804F07D07B682C4A934203D07B682B4A5E
:10436000934208D1FB6823F07003FB603B685B68F5
:10437000FA681343FB607B68224A93420BD07B6848
:10438000B3F1804F07D07B681F4A934203D07B680C
:104390001E4A934208D1FB6823F44073FB603B68DC
:1043A000DB68FA681343FB60FB6823F080023B681C
:1043B0005B691343FB607B68FA681A603B689A6824
:1043C0007B68DA623B681A687B689A627B680D4A90
:1043D000934203D13B681A697B681A637B680122A8
:1043E0005A617B681B6903F00103002B05D07B68D1
:1043F0001B6923F001027B681A6100BF1437BD46B8
:1044000080BC7047002C01400004004000080040C0
:1044100080B487B000AF786039607B681B6A7B61CD
:104420007B681B6A23F001027B681A627B685B6809
:104430003B617B689B69FB60FB6823F07003FB605A
:10444000FB6823F00303FB603B681B68FA681343B7
:10445000FB607B6923F002037B613B689B687A69A0
:1044600013437B617B681C4A93420CD17B6923F028
:1044700008037B613B68DB687A6913437B617B6976
:1044800023F004037B617B68134A934211D13B699B
:1044900023F480733B613B6923F400733B613B6809
:1044A0005B693A6913433B613B689B693A69134313
:1044B0003B617B683A695A607B68FA689A613B683D
:1044C0005A687B685A637B687A691A6200BF1C3736
:1044D000BD4680BC704700BF002C014080B487B04F
:1044E00000AF786039607B681B6A7B617B681B6A00
:1044F00023F010027B681A627B685B683B617B6813
:104500009B69FB60FB6823F4E043FB60FB6823F4DA
:104510004073FB603B681B681B02FA681343FB6037
:104520007B6923F020037B613B689B681B017A69F0
:1045300013437B617B681D4A93420DD17B6923F055
:1045400080037B613B68DB681B017A6913437B61F5
:104550007B6923F040037B617B68144A934213D14B
:104560003B6923F480633B613B6923F400633B6157
:104570003B685B699B003A6913433B613B689B69FD
:104580009B003A6913433B617B683A695A607B68D8
:10459000FA689A613B685A687B689A637B687A69B3
:1045A0001A6200BF1C37BD4680BC7047002C01401A
:1045B00080B487B000AF786039607B681B6A7B612C
:1045C0007B681B6A23F480727B681A627B685B6875
:1045D0003B617B68DB69FB60FB6823F07003FB6079
:1045E000FB6823F00303FB603B681B68FA68134316
:1045F000FB607B6923F400737B613B689B681B0253
:104600007A6913437B617B681D4A93420DD17B69B4
:1046100023F400637B613B68DB681B027A69134308
:104620007B617B6923F480637B617B68144A9342DE
:1046300013D13B6923F480533B613B6923F400535E
:104640003B613B685B691B013A6913433B613B6813
:104650009B691B013A6913433B617B683A695A6065
:104660007B68FA68DA613B685A687B68DA637B6862
:104670007A691A6200BF1C37BD4680BC704700BF14
:10468000002C014080B487B000AF786039607B684F
:104690001B6A3B617B681B6A23F480527B681A6249
:1046A0007B685B687B617B68DB69FB60FB6823F48C
:1046B000E043FB60FB6823F44073FB603B681B68CE
:1046C0001B02FA681343FB603B6923F400533B6110
:1046D0003B689B681B033A6913433B617B680F4A45
:1046E000934209D17B6923F480437B613B685B691A
:1046F0009B017A6913437B617B687A695A607B68A6
:10470000FA68DA613B685A687B681A647B683A69C0
:104710001A6200BF1C37BD4680BC7047002C0140A8
:1047200080B586B000AF786039600023FB757B6888
:104730001B689B683B613B6923F070033B613B68EE
:104740005B683A6913433B613B6923F007033B61B4
:104750003B681B683A6913433B617B681B683A6995
:104760009A603B685B68702B1AD0702B60D8602B06
:1047700054D0602B5CD8502B46D0502B58D8402BAF
:1047800019D0402B54D8302B55D0302B50D8202B5B
:1047900051D0202B4CD8002B4DD0102B4BD047E0C4
:1047A0007B6818683B68D9683B689A683B681B69F6
:1047B00000F0BEF840E03B681B68052B01D10123E7
:1047C0003BE07B681B681B6AFB607B681B681A6A9E
:1047D0007B681B6822F001021A627B681B689B6978
:1047E000BB60BB6823F0F003BB603B681B691B0127
:1047F000BA681343BB607B681B68BA689A617B68C0
:104800001B68FA681A6217E07B6818683B68996849
:104810003B681B691A4600F014F80DE07B681868C5
:104820003B6899683B681B691A4600F038F803E05A
:104830000123FB7500E000BFFB7D18461837BD461D
:1048400080BD80B487B000AFF860B9607A60FB6863
:104850001B6A7B61FB681B6A23F00102FB681A621A
:10486000FB689B693B613B6923F0F0033B617B681C
:104870001B013A6913433B617B6923F00A037B61A7
:104880007A69BB6813437B61FB683A699A61FB688C
:104890007A691A6200BF1C37BD4680BC704780B47D
:1048A00087B000AFF860B9607A60FB681B6A7B6113
:1048B000FB681B6A23F01002FB681A62FB689B69A5
:1048C0003B613B6923F470433B617B681B033A699E
:1048D00013433B617B6923F0A0037B61BB681B0131
:1048E0007A6913437B61FB683A699A61FB687A696C
:1048F0001A6200BF1C37BD4680BC704780B485B0CB
:1049000000AF786039607B689B68FB60FB6823F0D0
:104910007003FB603A68FB68134343F00703FB60D6
:104920007B68FA689A6000BF1437BD4680BC704748
:1049300080B487B000AFF860B9607A603B60FB6814
:104940009B687B617B6923F47F437B613B681A0230
:104950007B681A43BB6813437A6913437B61FB6826
:104960007A699A6000BF1C37BD4680BC704780B42E
:1049700087B000AFF860B9607A60BB6803F01F03CE
:10498000012202FA03F37B61FB681A6A7B69DB434D
:104990001A40FB681A62FB681A6ABB6803F01F03BF
:1049A000796801FA03F31A43FB681A6200BF1C37E7
:1049B000BD4680BC7047000080B485B000AF786011
:1049C00039607B6893F83C30012B01D1022346E02B
:1049D0007B68012283F83C207B68022283F83D201B
:1049E0007B681B685B68FB607B681B689B68BB60BF
:1049F000FB6823F07003FB603B681B68FA68134395
:104A0000FB607B681B68FA685A607B681B68164A03
:104A100093420ED07B681B68B3F1804F09D07B684E
:104A20001B68124A934204D07B681B68104A934269
:104A30000CD1BB6823F08003BB603B685B68BA683D
:104A40001343BB607B681B68BA689A607B6801226D
:104A500083F83D207B68002283F83C200023184621
:104A60001437BD4680BC7047002C01400004004054
:104A70000008004080B483B000AF786000BF0C37FE
:104A8000BD4680BC704780B483B000AF786000BF83
:104A90000C37BD4680BC704780B582B000AF7860EF
:104AA0007B68002B01D1012342E07B6893F8413001
:104AB000DBB2002B06D17B68002283F840207868A7
:104AC000FCF754FE7B68242283F841207B681B6836
:104AD000DA687B681B6822F40052DA60786800F0BC
:104AE00071F97B681B681A697B681B6822F4904225
:104AF0001A617B681B685A697B681B6822F02A026E
:104B00005A617B681B68DA687B681B6842F4005254
:104B1000DA607B6800225A647B68202283F8412097
:104B20007B68202283F842207B6800225A6300239E
:104B300018460837BD4680BD80B58AB002AFF86020
:104B4000B9603B601346FB8000237B61FB6893F8F0
:104B50004130DBB2202B75D1BB68002B02D0FB8823
:104B6000002B01D101236EE0FB6800225A64FB6830
:104B7000212283F84120FCF7D5FF7861FB68FA8891
:104B80009A84FB68FA88DA84FB689B68B3F5805FD7
:104B900008D1FB681B69002B04D10023FB61BB68B3
:104BA000BB6103E0BB68FB610023BB612EE03B6897
:104BB00000937B6900228021F86800F048F80346E2
:104BC000002B05D0FB68202283F8412003233AE024
:104BD000FB69002B0BD1BB691B881A46FB681B685D
:104BE000C2F308025A60BB690233BB6107E0FB698C
:104BF0001A78FB681B685A60FB690133FB61FB682C
:104C0000DB8C9BB2013B9AB2FB68DA84FB68DB8CDD
:104C10009BB2002BCBD13B6800937B6900224021E3
:104C2000F86800F014F80346002B05D0FB6820223A
:104C300083F84120032306E0FB68202283F841200B
:104C4000002300E0022318462037BD4680BD80B512
:104C500086B000AFF860B9603B601346FB713BE083
:104C60003B6AB3F1FF3F37D0FCF75CFF02463B687D
:104C7000D31A3A6A9A4202D33B6A002B01D103232A
:104C80003AE0FB681B68DB6803F00403002B23D0C9
:104C9000BB68802B20D0BB68402B1DD0FB681B68F5
:104CA0001B6803F00803082B16D100237B61FB6807
:104CB0001B681B687B61FB681B685B687B617B69A9
:104CC000F86800F01DF8FB6808225A64FB680022AF
:104CD00083F8402001230FE0FB681B681A68BB685B
:104CE0001340BA689A420CBF01230023DBB21A4674
:104CF000FB799A42B4D0002318461837BD4680BDD0
:104D000080B495B000AF78607B681B680C337B6320
:104D10007B6B53E8003F3B633B6B23F49073FB6476
:104D20007B681B680C33FA6C3A64FB63F96B3A6C72
:104D300041E80023BB63BB6B002BE5D17B681B689C
:104D400014333B623B6A53E8003FFB61FB6923F08D
:104D50000103BB647B681B681433BA6CFA62BB62E4
:104D6000B96AFA6A41E800237B627B6A002BE5D1CD
:104D70007B681B6B012B19D17B681B680C33FB60B4
:104D8000FB6853E8003FBB60BB6823F010037B6403
:104D90007B681B680C337A6CBA617B617969BA698C
:104DA00041E800233B613B69002BE5D17B68202271
:104DB00083F842207B6800221A6300BF5437BD4647
:104DC00080BC704780B584B000AF78607B681B689A
:104DD0001B6923F440517B68DA687B681B680A43CF
:104DE0001A617B689A687B681B691A437B685B69F8
:104DF0001343BB607B681B68DB6823F4B05323F06C
:104E00000C037A681268B9680B43D3607B681B682F
:104E10005B6923F440717B689A697B681B680A436D
:104E20005A617B681B682C4A934203D1FEF760FCF1
:104E3000F86002E0FEF748FCF860FA6813469B0051
:104E400013449A001A447B685B689B00B2FBF3F33F
:104E5000224AA2FB03235B091901FA6813469B004F
:104E600013449A001A447B685B689B00B2FBF3F220
:104E70001A4BA3FB02035B09642000FB03F3D31A64
:104E80001B013233154AA2FB03235B0903F0F00335
:104E90001944FA6813469B0013449A001A447B682D
:104EA0005B689B00B2FBF3F20C4BA3FB02035B09B4
:104EB000642000FB03F3D31A1B013233074AA2FB21
:104EC00003235B0903F00F027B681B680A449A60A6
:104ED00000BF1037BD4680BD003801401F85EB5133
:104EE000002B2DE9F0471D46BBBF03F100431D46D3
:104EF00000232D2388B01446B8BF1446129A109E82
:104F00001370149BDDF84CA023F02008B8F1460F75
:104F100005D0B8F1450F00D10136022300E003238C
:104F200007AA049206AACDE902A2CDE900362246DC
:104F30002B4600F06DFEB8F1470F074619D1119BC3
:104F4000DB070ED500EB0609002200232046294688
:104F5000FBF72AFD08B1CDF81C903022079B4B458A
:104F60001ED33846079B159ADB1B136008B0BDE8BB
:104F7000F087B8F1460F00EB0609E5D10378302B36
:104F80000AD10022002320462946FBF70DFD18B95F
:104F9000C6F10106CAF80060DAF800309944D3E798
:104FA000591C07911A70D9E7F7B50029B6BF2D2310
:104FB0002B23494209290270437029DD0DF10703B3
:104FC0001D460A27B1FBF7F61A4607FB16143034C4
:104FD00002F8014C0C46632C314603F1FF33F1DC3F
:104FE0003031941E03F8011C2346411CAB420AD306
:104FF0000DF109039B1AAC4288BF0023023303441E
:10500000181A03B0F0BD13F8016B01F8016FEDE75A
:10501000302330318370C170031DF1E72DE9F04F6B
:1050200091B00C46DDF8688016461F46054600F034
:10503000E1FC036818460893FBF78AF800230E93F7
:10504000D8F800300990073323F0070303F1080272
:1050500094F818A0D4F800B0C8F80020D3E900896B
:1050600029F000430B93CDF828804FF0FF32DDE9A3
:105070000A01C4E912899C4BFBF7C8FC70BBDDE94F
:105080000A014FF0FF32984BFBF7A2FC30BB002225
:10509000002340464946FBF791FC10B12D2384F8CC
:1050A0004330924A924BBAF1470F8CBF90469846D4
:1050B00003234FF0000923612BF0040323603346E0
:1050C0002146284600970FAA00F0D4F9013040F09D
:1050D00090804FF0FF3011B0BDE8F08F42464B4654
:1050E00040464946FBF792FC48B14B46002BB8BFFF
:1050F0002D23804AB8BF84F843307F4BD3E76368E1
:105100000AF0DF015A1C3FD10623636000224BF4F2
:105110008063236006920EAACDE904A20DAA039231
:105120000DF13302CDE9013263684246009328460F
:105130004B460A91FFF7D4FE0A99804647290D99FC
:1051400028D1C81C02DB6368994240DDAAF1020A3B
:105150005FFA8AFA5246013904F150000D91FFF7C7
:1051600023FF0E9A81461318012A236102DC22686C
:10517000D20701D5013323619DF83330002B9ED037
:105180002D2384F843309AE74729BFD1002BBDD1A6
:105190000123BAE7BAF1650FDCD9BAF1660F18D16D
:1051A000002963680BDD216113B92268D00702D59D
:1051B00001330B4423614FF00009A165DCE713B90B
:1051C0002268D20701D50233F4E70123F2E74FF05A
:1051D000670A0E9B994205DB23682161D807EAD54F
:1051E0004B1CE7E70029CCBF0122C1F102021344A6
:1051F000E0E723685A0507D423694246314628462A
:10520000B84701302BD164E7BAF1650F40F2DC807A
:10521000D4E9120100220023FBF7C6FB002833D09B
:10522000012331462846354AB84701303FF451AF93
:10523000DDE90D38434502DB2368D8070FD5DDE9EA
:10524000082331462846B84701303FF442AF4FF0BB
:10525000000908F1FF3804F11A0AC84509DC23687F
:105260009B0700F10281E0680F9B9842B8BF184687
:1052700031E70123524631462846B84701303FF412
:1052800028AF09F10109E8E70D9B002B38DC012369
:1052900031462846194AB84701303FF41AAFDDE9D4
:1052A0000D3959EA030302D12368D907D7D5DDE9BF
:1052B000082331462846B84701303FF40AAF4FF083
:1052C000000A04F11A0B0D9B5B42534501DC4B466F
:1052D00093E701235A4631462846B84701303FF448
:1052E000F8AE0AF1010AEEE7FFFFEF7F8E7C0008BF
:1052F0008A7C0008967C0008927C00089A7C000852
:10530000A36DDDF838A05345A8BF5346002B99463E
:1053100036DC4FF0000B29EAE97904F11A02A36D9B
:105320000A93A3EB09035B4531DC0D9B9A453ADCFC
:105330002368DA0737D40D9BAAEB03090A9BAAEB73
:1053400003039945A8BF9946B9F1000F33DC4FF02C
:10535000000829EAE97904F11A0B0D9BAAEB030373
:10536000A3EB090343457FF77AAF01235A46314641
:105370002846B84701303FF4ACAE08F10108ECE72D
:10538000424631462846B8470130C2D1A1E6012342
:10539000314628460A92B84701303FF49AAE0A9A3D
:1053A0000BF1010BBBE73146DDE908232846B8477E
:1053B0000130C0D18DE60A9A4B4631462846424418
:1053C000B8470130C3D184E6DDF838A0BAF1010F47
:1053D00001DCDB0736D50123424631462846B84773
:1053E00001303FF476AEDDE9082331462846B84760
:1053F00001303FF46EAED4E91201002200230AF11D
:10540000FF3AFBF7D1FAC0B9534608F10102314621
:105410002846B84701300CD15BE601235A46314695
:105420002846B84701303FF454AE08F10108D04592
:10543000F3DB4B4604F15002E0E64FF0000804F1C4
:105440001A0BF4E701234246E1E701234A463146BD
:105450002846B84701303FF43CAE08F10108E36844
:105460000F995B1A4345F0DCFDE64FF0000804F1AC
:105470001909F4E72DE9F047164698468A680B6942
:1054800007469342B8BF1346336091F843200C4659
:10549000DDF820900AB1013333602368990642BFDA
:1054A000336802333360256815F0060506D104F130
:1054B000190AE36832689B1AAB422BDC94F843303C
:1054C0002268003B18BF0123920630D4414638467B
:1054D00004F14302C847013023D02368226903F056
:1054E0000603042B14BF002533684FF0000608BFE5
:1054F000E56804F11A0408BFED1A54F8123C08BF1D
:1055000025EAE5759342C4BF9B1AED18B5421AD13E
:10551000002008E00123524641463846C847013082
:1055200003D14FF0FF30BDE8F0870135C1E73020EF
:10553000E11881F843005A1C94F8451022440233C4
:1055400082F84310C2E70123224641463846C84745
:105550000130E6D00136D9E72DE9FF470F7E9146AD
:10556000782F80460C469A460C9E01F1430207D8DC
:10557000622F0AD8002F00F0D180582F00F0B88099
:1055800004F1420684F842703AE0A7F16303152B58
:10559000F6D801A151F823F0F1550008055600088E
:1055A0008155000881550008815500088155000883
:1055B00005560008815500088155000881550008EE
:1055C00081550008035700082F560008BD560008F3
:1055D00081550008815500082557000881550008AD
:1055E0002F5600088155000881550008C55600084F
:1055F00033681A1D1B68326004F1420684F8423099
:1056000001239CE033682068191D3160060601D52E
:105610001D6803E04506FBD5B3F90050002D03DA01
:105620002D236D4284F843300A23584811E0216845
:105630003368080653F8045B02D4490648BFADB28C
:105640006F2F336014BF0A2308235048002184F8C9
:1056500043106668002EA66005DB21682E4321F00A
:10566000040121604BD01646B5FBF3F103FB115743
:10567000C75D06F8017D2F46BB420D46F4D9082BC5
:105680000BD12368DF0708D5236961689942DEBF23
:10569000302306F8013C06F1FF36921B22614B468F
:1056A00021464046CDF800A003AAFFF7E3FE0130F3
:1056B0004AD14FF0FF3004B0BDE8F087236843F0D3
:1056C000200323607827324884F8457023683168C6
:1056D0001F0651F8045B02D45F0648BFADB23160CB
:1056E000D90744BF43F0200323601DB11023ADE769
:1056F0002648E9E7236823F020032360F6E71646EF
:10570000BDE733682568181D616930602E061B6887
:1057100001D5196002E06806FBD519800023164602
:105720002361BCE7336800211A1D32601E6862687D
:10573000304600F0D6F908B1801B606063682361D1
:10574000002384F84330AAE732464946404623699D
:10575000D0470130ADD023689B0713D4E068039B8A
:105760009842B8BF1846A6E701233246494640464C
:10577000D04701309DD00135E36803995B1AAB42F5
:10578000F2DCEBE7002504F11906F5E79C7C000844
:10579000AD7C0008002310B50446C0E90033C0E921
:1057A0000433836081814366C28183611946082284
:1057B0005C3000F016F90D4B246263620C4BA3625F
:1057C0000C4BE3620C4B23630C4B9C4206D003F161
:1057D0006802944202D0D0339C4205D104F15800B3
:1057E000BDE8104000F07AB910BD00BF5D59000857
:1057F0007F590008B7590008DB59000860030020F2
:10580000024A0349034800F069B800BF10000020B5
:10581000597400082000002041680C4B10B59942D3
:10582000044601D001F018FEA168094B994202D04C
:10583000204601F011FEE168064B994204D0204653
:10584000BDE8104001F008BE10BD00BF600300209D
:10585000C80300203004002010B50B4B0B4C0C4A41
:1058600020461A6004210022FFF794FF04F168002B
:1058700001220921FFF78EFF04F1D0000222BDE8CA
:1058800010401221FFF786BF98040020600300201B
:1058900001580008014800F022B900BFA10400200F
:1058A000014800F01DB900BFA104002010B5044656
:1058B000FFF7F0FF236A1BB1BDE81040FFF7F0BF10
:1058C000044B2362044B1B68002BF5D1FFF7C4FF88
:1058D000F2E700BF19580008980400202DE9F843AA
:1058E0000746884614460026D4E90195B9F1010916
:1058F00005D52468002CF7D13046BDE8F883AB8984
:10590000012B07D9B5F90E30013303D029463846AB
:10591000C04706436835E9E70EB46FF0004110B5A3
:1059200000249DB01FAB0290069007910491094896
:10593000094953F8042B0591006802A901931B94AF
:1059400001F00EFC029B1C701DB0BDE8104003B0BE
:10595000704700BF1C0000200802FFFF10B50C4676
:10596000B1F90E1000F06CF80028ABBF636DA3898D
:105970001B1823F48053ACBF6365A38110BD2DE9D0
:10598000F0411F468B890546DB050C46164605D5BA
:1059900002230022B1F90E1000F040F8A38932462C
:1059A00023F48053A38128463B46B4F90E10BDE88A
:1059B000F04100F057B810B50C46B1F90E1000F0E8
:1059C0002DF8431CA38915BF606523F4805343F46D
:1059D0008053A38118BFA38110BDB1F90E1000F050
:1059E0000DB803460244934200D1704703F8011BEF
:1059F000F9E70000004870475C01002038B500233B
:105A0000054D044608462B60FBF7A1FF431C02D15D
:105A10002B6803B1236038BD9C04002038B50446D0
:105A2000084611460022054D2A601A46FBF7B3FFCF
:105A3000431C02D12B6803B1236038BD9C040020B5
:105A400038B50446084611460022054D2A601A461C
:105A5000FBF744FF431C02D12B6803B1236038BD20
:105A60009C04002038B50446084611460022054D26
:105A70002A601A46FBF74FFF431C02D12B6803B183
:105A8000236038BD9C040020014B1868704700BF9C
:105A90001C00002070B500260C4D0D4C641BA4109A
:105AA000A64209D102F074F800260A4D0A4C641B84
:105AB000A410A64205D170BD55F8043B98470136A5
:105AC000EEE755F8043B98470136F2E704800008FA
:105AD00004800008048000080880000870477047B0
