:020000040800F2
:100000000050002069150008051500080D150008AE
:10001000151500081D150008251500080000000032
:100020000000000000000000000000002D15000886
:10003000391500080000000045150008511500089A
:10004000B1150008B1150008B1150008B115000878
:10005000B1150008B1150008B1150008B115000868
:10006000B1150008B1150008B1150008B115000858
:10007000B1150008B1150008B1150008B115000848
:10008000B1150008B1150008B1150008B115000838
:10009000B1150008B1150008B1150008B115000828
:1000A000B1150008B1150008B1150008B115000818
:1000B000B1150008B1150008B1150008B115000808
:1000C000B1150008B1150008B1150008B1150008F8
:1000D000B1150008B1150008B1150008B1150008E8
:1000E000B1150008B1150008B115000800000000A6
:1000F0000000000000000000000000000000000000
:0C01000000000000000000005FF808F1A3
:10010C0010B5054C237833B9044B13B10448AFF345
:10011C0000800123237010BD0C00002000000000A3
:10012C00D423000808B5034B1BB103490348AFF3B4
:10013C00008008BD0000000010000020D42300083F
:10014C004FF0FF0C1CEAD0521EBF1CEAD15392EAAE
:10015C000C0F93EA0C0F6FD01A4480EA010C40028A
:10016C0018BF5FEA41211ED04FF0006343EA5010E4
:10017C0043EA5111A0FB01310CF00040B1F5000F26
:10018C003EBF490041EAD3715B0040EA010062F1D5
:10019C007F02FD2A1DD8B3F1004F40EBC25008BFBF
:1001AC0020F00100704790F0000F0CF0004C08BFDD
:1001BC0049024CEA502040EA51207F3AC2BFD2F1AA
:1001CC00FF0340EAC250704740F400004FF00003B8
:1001DC00013A5DDC12F1190FDCBF00F000407047F2
:1001EC00C2F10002410021FA02F1C2F1200200FA30
:1001FC0002FC5FEA310040F1000053EA4C0308BFF7
:10020C0020EADC70704792F0000F00F0004C02BF47
:10021C00400010F4000F013AF9D040EA0C0093F0C2
:10022C00000F01F0004C02BF490011F4000F013B1C
:10023C00F9D041EA0C018FE70CEAD15392EA0C0F8A
:10024C0018BF93EA0C0F0AD030F0004C18BF31F0F5
:10025C00004CD8D180EA010000F00040704790F0CB
:10026C00000F17BF90F0004F084691F0000F91F06F
:10027C00004F14D092EA0C0F01D142020FD193EA35
:10028C000C0F03D14B0218BF084608D180EA0100BD
:10029C0000F0004040F0FE4040F40000704740F099
:1002AC00FE4040F44000704780F0004002E000BF88
:1002BC0081F0004142001FBF5FEA410392EA030F45
:1002CC007FEA226C7FEA236C6AD04FEA1262D2EB8F
:1002DC001363C1BFD218414048404140B8BF5B4294
:1002EC00192B88BF704710F0004F40F4000020F02D
:1002FC007F4018BF404211F0004F41F4000121F043
:10030C007F4118BF494292EA030F3FD0A2F101028C
:10031C0041FA03FC10EB0C00C3F1200301FA03F1CA
:10032C0000F0004302D5494260EB4000B0F5000FED
:10033C0013D3B0F1807F06D340084FEA310102F1AC
:10034C000102FE2A51D2B1F1004F40EBC25008BF5E
:10035C0020F0010040EA03007047490040EB000028
:10036C00013A28BFB0F5000FEDD2B0FA80FCACF129
:10037C00080CB2EB0C0200FA0CF0AABF00EBC25056
:10038C0052421843BCBFD0401843704792F0000F44
:10039C0081F4000106BF80F400000132013BB5E797
:1003AC004FEA41037FEA226C18BF7FEA236C21D00D
:1003BC0092EA030F04D092F0000F08BF0846704772
:1003CC0090EA010F1CBF0020704712F07F4F04D140
:1003DC00400028BF40F00040704712F100723CBF53
:1003EC0000F50000704700F0004343F0FE4040F47D
:1003FC00000070477FEA226216BF08467FEA23633B
:10040C000146420206BF5FEA412390EA010F40F425
:10041C00800070474FF0000304E000BF10F0004371
:10042C0048BF40425FEA000C08BF704743F0964358
:10043C0001464FF000001CE050EA010208BF704773
:10044C004FF000030AE000BF50EA010208BF7047FA
:10045C0011F0004302D5404261EB41015FEA010C0F
:10046C0002BF84460146002043F0B64308BFA3F107
:10047C008053A3F50003BCFA8CF2083AA3EBC253E9
:10048C0010DB01FA02FC634400FA02FCC2F1200208
:10049C00BCF1004F20FA02F243EB020008BF20F03F
:1004AC000100704702F1200201FA02FCC2F12002A5
:1004BC0050EA4C0021FA02F243EB020008BF20EA9A
:1004CC00DC7070474FF0FF3C06E000BF4FF0010CB2
:1004DC0002E000BF4FF0010C4DF804CD4FEA400292
:1004EC004FEA41037FEA226C18BF7FEA236C11D0DC
:1004FC0001B052EA530C18BF90EA010F58BFB2EB8F
:10050C00030088BFC81738BF6FEAE17018BF40F00E
:10051C00010070477FEA226C02D15FEA402C05D1C2
:10052C007FEA236CE4D15FEA412CE1D05DF8040B47
:10053C00704700BF844608466146FFE70FB5FFF7DA
:10054C00C9FF002848BF10F1000F0FBD4DF808ED92
:10055C00FFF7F4FF0CBF012000205DF808FB00BF83
:10056C004DF808EDFFF7EAFF34BF012000205DF8DD
:10057C0008FB00BF4DF808EDFFF7E0FF94BF01202A
:10058C0000205DF808FB00BF4DF808EDFFF7D2FF27
:10059C0094BF012000205DF808FB00BF4DF808ED6A
:1005AC00FFF7C8FF34BF012000205DF808FB00BF37
:1005BC004FEA4002B2F1FE4F0FD34FF09E03B3EB64
:1005CC0012620DD94FEA002343F0004310F0004FA4
:1005DC0023FA02F018BF404270474FF000007047FA
:1005EC0012F1610F01D1420205D110F0004008BF99
:1005FC006FF0004070474FF00000704742000ED281
:10060C00B2F1FE4F0BD34FF09E03B3EB126209D441
:10061C004FEA002343F0004323FA02F070474FF0F7
:10062C000000704712F1610F01D1420202D14FF06C
:10063C00FF3070474FF00000704700BF80B582B0AC
:10064C0000AF03460A46FB711346BB71BB7903F03E
:10065C000103002B14D0FB795A4A342101FB03F31C
:10066C00134404331868FB79564A342101FB03F315
:10067C00134408331B880122194601F083FA13E056
:10068C00FB79504A342101FB03F3134404331868FB
:10069C00FB794C4A342101FB03F3134408331B88C8
:1006AC000022194601F06EFABB7903F00203002B0D
:1006BC0014D0FB79434A342101FB03F313440C336C
:1006CC001868FB793F4A342101FB03F313441033C0
:1006DC001B880122194601F055FA13E0FB79394ABF
:1006EC00342101FB03F313440C331868FB79354AAE
:1006FC00342101FB03F3134410331B8800221946E9
:10070C0001F040FABB7903F00403002B14D0FB7901
:10071C002C4A342101FB03F3134414331868FB797E
:10072C00284A342101FB03F3134418331B8801229C
:10073C00194601F027FA13E0FB79224A342101FB18
:10074C0003F3134414331868FB791E4A342101FB5C
:10075C0003F3134418331B880022194601F012FAD4
:10076C00BB7903F00803002B14D0FB79154A342114
:10077C0001FB03F313441C331868FB79114A342131
:10078C0001FB03F3134420331B880122194601F0AB
:10079C00F9F913E0FB790B4A342101FB03F3134401
:1007AC001C331868FB79074A342101FB03F313440B
:1007BC0020331B880022194601F0E4F900BF0837EA
:1007CC00BD4680BD0424000880B588B000AF034648
:1007DC000A46FB711346BB71FB79574A342101FB66
:1007EC0003F313442C331868FB79534A342101FB6F
:1007FC0003F3134430331B880022194601F0C2F96D
:10080C00BA79FB7911461846FFF718FFFB794A4A6B
:10081C00342101FB03F3134424331868FB79464A53
:10082C00342101FB03F3134428331B88002219469F
:10083C0001F0A8F9414B9B68FB61414B1B68414A95
:10084C00A2FB03239A0C13469B001A443C4B1B68D7
:10085C003C49A1FB03139B0C5B08D31ABB61374BC0
:10086C009B68FA69D31ABA699A42F8D8FB79324A6A
:10087C00342101FB03F3134424331868FB792E4A0B
:10088C00342101FB03F3134428331B88012219463E
:10089C0001F078F9294B9B687B61294B1B68294A2D
:1008AC00A2FB03239A0C13469B001A44244B1B688F
:1008BC002449A1FB03139B0C5B08D31A3B611F4B10
:1008CC009B687A69D31A3A699A42F8D8FB791A4A22
:1008DC00342101FB03F3134424331868FB79164AC3
:1008EC00342101FB03F3134428331B8800221946DF
:1008FC0001F048F9114B9B68FB60114B1B68114AC6
:10090C00A2FB03239B0C642203FB02F20C4B1B681F
:10091C000C49A1FB03139B0C5B08D31ABB60074B60
:10092C009B68FA68D31ABA689A42F8D800BF00BF1D
:10093C002037BD4680BD00BF0424000810E000E055
:10094C000000002083DE1B4380B586B000AF034659
:10095C00FB71FB7900211846FFF736FFFB7901216B
:10096C001846FFF731FF00237B611FE0134B9B6898
:10097C003B61134B1B68134AA2FB03239B0C4FF4E4
:10098C007A7203FB02F20E4B1B680E49A1FB031398
:10099C009B0C5B08D31AFB60084B9B683A69D31A13
:1009AC00FA689A42F8D87B6901337B617B69012B29
:1009BC00DCD900BF00BF1837BD4680BD10E000E099
:1009CC000000002083DE1B4380B584B000AF0346DB
:1009DC00FB710B46BB7113467B71BB79012B15D197
:1009EC007B797F33FB73FB7B1B09BB73FB7B03F0B6
:1009FC000F037B73BA7BFB7911461846FFF7E4FEB5
:100A0C007A7BFB7911461846FFF7DEFEBB79022B89
:100A1C0015D17B79413BFB73FB7B1B09BB73FB7BC8
:100A2C0003F00F037B73BA7BFB7911461846FFF773
:100A3C00CBFE7A7BFB7911461846FFF7C5FE00BF4B
:100A4C001037BD4680BD000080B58EB000AF0346A8
:100A5C00FB7100BF00F000FE0346312BFAD9FB7985
:100A6C007C4A342101FB03F313442C331868FB79C3
:100A7C00784A342101FB03F3134430331B880022E2
:100A8C00194601F07FF8FB79724A342101FB03F31C
:100A9C00134424331868FB796E4A342101FB03F3A9
:100AAC00134428331B880022194601F06BF8FB799C
:100ABC0000211846FFF7C2FD00237B631FE0664B45
:100ACC009B683B61654B1B68654AA2FB03239B0C2F
:100ADC004FF47A7203FB02F2604B1B686049A1FB76
:100AEC0003139B0C5B08D31AFB605B4B9B683A6946
:100AFC00D31AFA689A42F8D87B6B01337B637B6B11
:100B0C00952BDCD9FB7903211846FFF75DFE0023FA
:100B1C003B631FE0504B9B68BB61504B1B68504ABA
:100B2C00A2FB03239B0C4FF47A7203FB02F24B4B98
:100B3C001B684B49A1FB03139B0C5B08D31A7B610D
:100B4C00454B9B68BA69D31A7A699A42F8D83B6BC1
:100B5C0001333B633B6B042BDCD9FB790321184637
:100B6C00FFF732FE0023FB621FE03B4B9B683B62AE
:100B7C003A4B1B683A4AA2FB03239B0C4FF47A7244
:100B8C0003FB02F2354B1B683549A1FB03139B0C8D
:100B9C005B08D31AFB61304B9B683A6AD31AFA692B
:100BAC009A42F8D8FB6A0133FB62FB6A042BDCD94E
:100BBC00FB7903211846FFF707FE274B9B68BB62A6
:100BCC00264B1B68264AA2FB03239B0C962203FB95
:100BDC0002F2224B1B682249A1FB03139B0C5B08FE
:100BEC00D31A7B621C4B9B68BA6AD31A7A6A9A42F4
:100BFC00F8D8FB7902211846FFF7E6FDFB790221B4
:100C0C001846FFF7E1FDFB7908211846FFF7DCFDDC
:100C1C00FB7900211846FFF7D7FDFB790C2118460C
:100C2C00FFF7D2FDFB7900211846FFF7CDFDFB79CC
:100C3C0006211846FFF7C8FDFB7900211846FFF77F
:100C4C00C3FDFB7901211846FFF7BEFD00BF383705
:100C5C00BD4680BD0424000810E000E00000002028
:100C6C0083DE1B4380B590B000AF03460A46FB7190
:100C7C001346BB71BB7903F00F0387F83F30BB7988
:100C8C0023F00F0387F83E30FB79A44A342101FB93
:100C9C0003F313442C331868FB79A04A342101FB6D
:100CAC0003F3134430331B880122194600F06AFF0A
:100CBC0097F83E301B09DAB2FB7911461846FFF75C
:100CCC00BDFCFB79954A342101FB03F31344243317
:100CDC001868FB79914A342101FB03F31344283340
:100CEC001B880022194600F04DFF8D4B9B68BB639F
:100CFC008C4B1B688C4AA2FB03239A0C13469B005B
:100D0C001A44884B1B688849A1FB03139B0C5B0896
:100D1C00D31A7B63824B9B68BA6BD31A7A6B9A4259
:100D2C00F8D8FB797D4A342101FB03F313442433B7
:100D3C001868FB79794A342101FB03F313442833F7
:100D4C001B880122194600F01DFF754B9B683B6305
:100D5C00744B1B68744AA2FB03239A0C13469B002A
:100D6C001A44704B1B687049A1FB03139B0C5B0866
:100D7C00D31AFB626A4B9B683A6BD31AFA6A9A4293
:100D8C00F8D8FB79654A342101FB03F3134424336F
:100D9C001868FB79614A342101FB03F313442833AF
:100DAC001B880022194600F0EDFE5D4B9B68BB6270
:100DBC005C4B1B685C4AA2FB03239B0C642203FB69
:100DCC0002F2584B1B685849A1FB03139B0C5B08A0
:100DDC00D31A7B62524B9B68BA6AD31A7A6A9A42CC
:100DEC00F8D897F83F20FB7911461846FFF726FCF8
:100DFC00FB794A4A342101FB03F31344243318686A
:100E0C00FB79464A342101FB03F3134428331B8836
:100E1C000022194600F0B6FE414B9B683B62414BE9
:100E2C001B68414AA2FB03239A0C13469B001A44ED
:100E3C003C4B1B683C49A1FB03139B0C5B08D31A6E
:100E4C00FB61374B9B683A6AD31AFA699A42F8D815
:100E5C00FB79324A342101FB03F313442433186821
:100E6C00FB792E4A342101FB03F3134428331B88EE
:100E7C000122194600F086FE294B9B68BB61294B69
:100E8C001B68294AA2FB03239A0C13469B001A44A5
:100E9C00244B1B682449A1FB03139B0C5B08D31A3E
:100EAC007B611F4B9B68BA69D31A7A699A42F8D84E
:100EBC00FB791A4A342101FB03F3134424331868D9
:100ECC00FB79164A342101FB03F3134428331B88A6
:100EDC000022194600F056FE114B9B683B61114BEA
:100EEC001B68114AA2FB03239B0C642203FB02F236
:100EFC000C4B1B680C49A1FB03139B0C5B08D31A0E
:100F0C00FB60074B9B683A69D31AFA689A42F8D887
:100F1C0000BF00BF4037BD4680BD00BF04240008A1
:100F2C0010E000E00000002083DE1B4380B584B09D
:100F3C0000AF03463960FB710023FB600BE0FB68DC
:100F4C003A6813441A78FB7911461846FFF78AFE63
:100F5C00FB680133FB60FB683A6813441B78002B79
:100F6C00EDD100BF00BF1037BD4680BD80B588B045
:100F7C0000AF00F019FB294BBB6100F055F800F0F5
:100F8C0099F80020FFF760FD0020FFF7DDFC01223F
:100F9C0001210020FFF718FD21490020FFF7C6FFB3
:100FAC003B1D03221946B86900F0ACF9012202215D
:100FBC000020FFF709FD3B1D19460020FFF7B6FF87
:100FCC0041F2883000F052FB0023FB6122E000204C
:100FDC00FFF7BAFC012201210020FFF7F5FC1149B3
:100FEC000020FFF7A3FF3B1D0A221946F86900F009
:100FFC00D5F80C2201210020FFF7E6FC3B1D194619
:10100C000020FFF793FF4FF4FA7000F02FFBFB6901
:10101C000133FB61FB69322BD9DDD5E71F854541D7
:10102C00EC230008F823000880B590B000AF07F15E
:10103C00180328220021184601F09AF93B1D0022C2
:10104C001A605A609A60DA601A610123BB614FF42E
:10105C008033FB6100233B620123BB6202237B6371
:10106C004FF48033BB634FF4E013FB6307F11803B9
:10107C00184600F09FFD0346002B01D000F05AF8F3
:10108C000F237B600223BB600023FB604FF4806363
:10109C003B6100237B613B1D0221184601F00CF8DB
:1010AC000346002B01D000F045F800BF4037BD4689
:1010BC0080BD000080B586B000AF07F108030022A8
:1010CC001A605A609A60DA60184B9B69174A43F0B1
:1010DC0020039361154B9B6903F020037B607B68B5
:1010EC00124B9B69114A43F0080393610F4B9B69A8
:1010FC0003F008033B603B6800224FF47C410C4832
:10110C0000F040FD4FF47C43BB600123FB600023E7
:10111C003B6103237B6107F108031946044800F087
:10112C00ADFB00BF1837BD4680BD00BF00100240AC
:10113C00000C014080B400AF72B600BF00BFFDE7E9
:10114C0080B485B000AF78600B46FB700023FB7356
:10115C00FB78013BBB7317E0FB7B7A6813441B786D
:10116C007B73BB7B7A681A44FB7B79680B441278DF
:10117C001A70BB7B7A6813447A7B1A70FB7B013341
:10118C00FB73BB7B013BBB73FA7BBB7B9A42E3D308
:10119C0000BF00BF1437BD4680BC704780B586B019
:1011AC0000AFF860B9601346FB710023FB75002398
:1011BC00BB75FB68002B0ED1FB7D5A1CFA751A46C9
:1011CC00BB68134430221A70FB7DBA6813440022AA
:1011DC001A70FB7D44E0FB68002B28DAFB790A2BA4
:1011EC0025D10123BB75FB685B42FB601FE0FA79DC
:1011FC00FB6893FBF2F101FB02F29B1A3B613B692A
:10120C00092B04DD3B69DBB23733DBB203E03B690E
:10121C00DBB23033DBB2FA7D511CF9751146BA687A
:10122C000A441370FB79FA6892FBF3F3FB60FB68DA
:10123C00002BDCD1BB7D002B07D0FB7D5A1CFA7533
:10124C001A46BB6813442D221A70FB7DBA681344EE
:10125C0000221A70FB7D1946B868FFF771FFFB7D01
:10126C0018461837BD4680BD80B586B000AFF86013
:10127C00B9601346FB710023FB75FB68002B2ED164
:10128C00FB7D5A1CFA751A46BB68134430221A703F
:10129C00FB7DBA68134400221A70FB7D2DE0FA79AD
:1012AC00FB68B3FBF2F101FB02F29B1A3B613B6959
:1012BC00092B04D93B69DBB23733DBB203E03B6962
:1012CC00DBB23033DBB2FA7D511CF9751146BA68CA
:1012DC000A441370FB79FA68B2FBF3F3FB60FB680A
:1012EC00002BDCD1FB7DBA68134400221A70FB7D05
:1012FC001946B868FFF724FFFB7D18461837BD4622
:10130C0080BD000080B58AB000AFF860B9601346AC
:10131C00FB71002387F827304FF00001F868FFF7C6
:10132C001FF90346002B0DD097F827305A1C87F86D
:10133C0027201A46BB6813442D221A70FB6883F0D1
:10134C000043FB60F868FFF733F903467B6178696B
:10135C00FFF764F803461946F868FEF7A9FF034641
:10136C003B6297F82730BA6813440A221946786909
:10137C00FFF714FF03461A4697F82730134487F8F3
:10138C002730FB79002B74D097F827305A1C87F83C
:10139C0027201A46BB6813442E221A700023FB61C7
:1013AC000023FB7608E03949386AFEF7C9FE03468C
:1013BC003B62FB7E0133FB76FA7EFB799A42F2D3D9
:1013CC00386AFFF71BF90346FB613049386AFEF7B0
:1013DC00B7FE03461846FFF711F901462C4BA3FB49
:1013EC000123DA0813469B0013445B00CA1A042A33
:1013FC0002D9FB690133FB6197F82730BA681344B3
:10140C000A221946F869FFF72FFF0346BB7626E040
:10141C0097F82720BB7E1344DBB27B7610E097F95C
:10142C001930BA681A4497F919300133B9680B446A
:10143C0012781A7097F91930DBB2013BDBB27B766C
:10144C0097F9192097F827309A42E8DA97F827305D
:10145C00BA68134430221A70BB7E0133BB76BA7E55
:10146C00FB799A42D4D397F82720FB79134487F859
:10147C00273097F82730BA68134400221A7097F86F
:10148C00273018462837BD4680BD00BF00002041DC
:10149C00CDCCCCCC80B485B000AF154B9B69144A35
:1014AC0043F001039361124B9B6903F00103BB6092
:1014BC00BB680F4BDB690E4A43F08053D3610C4B76
:1014CC00DB6903F080537B607B680A4B5B68FB60D5
:1014DC00FB6823F0E063FB60FB6843F08063FB6018
:1014EC00044AFB68536000BF1437BD4680BC70478C
:1014FC00001002400000014080B400AF00BFFDE7C7
:10150C0080B400AF00BFFDE780B400AF00BFFDE7C3
:10151C0080B400AF00BFFDE780B400AF00BFFDE7B3
:10152C0080B400AF00BFBD4680BC704780B400AF34
:10153C0000BFBD4680BC704780B400AF00BFBD4645
:10154C0080BC704780B500AF00F074F800BF80BD60
:10155C0080B400AF00BFBD4680BC7047FFF7F8FFFA
:10156C000B480C490C4A002302E0D458C4500433F5
:10157C00C4188C42F9D3094A094C002301E01360CA
:10158C000432A242FBD300F0FBFEFFF7EFFC7047E6
:10159C00000000200C000020642400080C00002037
:1015AC002C000020FEE7000080B500AF084B1B6844
:1015BC00074A43F010031360032000F02BF90F20AF
:1015CC0000F008F8FFF766FF0023184680BD00BF47
:1015DC000020024080B582B000AF7860124B1A68D0
:1015EC00124B1B7819464FF47A73B3FBF1F3B2FB31
:1015FC00F3F3184600F035F90346002B01D0012314
:10160C000EE07B680F2B0AD8002279684FF0FF3070
:10161C0000F00BF9064A7B681360002300E00123FD
:10162C0018460837BD4680BD000000200800002089
:10163C000400002080B400AF054B1B781A46054B04
:10164C001B681344034A136000BFBD4680BC70473F
:10165C00080000202800002080B400AF024B1B685B
:10166C001846BD4680BC70472800002080B584B069
:10167C0000AF7860FFF7F0FFB8607B68FB60FB6839
:10168C00B3F1FF3F05D00A4B1B781A46FB68134495
:10169C00FB6000BFFFF7E0FF0246BB68D31AFA6895
:1016AC009A42F7D800BF00BF1037BD4680BD00BFBF
:1016BC000800002080B485B000AF78607B6803F030
:1016CC000703FB600C4BDB68BB60BA684FF6FF038B
:1016DC001340BB60FB681A02BB68134343F0BF6343
:1016EC0043F40033BB60044ABB68D36000BF1437BB
:1016FC00BD4680BC704700BF00ED00E080B400AF79
:10170C00044BDB681B0A03F007031846BD4680BC7C
:10171C00704700BF00ED00E080B483B000AF03461B
:10172C003960FB7197F90730002B0ADB3B68DAB2A2
:10173C000C4997F907301201D2B20B4483F80023FD
:10174C000AE03B68DAB20849FB7903F00F03043B6B
:10175C001201D2B20B441A7600BF0C37BD4680BCC6
:10176C00704700BF00E100E000ED00E080B489B0FC
:10177C0000AFF860B9607A60FB6803F00703FB61A7
:10178C00FB69C3F10703042B28BF0423BB61FB696E
:10179C000433062B02D9FB69033B00E000237B6179
:1017AC004FF0FF32BB6902FA03F3DA43BB681A400D
:1017BC007B699A404FF0FF317B6901FA03F3D943FF
:1017CC007B680B40134318462437BD4680BC7047DA
:1017DC0080B582B000AF78607B68013BB3F1807F4D
:1017EC0001D301230FE00A4A7B68013B53600F21B0
:1017FC004FF0FF30FFF790FF054B00229A60044B2F
:10180C0007221A60002318460837BD4680BD00BF6A
:10181C0010E000E080B582B000AF78607868FFF728
:10182C0049FF00BF0837BD4680BD80B586B000AF0C
:10183C000346B9607A60FB7300237B61FFF75EFFA0
:10184C0078617A68B9687869FFF790FF024697F972
:10185C000F3011461846FFF75FFF00BF1837BD4623
:10186C0080BD80B582B000AF78607868FFF7B0FFBC
:10187C00034618460837BD4680BD000080B48BB0C7
:10188C0000AF7860396000237B6200233B6269E122
:10189C0001227B6A02FA03F3FB613B681B68FA695D
:1018AC001340BB61BA69FB699A4240F058813B68AE
:1018BC005B689A4A93425ED0984A934275D8984A8C
:1018CC00934258D0964A93426FD8964A934252D03C
:1018DC00944A934269D8944A93424CD0924A934288
:1018EC0063D8924A934246D0904A93425DD8122BC9
:1018FC002AD8122B59D801A252F823F083190008C8
:10190C005D1900086F190008B1190008B719000813
:10191C00B7190008B7190008B7190008B71900085B
:10192C00B7190008B7190008B7190008B71900084B
:10193C00B7190008B7190008B7190008B71900083B
:10194C006519000879190008794A934213D02CE0E4
:10195C003B68DB683B6229E03B68DB6804333B6235
:10196C0024E03B68DB6808333B621FE03B68DB68C4
:10197C000C333B621AE03B689B68002B02D10423BA
:10198C003B6213E03B689B68012B05D108233B624B
:10199C007B68FA691A6109E008233B627B68FA6983
:1019AC005A6103E000233B6200E000BFBB69FF2BE0
:1019BC0001D87B6801E07B6804337B61BB69FF2B3A
:1019CC0002D87B6A9B0002E07B6A083B9B003B6170
:1019DC007B691A680F213B6901FA03F3DB431A4058
:1019EC00396A3B6901FA03F31A437B691A603B6855
:1019FC005B6803F08053002B00F0B1804D4B9B696A
:101A0C004C4A43F0010393614A4B9B6903F0010379
:101A1C00BB60BB68484A7B6A9B08023352F8233090
:101A2C00FB607B6A03F003039B000F2202FA03F3B3
:101A3C00DB43FA681340FB607B68404A934213D047
:101A4C007B683F4A93420DD07B683E4A934207D055
:101A5C007B683D4A934201D1032306E0042304E052
:101A6C00022302E0012300E000237A6A02F0030261
:101A7C0092009340FA681343FB602F497B6A9B08E2
:101A8C000233FA6841F823203B685B6803F4801347
:101A9C00002B06D02D4B9A682C49BB6913438B60E5
:101AAC0006E02A4B9A68BB69DB43284913408B60DC
:101ABC003B685B6803F40013002B06D0234BDA68F9
:101ACC002249BB691343CB6006E0204BDA68BB6943
:101ADC00DB431E491340CB603B685B6803F4003367
:101AEC00002B06D0194B5A681849BB6913434B603D
:101AFC0006E0164B5A68BB69DB43144913404B6034
:101B0C003B685B6803F48033002B21D00F4B1A68C1
:101B1C000E49BB6913430B6021E000BF000032107B
:101B2C0000003110000022100000211000001210E3
:101B3C00000011100010024000000140000801409C
:101B4C00000C014000100140001401400004014051
:101B5C000B4B1A68BB69DB43094913400B607B6A6A
:101B6C0001337B623B681A687B6A22FA03F3002B11
:101B7C007FF48EAE00BF00BF2C37BD4680BC7047D3
:101B8C000004014080B483B000AF78600B467B80CA
:101B9C0013467B707B78002B03D07A887B681A61A4
:101BAC0003E07B881A047B681A6100BF0C37BD46C2
:101BBC0080BC704780B586B000AF78607B68002B26
:101BCC0001D1012372E27B681B6803F00103002B37
:101BDC0000F08780924B5B6803F00C03042B0CD055
:101BEC008F4B5B6803F00C03082B12D18C4B5B689A
:101BFC0003F48033B3F5803F0BD1894B1B6803F49E
:101C0C000033002B6CD07B685B68002B68D1012300
:101C1C004CE27B685B68B3F5803F06D1804B1B6858
:101C2C007F4A43F4803313602EE07B685B68002BA3
:101C3C000CD17B4B1B687A4A23F480331360784BAE
:101C4C001B68774A23F4802313601DE07B685B6874
:101C5C00B3F5A02F0CD1724B1B68714A43F480234F
:101C6C0013606F4B1B686E4A43F4803313600BE0B8
:101C7C006B4B1B686A4A23F480331360684B1B68F8
:101C8C00674A23F4802313607B685B68002B13D0B6
:101C9C00FFF7E2FC386108E0FFF7DEFC02463B6927
:101CAC00D31A642B01D9032300E25D4B1B6803F4A8
:101CBC000033002BF0D014E0FFF7CEFC386108E0C5
:101CCC00FFF7CAFC02463B69D31A642B01D90323E4
:101CDC00ECE1534B1B6803F40033002BF0D100E014
:101CEC0000BF7B681B6803F00203002B63D04C4BD6
:101CFC005B6803F00C03002B0BD0494B5B6803F0C3
:101D0C000C03082B1CD1464B5B6803F48033002B6F
:101D1C0016D1434B1B6803F00203002B05D07B68E4
:101D2C001B69012B01D00123C0E13D4B1B6823F043
:101D3C00F8027B685B69DB00394913430B603AE0BE
:101D4C007B681B69002B20D0364B01221A60FFF7F1
:101D5C0083FC386108E0FFF77FFC02463B69D31A2D
:101D6C00022B01D90323A1E12D4B1B6803F00203C5
:101D7C00002BF0D02A4B1B6823F0F8027B685B69C0
:101D8C00DB00274913430B6015E0264B00221A6039
:101D9C00FFF762FC386108E0FFF75EFC02463B6926
:101DAC00D31A022B01D9032380E11D4B1B6803F0CE
:101DBC000203002BF0D17B681B6803F00803002B97
:101DCC003AD07B689B69002B19D0174B01221A6003
:101DDC00FFF742FC386108E0FFF73EFC02463B6926
:101DEC00D31A022B01D9032360E10D4B5B6A03F07C
:101DFC000203002BF0D0012000F09CFA1CE00A4BEF
:101E0C0000221A60FFF728FC38610FE0FFF724FC72
:101E1C0002463B69D31A022B08D9032346E100BFC3
:101E2C00001002400000424280044242924B5B6A26
:101E3C0003F00203002BE9D17B681B6803F0040359
:101E4C00002B00F0A6800023FB758B4BDB6903F0A5
:101E5C008053002B0DD1884BDB69874A43F08053AC
:101E6C00D361854BDB6903F08053BB60BB680123F6
:101E7C00FB75824B1B6803F48073002B18D17F4BCE
:101E8C001B687E4A43F480731360FFF7E5FB3861EF
:101E9C0008E0FFF7E1FB02463B69D31A642B01D93A
:101EAC00032303E1754B1B6803F48073002BF0D004
:101EBC007B68DB68012B06D16F4B1B6A6E4A43F0C3
:101ECC00010313622DE07B68DB68002B0CD16A4B9D
:101EDC001B6A694A23F001031362674B1B6A664A4B
:101EEC0023F0040313621CE07B68DB68052B0CD128
:101EFC00614B1B6A604A43F0040313625E4B1B6A1E
:101F0C005D4A43F0010313620BE05B4B1B6A5A4AB8
:101F1C0023F001031362584B1B6A574A23F0040346
:101F2C0013627B68DB68002B15D0FFF795FB3861DB
:101F3C000AE0FFF791FB02463B69D31A41F2883263
:101F4C00934201D90323B1E04B4B1B6A03F002030C
:101F5C00002BEED014E0FFF77FFB38610AE0FFF7AF
:101F6C007BFB02463B69D31A41F28832934201D97A
:101F7C0003239BE0404B1B6A03F00203002BEED1C2
:101F8C00FB7D012B05D13C4BDB693B4A23F0805395
:101F9C00D3617B68DB69002B00F08780364B5B6874
:101FAC0003F00C03082B61D07B68DB69022B46D154
:101FBC00334B00221A60FFF74FFB386108E0FFF744
:101FCC004BFB02463B69D31A022B01D903236DE06C
:101FDC00294B1B6803F00073002BF0D17B681B6A44
:101FEC00B3F5803F08D1244B5B6823F400327B6847
:101FFC009B68214913434B601F4B5B6823F474129D
:10200C007B68196A7B685B6A0B431B4913434B6003
:10201C001B4B01221A60FFF71FFB386108E0FFF72A
:10202C001BFB02463B69D31A022B01D903233DE06B
:10203C00114B1B6803F00073002BF0D035E0104BF4
:10204C0000221A60FFF708FB386108E0FFF704FB79
:10205C0002463B69D31A022B01D9032326E0064B17
:10206C001B6803F00073002BF0D11EE07B68DB696A
:10207C00012B07D1012319E0001002400070004031
:10208C00600042420B4B5B68FB60FB6803F48032E0
:10209C007B681B6A9A4206D1FB6803F470127B685A
:1020AC005B6A9A4201D0012300E0002318461837DE
:1020BC00BD4680BD0010024080B584B000AF786092
:1020CC0039607B68002B01D10123D0E06A4B1B687F
:1020DC0003F007033A689A4210D9674B1B6823F048
:1020EC00070265493B6813430B60634B1B6803F0A5
:1020FC0007033A689A4201D00123B8E07B681B6859
:10210C0003F00203002B20D07B681B6803F0040350
:10211C00002B05D0594B5B68584A43F4E06353607D
:10212C007B681B6803F00803002B05D0534B5B68DE
:10213C00524A43F460535360504B5B6823F0F002F7
:10214C007B689B684D4913434B607B681B6803F0AD
:10215C000103002B40D07B685B68012B07D1474BF8
:10216C001B6803F40033002B15D101237FE07B683F
:10217C005B68022B07D1414B1B6803F00073002BEB
:10218C0009D1012373E03D4B1B6803F00203002BC4
:10219C0001D101236BE0394B5B6823F003027B68B0
:1021AC005B68364913434B60FFF756FAF8600AE058
:1021BC00FFF752FA0246FB68D31A41F28832934277
:1021CC0001D9032353E02D4B5B6803F00C027B68B1
:1021DC005B689B009A42EBD1274B1B6803F007030B
:1021EC003A689A4210D2244B1B6823F0070222490A
:1021FC003B6813430B60204B1B6803F007033A68E2
:10220C009A4201D0012332E07B681B6803F004037F
:10221C00002B08D0194B5B6823F4E0627B68DB6809
:10222C00164913434B607B681B6803F00803002BB3
:10223C0009D0124B5B6823F460527B681B69DB008E
:10224C000E4913434B6000F021F802460B4B5B68C0
:10225C001B0903F00F030A49CB5C22FA03F3094A6A
:10226C001360094B1B681846FFF7B4F90023184696
:10227C001037BD4680BD00BF002002400010024058
:10228C0038240008000000200400002080B487B02F
:10229C0000AF0023FB600023BB6000237B610023A5
:1022AC007B6000233B611E4B5B68FB60FB6803F0AB
:1022BC000C03042B02D0082B03D027E0194B3B61F5
:1022CC0027E0FB689B0C03F00F03174AD35C7B6081
:1022DC00FB6803F48033002B10D0114B5B685B0C54
:1022EC0003F00103114AD35CBB607B680D4A03FB0E
:1022FC0002F2BB68B2FBF3F37B6104E07B680C4A2F
:10230C0002FB03F37B617B693B6102E0054B3B61A4
:10231C0000BF3B6918461C37BD4680BC704700BFE8
:10232C000010024000127A004824000858240008CB
:10233C0000093D0080B485B000AF78600A4B1B6883
:10234C000A4AA2FB03235B0A7A6802FB03F3FB60D5
:10235C0000BFFB685A1EFA60002BF9D100BF00BF0A
:10236C001437BD4680BC704700000020D34D62106E
:10237C0003460244934200D1704703F8011BF9E76E
:10238C0070B500260C4D0D4C641BA410A64209D14F
:10239C0000F01AF800260A4D0A4C641BA410A64241
:1023AC0005D170BD55F8043B98470136EEE755F85A
:1023BC00043B98470136F2E75C2400085C240008D3
:1023CC005C24000860240008F8B500BFF8BC08BC09
:1023DC009E467047F8B500BFF8BC08BC9E467047D7
:1023EC004D6F7A61727420414F000000436F6E7420
:1023FC0061646F72203D200000000000000C014061
:10240C0000100000000C014000200000000C0140F6
:10241C0000400000000C014000800000000C014056
:10242C0000080000000C0140000400000000000047
:10243C00000000000102030406070809020304055A
:10244C00060708090A0B0C0D0E0F101001020000F4
:04245C003101000842
:042460000D01000862
:0C24640000127A001000000001000000CF
:040000050800156971
:00000001FF
